{
  "_format": "hh-sol-artifact-1",
  "contractName": "AERC20Predicate",
  "sourceName": "contracts/root/TokenPredicates/AERC20Predicate.sol",
  "abi": [
    {
      "inputs": [],
      "stateMutability": "nonpayable",
      "type": "constructor"
    },
    {
      "anonymous": false,
      "inputs": [
        {
          "indexed": true,
          "internalType": "address",
          "name": "depositor",
          "type": "address"
        },
        {
          "indexed": true,
          "internalType": "address",
          "name": "depositReceiver",
          "type": "address"
        },
        {
          "indexed": true,
          "internalType": "address",
          "name": "rootToken",
          "type": "address"
        },
        {
          "indexed": false,
          "internalType": "uint256",
          "name": "amount",
          "type": "uint256"
        }
      ],
      "name": "LockedERC20",
      "type": "event"
    },
    {
      "anonymous": false,
      "inputs": [
        {
          "indexed": true,
          "internalType": "bytes32",
          "name": "role",
          "type": "bytes32"
        },
        {
          "indexed": true,
          "internalType": "bytes32",
          "name": "previousAdminRole",
          "type": "bytes32"
        },
        {
          "indexed": true,
          "internalType": "bytes32",
          "name": "newAdminRole",
          "type": "bytes32"
        }
      ],
      "name": "RoleAdminChanged",
      "type": "event"
    },
    {
      "anonymous": false,
      "inputs": [
        {
          "indexed": true,
          "internalType": "bytes32",
          "name": "role",
          "type": "bytes32"
        },
        {
          "indexed": true,
          "internalType": "address",
          "name": "account",
          "type": "address"
        },
        {
          "indexed": true,
          "internalType": "address",
          "name": "sender",
          "type": "address"
        }
      ],
      "name": "RoleGranted",
      "type": "event"
    },
    {
      "anonymous": false,
      "inputs": [
        {
          "indexed": true,
          "internalType": "bytes32",
          "name": "role",
          "type": "bytes32"
        },
        {
          "indexed": true,
          "internalType": "address",
          "name": "account",
          "type": "address"
        },
        {
          "indexed": true,
          "internalType": "address",
          "name": "sender",
          "type": "address"
        }
      ],
      "name": "RoleRevoked",
      "type": "event"
    },
    {
      "inputs": [],
      "name": "DEFAULT_ADMIN_ROLE",
      "outputs": [
        {
          "internalType": "bytes32",
          "name": "",
          "type": "bytes32"
        }
      ],
      "stateMutability": "view",
      "type": "function"
    },
    {
      "inputs": [],
      "name": "MANAGER_ROLE",
      "outputs": [
        {
          "internalType": "bytes32",
          "name": "",
          "type": "bytes32"
        }
      ],
      "stateMutability": "view",
      "type": "function"
    },
    {
      "inputs": [],
      "name": "TOKEN_TYPE",
      "outputs": [
        {
          "internalType": "bytes32",
          "name": "",
          "type": "bytes32"
        }
      ],
      "stateMutability": "view",
      "type": "function"
    },
    {
      "inputs": [],
      "name": "TRANSFER_EVENT_SIG",
      "outputs": [
        {
          "internalType": "bytes32",
          "name": "",
          "type": "bytes32"
        }
      ],
      "stateMutability": "view",
      "type": "function"
    },
    {
      "inputs": [
        {
          "internalType": "address",
          "name": "",
          "type": "address"
        },
        {
          "internalType": "address",
          "name": "rootToken",
          "type": "address"
        },
        {
          "internalType": "bytes",
          "name": "log",
          "type": "bytes"
        }
      ],
      "name": "exitTokens",
      "outputs": [],
      "stateMutability": "nonpayable",
      "type": "function"
    },
    {
      "inputs": [
        {
          "internalType": "bytes32",
          "name": "role",
          "type": "bytes32"
        }
      ],
      "name": "getRoleAdmin",
      "outputs": [
        {
          "internalType": "bytes32",
          "name": "",
          "type": "bytes32"
        }
      ],
      "stateMutability": "view",
      "type": "function"
    },
    {
      "inputs": [
        {
          "internalType": "bytes32",
          "name": "role",
          "type": "bytes32"
        },
        {
          "internalType": "uint256",
          "name": "index",
          "type": "uint256"
        }
      ],
      "name": "getRoleMember",
      "outputs": [
        {
          "internalType": "address",
          "name": "",
          "type": "address"
        }
      ],
      "stateMutability": "view",
      "type": "function"
    },
    {
      "inputs": [
        {
          "internalType": "bytes32",
          "name": "role",
          "type": "bytes32"
        }
      ],
      "name": "getRoleMemberCount",
      "outputs": [
        {
          "internalType": "uint256",
          "name": "",
          "type": "uint256"
        }
      ],
      "stateMutability": "view",
      "type": "function"
    },
    {
      "inputs": [
        {
          "internalType": "bytes32",
          "name": "role",
          "type": "bytes32"
        },
        {
          "internalType": "address",
          "name": "account",
          "type": "address"
        }
      ],
      "name": "grantRole",
      "outputs": [],
      "stateMutability": "nonpayable",
      "type": "function"
    },
    {
      "inputs": [
        {
          "internalType": "bytes32",
          "name": "role",
          "type": "bytes32"
        },
        {
          "internalType": "address",
          "name": "account",
          "type": "address"
        }
      ],
      "name": "hasRole",
      "outputs": [
        {
          "internalType": "bool",
          "name": "",
          "type": "bool"
        }
      ],
      "stateMutability": "view",
      "type": "function"
    },
    {
      "inputs": [
        {
          "internalType": "address",
          "name": "_owner",
          "type": "address"
        }
      ],
      "name": "initialize",
      "outputs": [],
      "stateMutability": "nonpayable",
      "type": "function"
    },
    {
      "inputs": [
        {
          "internalType": "address",
          "name": "depositor",
          "type": "address"
        },
        {
          "internalType": "address",
          "name": "depositReceiver",
          "type": "address"
        },
        {
          "internalType": "address",
          "name": "rootToken",
          "type": "address"
        },
        {
          "internalType": "bytes",
          "name": "depositData",
          "type": "bytes"
        }
      ],
      "name": "lockTokens",
      "outputs": [],
      "stateMutability": "nonpayable",
      "type": "function"
    },
    {
      "inputs": [
        {
          "internalType": "bytes32",
          "name": "role",
          "type": "bytes32"
        },
        {
          "internalType": "address",
          "name": "account",
          "type": "address"
        }
      ],
      "name": "renounceRole",
      "outputs": [],
      "stateMutability": "nonpayable",
      "type": "function"
    },
    {
      "inputs": [
        {
          "internalType": "bytes32",
          "name": "role",
          "type": "bytes32"
        },
        {
          "internalType": "address",
          "name": "account",
          "type": "address"
        }
      ],
      "name": "revokeRole",
      "outputs": [],
      "stateMutability": "nonpayable",
      "type": "function"
    }
  ],
  "bytecode": "0x60806040526002805460ff1916905534801561001a57600080fd5b50611a788061002a6000396000f3fe608060405234801561001057600080fd5b50600436106100ea5760003560e01c8063a217fddf1161008c578063ca15c87311610066578063ca15c873146102f4578063d547741f14610311578063e375b64e1461033d578063ec87621c146103ce576100ea565b8063a217fddf146102be578063b017a30f146102c6578063c4d66de8146102ce576100ea565b8063609c92b8116100c8578063609c92b8146101785780638274664f146101805780639010d07c1461023f57806391d148541461027e576100ea565b8063248a9ca3146100ef5780632f2ff15d1461011e57806336568abe1461014c575b600080fd5b61010c6004803603602081101561010557600080fd5b50356103d6565b60408051918252519081900360200190f35b61014a6004803603604081101561013457600080fd5b50803590602001356001600160a01b03166103ee565b005b61014a6004803603604081101561016257600080fd5b50803590602001356001600160a01b031661045a565b61010c6104bb565b61014a6004803603606081101561019657600080fd5b6001600160a01b0382358116926020810135909116918101906060810160408201356401000000008111156101ca57600080fd5b8201836020820111156101dc57600080fd5b803590602001918460018302840111640100000000831117156101fe57600080fd5b91908080601f0160208091040260200160405190810160405280939291908181526020018383808284376000920191909152509295506104d8945050505050565b6102626004803603604081101561025557600080fd5b5080359060200135610887565b604080516001600160a01b039092168252519081900360200190f35b6102aa6004803603604081101561029457600080fd5b50803590602001356001600160a01b03166108ae565b604080519115158252519081900360200190f35b61010c6108cc565b61010c6108d1565b61014a600480360360208110156102e457600080fd5b50356001600160a01b03166108f5565b61010c6004803603602081101561030a57600080fd5b50356109b3565b61014a6004803603604081101561032757600080fd5b50803590602001356001600160a01b03166109ca565b61014a6004803603608081101561035357600080fd5b6001600160a01b038235811692602081013582169260408201359092169181019060808101606082013564010000000081111561038f57600080fd5b8201836020820111156103a157600080fd5b803590602001918460018302840111640100000000831117156103c357600080fd5b509092509050610a23565b61010c610b3a565b6000818152602081905260409020600201545b919050565b6000828152602081905260409020600201546104119061040c610b5e565b6108ae565b61044c5760405162461bcd60e51b815260040180806020018281038252602f8152602001806118cc602f913960400191505060405180910390fd5b6104568282610b63565b5050565b610462610b5e565b6001600160a01b0316816001600160a01b0316146104b15760405162461bcd60e51b815260040180806020018281038252602f8152602001806119ed602f913960400191505060405180910390fd5b6104568282610bd2565b6040805164045524332360dc1b8152905190819003600501902081565b604080516b4d414e414745525f524f4c4560a01b8152905190819003600c0190206105058161040c610b5e565b6001906105a55760405162461bcd60e51b81526020600482019081528254600260001961010060018416150201909116046024830181905290918291604490910190849080156105965780601f1061056b57610100808354040283529160200191610596565b820191906000526020600020905b81548152906001019060200180831161057957829003601f168201915b50509250505060405180910390fd5b5060606105b96105b484610c41565b610cbc565b905060606105da826001815181106105cd57fe5b6020026020010151610cbc565b90507fddf252ad1be2c89b69c2b068fc378daa952ba7f163c4a11628f55a4df523b3ef60001b61061d8260008151811061061057fe5b6020026020010151610e3e565b146106595760405162461bcd60e51b81526004018080602001828103825260218152602001806118fb6021913960400191505060405180910390fd5b600061066b8260018151811061061057fe5b905060006001600160a01b03166106888360028151811061061057fe5b6001600160a01b0316146106e3576040805162461bcd60e51b815260206004820181905260248201527f45524332305072656469636174653a20494e56414c49445f5245434549564552604482015290519081900360640190fd5b60006106f58460028151811061061057fe5b90506000876001600160a01b0316637535d2466040518163ffffffff1660e01b8152600401602060405180830381600087803b15801561073457600080fd5b505af1158015610748573d6000803e3d6000fd5b505050506040513d602081101561075e57600080fd5b5051604080516358b50cef60e11b815290519192506000916001600160a01b038085169263d15e005392918d169163b16a19de9160048082019260209290919082900301818987803b1580156107b357600080fd5b505af11580156107c7573d6000803e3d6000fd5b505050506040513d60208110156107dd57600080fd5b5051604080516001600160e01b031960e085901b1681526001600160a01b039092166004830152516024808301926020929190829003018186803b15801561082457600080fd5b505afa158015610838573d6000803e3d6000fd5b505050506040513d602081101561084e57600080fd5b50519050600061085e8483610f86565b905061087a6001600160a01b038b16868363ffffffff61105c16565b5050505050505050505050565b60008281526020819052604081206108a5908363ffffffff6110b316565b90505b92915050565b60008281526020819052604081206108a5908363ffffffff6110bf16565b600081565b7fddf252ad1be2c89b69c2b068fc378daa952ba7f163c4a11628f55a4df523b3ef81565b60025460ff161561093e576040805162461bcd60e51b815260206004820152600e60248201526d185b1c9958591e481a5b9a5d195960921b604482015290519081900360640190fd5b61096d6040518060400160405280600e81526020016d455243323050726564696361746560901b8152506110d4565b61097860008261044c565b604080516b4d414e414745525f524f4c4560a01b8152905190819003600c0190206109a3908261044c565b506002805460ff19166001179055565b60008181526020819052604081206108a890611172565b6000828152602081905260409020600201546109e89061040c610b5e565b6104b15760405162461bcd60e51b81526004018080602001828103825260308152602001806119406030913960400191505060405180910390fd5b604080516b4d414e414745525f524f4c4560a01b8152905190819003600c019020610a508161040c610b5e565b600190610ab65760405162461bcd60e51b81526020600482019081528254600260001961010060018416150201909116046024830181905290918291604490910190849080156105965780601f1061056b57610100808354040283529160200191610596565b50600083836020811015610ac957600080fd5b5060408051913580835290519092506001600160a01b038088169289821692918b16917f9b217a401a5ddf7c4d474074aff9958a18d48690d77cc2151c4706aa7348b4019181900360200190a4610b316001600160a01b03861688308463ffffffff61117d16565b50505050505050565b604080516b4d414e414745525f524f4c4560a01b8152905190819003600c01902081565b335b90565b6000828152602081905260409020610b81908263ffffffff6111dd16565b1561045657610b8e610b5e565b6001600160a01b0316816001600160a01b0316837f2f8788117e7eff1d82e926ec794901d17c78024a50270940304540a733656f0d60405160405180910390a45050565b6000828152602081905260409020610bf0908263ffffffff6111f216565b1561045657610bfd610b5e565b6001600160a01b0316816001600160a01b0316837ff6391f5c32d9c69d2a47ea670b442974b53935d1edc7fd64eb21e047a839171b60405160405180910390a45050565b610c496117f7565b6000825111610c9f576040805162461bcd60e51b815260206004820152601f60248201527f524c505265616465723a20494e56414c49445f42595445535f4c454e47544800604482015290519081900360640190fd5b506040805180820190915281518152602082810190820152919050565b6060610cc782611207565b610d18576040805162461bcd60e51b815260206004820152601860248201527f524c505265616465723a204954454d5f4e4f545f4c4953540000000000000000604482015290519081900360640190fd5b6000610d2383611233565b905060608167ffffffffffffffff81118015610d3e57600080fd5b50604051908082528060200260200182016040528015610d7857816020015b610d656117f7565b815260200190600190039081610d5d5790505b5090506000610d8a85602001516112bf565b85519091508114610dcc5760405162461bcd60e51b815260040180806020018281038252602781526020018061199c6027913960400191505060405180910390fd5b6000610ddb8660200151611358565b60208701510190506000805b85811015610e3257610df8836112bf565b9150604051806040016040528083815260200184815250858281518110610e1b57fe5b602090810291909101015291810191600101610de7565b50929695505050505050565b6000610e4982611207565b15610e9b576040805162461bcd60e51b815260206004820181905260248201527f524c505265616465723a204445434f44494e475f4c4953545f41535f55494e54604482015290519081900360640190fd5b815160211015610ef2576040805162461bcd60e51b815260206004820152601e60248201527f524c505265616465723a20494e56414c49445f55494e545f4c454e4754480000604482015290519081900360640190fd5b6000610f0183602001516112bf565b83519091508114610f435760405162461bcd60e51b8152600401808060200182810382526027815260200180611a1c6027913960400191505060405180910390fd5b6000610f528460200151611358565b84516020808701518301805193945091849003929190831015610f7c57826020036101000a820491505b5095945050505050565b600082820280610f9a5760009150506108a8565b838181610fa357fe5b048314610ff7576040805162461bcd60e51b815260206004820152601b60248201527f703237206d756c7469706c69636174696f6e206f766572666c6f770000000000604482015290519081900360640190fd5b6b019d971e4fe8401e74000000908101908110156110465760405162461bcd60e51b815260040180806020018281038252602481526020018061191c6024913960400191505060405180910390fd5b6b033b2e3c9fd0803ce800000090049392505050565b604080516001600160a01b038416602482015260448082018490528251808303909101815260649091019091526020810180516001600160e01b031663a9059cbb60e01b1790526110ae9084906113bb565b505050565b60006108a5838361146c565b60006108a5836001600160a01b0384166114d0565b806040516020018082805190602001908083835b602083106111075780518252601f1990920191602091820191016110e8565b51815160209384036101000a60001901801990921691161790527f3a20494e53554646494349454e545f5045524d495353494f4e530000000000009190930190815260408051808303600519018152601a909201905280516104569550600194509201919050611811565b60006108a8826114e8565b604080516001600160a01b0380861660248301528416604482015260648082018490528251808303909101815260849091019091526020810180516001600160e01b03166323b872dd60e01b1790526111d79085906113bb565b50505050565b60006108a5836001600160a01b0384166114ec565b60006108a5836001600160a01b038416611536565b6020810151805160009190821a9060c0821015611229576000925050506103e9565b5060019392505050565b6000806000905060006112498460200151611358565b602085015185519181019250015b808210156112b657611268826112bf565b82019150808211156112ab5760405162461bcd60e51b815260040180806020018281038252602c815260200180611970602c913960400191505060405180910390fd5b600190920191611257565b50909392505050565b80516000908190811a60808110156112da5760019150611351565b60b88110156112ef57607e1981019150611351565b60c081101561131c5760b78103600185019450806020036101000a85510460018201810193505050611351565b60f88110156113315760be1981019150611351565b60f78103600185019450806020036101000a855104600182018101935050505b5092915050565b8051600090811a60808110156113725760009150506103e9565b60b881108061138d575060c0811080159061138d575060f881105b1561139c5760019150506103e9565b60c08110156113b05760b5190190506103e9565b60f5190190506103e9565b6060611410826040518060400160405280602081526020017f5361666545524332303a206c6f772d6c6576656c2063616c6c206661696c6564815250856001600160a01b03166115fc9092919063ffffffff16565b8051909150156110ae5780806020019051602081101561142f57600080fd5b50516110ae5760405162461bcd60e51b815260040180806020018281038252602a8152602001806119c3602a913960400191505060405180910390fd5b815460009082106114ae5760405162461bcd60e51b81526004018080602001828103825260228152602001806118aa6022913960400191505060405180910390fd5b8260000182815481106114bd57fe5b9060005260206000200154905092915050565b60009081526001919091016020526040902054151590565b5490565b60006114f883836114d0565b61152e575081546001818101845560008481526020808220909301849055845484825282860190935260409020919091556108a8565b5060006108a8565b600081815260018301602052604081205480156115f2578354600019808301919081019060009087908390811061156957fe5b906000526020600020015490508087600001848154811061158657fe5b6000918252602080832090910192909255828152600189810190925260409020908401905586548790806115b657fe5b600190038181906000526020600020016000905590558660010160008781526020019081526020016000206000905560019450505050506108a8565b60009150506108a8565b606061160b8484600085611613565b949350505050565b606061161e856117be565b61166f576040805162461bcd60e51b815260206004820152601d60248201527f416464726573733a2063616c6c20746f206e6f6e2d636f6e7472616374000000604482015290519081900360640190fd5b60006060866001600160a01b031685876040518082805190602001908083835b602083106116ae5780518252601f19909201916020918201910161168f565b6001836020036101000a03801982511681845116808217855250505050505090500191505060006040518083038185875af1925050503d8060008114611710576040519150601f19603f3d011682016040523d82523d6000602084013e611715565b606091505b5091509150811561172957915061160b9050565b8051156117395780518082602001fd5b8360405162461bcd60e51b81526004018080602001828103825283818151815260200191508051906020019080838360005b8381101561178357818101518382015260200161176b565b50505050905090810190601f1680156117b05780820380516001836020036101000a031916815260200191505b509250505060405180910390fd5b6000813f7fc5d2460186f7233c927e7db2dcc703c0e500b653ca82273b7bfad8045d85a47081811480159061160b575050151592915050565b604051806040016040528060008152602001600081525090565b828054600181600116156101000203166002900490600052602060002090601f016020900481019282601f1061185257805160ff191683800117855561187f565b8280016001018555821561187f579182015b8281111561187f578251825591602001919060010190611864565b5061188b92915061188f565b5090565b610b6091905b8082111561188b576000815560010161189556fe456e756d657261626c655365743a20696e646578206f7574206f6620626f756e6473416363657373436f6e74726f6c3a2073656e646572206d75737420626520616e2061646d696e20746f206772616e7445524332305072656469636174653a20494e56414c49445f5349474e4154555245703237206d756c7469706c69636174696f6e206164646974696f6e206f766572666c6f77416363657373436f6e74726f6c3a2073656e646572206d75737420626520616e2061646d696e20746f207265766f6b65524c505265616465723a204e554d5f4954454d535f4445434f4445445f4c454e4754485f4d49534d41544348524c505265616465723a204c4953545f4445434f4445445f4c454e4754485f4d49534d415443485361666545524332303a204552433230206f7065726174696f6e20646964206e6f742073756363656564416363657373436f6e74726f6c3a2063616e206f6e6c792072656e6f756e636520726f6c657320666f722073656c66524c505265616465723a2055494e545f4445434f4445445f4c454e4754485f4d49534d41544348a264697066735822122082eab752b4d3d067a2dff67579c7988fbb748edcedbff27c907249e901cfda7964736f6c63430006060033",
  "linkReferences": {},
  "deployedLinkReferences": {}
}