{
  "_format": "hh-sol-artifact-1",
  "contractName": "ATokenChildChainManager",
  "sourceName": "contracts/child/ChildChainManager/ATokenChildChainManager.sol",
  "abi": [
    {
      "anonymous": false,
      "inputs": [
        {
          "indexed": true,
          "internalType": "address",
          "name": "_previousOwner",
          "type": "address"
        },
        {
          "indexed": true,
          "internalType": "address",
          "name": "_newOwner",
          "type": "address"
        }
      ],
      "name": "SetOwner",
      "type": "event"
    },
    {
      "anonymous": false,
      "inputs": [
        {
          "indexed": true,
          "internalType": "address",
          "name": "_previousStateReceiver",
          "type": "address"
        },
        {
          "indexed": true,
          "internalType": "address",
          "name": "_newStateReceiver",
          "type": "address"
        }
      ],
      "name": "SetStateReceiver",
      "type": "event"
    },
    {
      "anonymous": false,
      "inputs": [
        {
          "indexed": true,
          "internalType": "address",
          "name": "rootToken",
          "type": "address"
        },
        {
          "indexed": true,
          "internalType": "address",
          "name": "childToken",
          "type": "address"
        }
      ],
      "name": "TokenMapped",
      "type": "event"
    },
    {
      "inputs": [],
      "name": "DEPOSIT",
      "outputs": [
        {
          "internalType": "bytes32",
          "name": "",
          "type": "bytes32"
        }
      ],
      "stateMutability": "view",
      "type": "function"
    },
    {
      "inputs": [],
      "name": "MAP_TOKEN",
      "outputs": [
        {
          "internalType": "bytes32",
          "name": "",
          "type": "bytes32"
        }
      ],
      "stateMutability": "view",
      "type": "function"
    },
    {
      "inputs": [
        {
          "internalType": "address",
          "name": "_childToken",
          "type": "address"
        }
      ],
      "name": "childToRootToken",
      "outputs": [
        {
          "internalType": "address",
          "name": "",
          "type": "address"
        }
      ],
      "stateMutability": "view",
      "type": "function"
    },
    {
      "inputs": [],
      "name": "childTokenBytecodeHash",
      "outputs": [
        {
          "internalType": "bytes32",
          "name": "",
          "type": "bytes32"
        }
      ],
      "stateMutability": "pure",
      "type": "function"
    },
    {
      "inputs": [],
      "name": "childTokenImplementation",
      "outputs": [
        {
          "internalType": "address",
          "name": "",
          "type": "address"
        }
      ],
      "stateMutability": "view",
      "type": "function"
    },
    {
      "inputs": [
        {
          "internalType": "address",
          "name": "_owner",
          "type": "address"
        },
        {
          "internalType": "address",
          "name": "_stateReceiver",
          "type": "address"
        },
        {
          "internalType": "address",
          "name": "_childTokenImplementation",
          "type": "address"
        }
      ],
      "name": "initialize",
      "outputs": [],
      "stateMutability": "nonpayable",
      "type": "function"
    },
    {
      "inputs": [
        {
          "internalType": "uint256",
          "name": "",
          "type": "uint256"
        },
        {
          "internalType": "bytes",
          "name": "data",
          "type": "bytes"
        }
      ],
      "name": "onStateReceive",
      "outputs": [],
      "stateMutability": "nonpayable",
      "type": "function"
    },
    {
      "inputs": [],
      "name": "owner",
      "outputs": [
        {
          "internalType": "address",
          "name": "",
          "type": "address"
        }
      ],
      "stateMutability": "view",
      "type": "function"
    },
    {
      "inputs": [
        {
          "internalType": "address",
          "name": "_rootToken",
          "type": "address"
        }
      ],
      "name": "rootToChildToken",
      "outputs": [
        {
          "internalType": "address",
          "name": "",
          "type": "address"
        }
      ],
      "stateMutability": "view",
      "type": "function"
    },
    {
      "inputs": [
        {
          "internalType": "address",
          "name": "_childTokenImplementation",
          "type": "address"
        }
      ],
      "name": "setChildTokenImplementation",
      "outputs": [],
      "stateMutability": "nonpayable",
      "type": "function"
    },
    {
      "inputs": [
        {
          "internalType": "address",
          "name": "_newOwner",
          "type": "address"
        }
      ],
      "name": "setOwner",
      "outputs": [],
      "stateMutability": "nonpayable",
      "type": "function"
    },
    {
      "inputs": [
        {
          "internalType": "address",
          "name": "_newStateReceiver",
          "type": "address"
        }
      ],
      "name": "setStateReceiver",
      "outputs": [],
      "stateMutability": "nonpayable",
      "type": "function"
    },
    {
      "inputs": [],
      "name": "stateReceiver",
      "outputs": [
        {
          "internalType": "address",
          "name": "",
          "type": "address"
        }
      ],
      "stateMutability": "view",
      "type": "function"
    }
  ],
  "bytecode": "0x608060405234801561001057600080fd5b506117ec806100206000396000f3fe608060405234801561001057600080fd5b50600436106100cf5760003560e01c806363c2e7d91161008c5780638da5cb5b116100665780638da5cb5b14610231578063c0c53b8b14610239578063d81c8e5214610271578063ea60c7c414610279576100cf565b806363c2e7d9146101fb5780636e86b77014610203578063886a69ba14610229576100cf565b806305dc2e8f146100d45780630c8ced50146100f857806313af4035146101205780631e9d94581461014657806326c53bea1461016057806352cfbea3146101d5575b600080fd5b6100dc61029f565b604080516001600160a01b039092168252519081900360200190f35b61011e6004803603602081101561010e57600080fd5b50356001600160a01b03166102ae565b005b61011e6004803603602081101561013657600080fd5b50356001600160a01b0316610324565b61014e6103ce565b60408051918252519081900360200190f35b61011e6004803603604081101561017657600080fd5b81359190810190604081016020820135600160201b81111561019757600080fd5b8201836020820111156101a957600080fd5b803590602001918460018302840111600160201b831117156101ca57600080fd5b509092509050610400565b61011e600480360360208110156101eb57600080fd5b50356001600160a01b031661059e565b6100dc610648565b6100dc6004803603602081101561021957600080fd5b50356001600160a01b031661065c565b61014e61067a565b6100dc61069b565b61011e6004803603606081101561024f57600080fd5b506001600160a01b0381358116916020810135821691604090910135166106aa565b61014e61074a565b6100dc6004803603602081101561028f57600080fd5b50356001600160a01b0316610769565b6004546001600160a01b031690565b6005546001600160a01b031633146102fc576040805162461bcd60e51b815260206004820152600c60248201526b24b9903737ba1037bbb732b960a11b604482015290519081900360640190fd5b600280546001600160a01b0390921661010002610100600160a81b0319909216919091179055565b6005546001600160a01b03163314610372576040805162461bcd60e51b815260206004820152600c60248201526b24b9903737ba1037bbb732b960a11b604482015290519081900360640190fd5b6005546040516001600160a01b038084169216907fcbf985117192c8f614a58aaf97226bb80a754772f5f6edf06f87c675f2e6c66390600090a3600580546001600160a01b0319166001600160a01b0392909216919091179055565b6000604051806020016103e090610eed565b6020820181038252601f19601f8201166040525080519060200120905090565b6004546001600160a01b03163314610457576040805162461bcd60e51b815260206004820152601560248201527424b9903737ba1039ba30ba32903932b1b2b4bb32b960591b604482015290519081900360640190fd5b600060608383604081101561046b57600080fd5b81359190810190604081016020820135600160201b81111561048c57600080fd5b82018360208201111561049e57600080fd5b803590602001918460018302840111600160201b831117156104bf57600080fd5b91908080601f01602080910402602001604051908101604052809392919081815260200183838082843760009201919091525050604080516611115413d4d25560ca1b8152905190819003600701902096985091965050505091841415915061053290505761052d81610787565b610597565b604080516826a0a82faa27a5a2a760b91b815290519081900360090190208214156105605761052d81610994565b60405162461bcd60e51b81526004018080602001828103825260248152602001806117706024913960400191505060405180910390fd5b5050505050565b6005546001600160a01b031633146105ec576040805162461bcd60e51b815260206004820152600c60248201526b24b9903737ba1037bbb732b960a11b604482015290519081900360640190fd5b6004546040516001600160a01b038084169216907fccaa983f8f8f640893ab8d39755d334ddb8c0ed29283a82eb78fdcdb80511d1490600090a3600480546001600160a01b0319166001600160a01b0392909216919091179055565b60025461010090046001600160a01b031690565b6001600160a01b039081166000908152600160205260409020541690565b604080516826a0a82faa27a5a2a760b91b8152905190819003600901902081565b6005546001600160a01b031690565b60025460ff16156106f3576040805162461bcd60e51b815260206004820152600e60248201526d185b1c9958591e481a5b9a5d195960921b604482015290519081900360640190fd5b60028054600580546001600160a01b039687166001600160a01b031991821617909155600480549587169590911694909417909355921661010002610100600160a81b031960ff1990921660011791909116179055565b604080516611115413d4d25560ca1b8152905190819003600701902081565b6001600160a01b039081166000908152602081905260409020541690565b60008060608380602001905160608110156107a157600080fd5b81516020830151604080850180519151939592948301929184600160201b8211156107cb57600080fd5b9083019060208201858111156107e057600080fd5b8251600160201b8111828201881017156107f957600080fd5b82525081516020918201929091019080838360005b8381101561082657818101518382015260200161080e565b50505050905090810190601f1680156108535780820380516001836020036101000a031916815260200191505b5060409081526001600160a01b03808716600090815260208190529190912054969950949750929550505091169050806108be5760405162461bcd60e51b81526004018080602001828103825260238152602001806117946023913960400191505060405180910390fd5b6040805163cf2c52cb60e01b81526001600160a01b03868116600483019081526024830193845285516044840152855185949285169363cf2c52cb938a938993909260640190602085019080838360005b8381101561092757818101518382015260200161090f565b50505050905090810190601f1680156109545780820380516001836020036101000a031916815260200191505b509350505050600060405180830381600087803b15801561097457600080fd5b505af1158015610988573d6000803e3d6000fd5b50505050505050505050565b600060608060008480602001905160808110156109b057600080fd5b815160208301805160405192949293830192919084600160201b8211156109d657600080fd5b9083019060208201858111156109eb57600080fd5b8251600160201b811182820188101715610a0457600080fd5b82525081516020918201929091019080838360005b83811015610a31578181015183820152602001610a19565b50505050905090810190601f168015610a5e5780820380516001836020036101000a031916815260200191505b5060405260200180516040519392919084600160201b821115610a8057600080fd5b908301906020820185811115610a9557600080fd5b8251600160201b811182820188101715610aae57600080fd5b82525081516020918201929091019080838360005b83811015610adb578181015183820152602001610ac3565b50505050905090810190601f168015610b085780820380516001836020036101000a031916815260200191505b5060405260200180519060200190929190505050935093509350935060008460601b6bffffffffffffffffffffffff1916604051610b4590610eed565b8190604051809103906000f5905080158015610b65573d6000803e3d6000fd5b50600254604080516296c8af60e21b81526101009092046001600160a01b039081166004840152905192935083169163025b22bc9160248082019260009290919082900301818387803b158015610bbb57600080fd5b505af1158015610bcf573d6000803e3d6000fd5b5050600554604080516378b9ce5760e11b81526001600160a01b0392831660048201529051918516935063f1739cae925060248082019260009290919082900301818387803b158015610c2157600080fd5b505af1158015610c35573d6000803e3d6000fd5b505060405163de7ea79d60e01b815260ff8516604482015230606482018190526080600483019081528851608484015288516001600160a01b038716955063de7ea79d9450899389938993909290918291602482019160a40190602089019080838360005b83811015610cb2578181015183820152602001610c9a565b50505050905090810190601f168015610cdf5780820380516001836020036101000a031916815260200191505b50838103825286518152865160209182019188019080838360005b83811015610d12578181015183820152602001610cfa565b50505050905090810190601f168015610d3f5780820380516001836020036101000a031916815260200191505b509650505050505050600060405180830381600087803b158015610d6257600080fd5b505af1158015610d76573d6000803e3d6000fd5b505050506001600160a01b038581166000908152602081815260408083205485851680855260019093529220548493928316921690821415610de95760405162461bcd60e51b815260040180806020018281038252602181526020018061174f6021913960400191505060405180910390fd5b6001600160a01b038181166000908152602081905260409020541615610e30576001600160a01b038116600090815260208190526040902080546001600160a01b03191690555b6001600160a01b038281166000908152600160205260409020541615610e77576001600160a01b038216600090815260016020526040902080546001600160a01b03191690555b6001600160a01b0380891660008181526020818152604080832080549589166001600160a01b0319968716811790915580845260019092528083208054909516841790945592517f85920d35e6c72f6b2affffa04298b0cecfeba86e4a9f407df661f1cb8ab5e6179190a3505050505050505050565b61085480610efb8339019056fe608060405234801561001057600080fd5b506000610025336001600160e01b0361003d16565b610037816001600160e01b0361007216565b50610094565b604080517f6d617469632e6e6574776f726b2e70726f78792e6f776e6572000000000000008152905190819003601901902055565b6000604051808061083260229139604051908190036022019020929092555050565b61078f806100a36000396000f3fe6080604052600436106100595760003560e01c8063025313a2146100b3578063025b22bc146100e45780634555d5c9146101175780635c60da1b1461013e578063d88ca2c814610153578063f1739cae14610209576100a8565b366100a8576100a661006961023c565b6000368080601f01602080910402602001604051908101604052809392919081815260200183838082843760009201919091525061026292505050565b005b6100a661006961023c565b3480156100bf57600080fd5b506100c861028a565b604080516001600160a01b039092168252519081900360200190f35b3480156100f057600080fd5b506100a66004803603602081101561010757600080fd5b50356001600160a01b0316610299565b34801561012357600080fd5b5061012c6103d3565b60408051918252519081900360200190f35b34801561014a57600080fd5b506100c86103d8565b6100a66004803603604081101561016957600080fd5b6001600160a01b03823516919081019060408101602082013564010000000081111561019457600080fd5b8201836020820111156101a657600080fd5b803590602001918460018302840111640100000000831117156101c857600080fd5b91908080601f0160208091040260200160405190810160405280939291908181526020018383808284376000920191909152509295506103e2945050505050565b34801561021557600080fd5b506100a66004803603602081101561022c57600080fd5b50356001600160a01b0316610578565b600080600060405180806107386022913960405190819003602201902054935050505090565b600080825160208401856127105a03f43d604051816000823e828015610286578282f35b8282fd5b600061029461066a565b905090565b336102a261066a565b6001600160a01b0316146102e9576040805162461bcd60e51b81526020600482015260096024820152682727aa2fa7aba722a960b91b604482015290519081900360640190fd5b6001600160a01b03811661033c576040805162461bcd60e51b8152602060048201526015602482015274494e56414c49445f50524f58595f4144445245535360581b604482015290519081900360640190fd5b6103458161069c565b6103805760405162461bcd60e51b81526004018080602001828103825260258152602001806107136025913960400191505060405180910390fd5b61038861023c565b6001600160a01b0316816001600160a01b03167fd32d24edea94f55e932d9a008afc425a8561462d1b1f57bc6e508e9a6b9509e160405160405180910390a36103d0816106bf565b50565b600290565b600061029461023c565b336103eb61066a565b6001600160a01b031614610432576040805162461bcd60e51b81526020600482015260096024820152682727aa2fa7aba722a960b91b604482015290519081900360640190fd5b61043b82610299565b60006060306001600160a01b031634846040518082805190602001908083835b6020831061047a5780518252601f19909201916020918201910161045b565b6001836020036101000a03801982511681845116808217855250505050505090500191505060006040518083038185875af1925050503d80600081146104dc576040519150601f19603f3d011682016040523d82523d6000602084013e6104e1565b606091505b50915091508181906105715760405162461bcd60e51b81526004018080602001828103825283818151815260200191508051906020019080838360005b8381101561053657818101518382015260200161051e565b50505050905090810190601f1680156105635780820380516001836020036101000a031916815260200191505b509250505060405180910390fd5b5050505050565b3361058161066a565b6001600160a01b0316146105c8576040805162461bcd60e51b81526020600482015260096024820152682727aa2fa7aba722a960b91b604482015290519081900360640190fd5b6001600160a01b038116610612576040805162461bcd60e51b815260206004820152600c60248201526b5a45524f5f4144445245535360a01b604482015290519081900360640190fd5b7fdbe5fd65bcdbae152f24ab660ea68e72b4d4705b57b16e0caae994e214680ee28161063c61066a565b604080516001600160a01b03938416815291909216602082015281519081900390910190a16103d0816106e1565b604080517836b0ba34b1973732ba3bb7b93597383937bc3c9737bbb732b960391b815290519081900360190190205490565b60006001600160a01b0382166106b4575060006106ba565b50803b15155b919050565b6000604051808061073860229139604051908190036022019020929092555050565b604080517836b0ba34b1973732ba3bb7b93597383937bc3c9737bbb732b960391b815290519081900360190190205556fe44455354494e4154494f4e5f414444524553535f49535f4e4f545f415f434f4e54524143546d617469632e6e6574776f726b2e70726f78792e696d706c656d656e746174696f6ea2646970667358221220a5815d40c97ab33e5f97449c078b4f107e7e24440e9bfaf7e53102574d7c3c3264736f6c634300060600336d617469632e6e6574776f726b2e70726f78792e696d706c656d656e746174696f6e43616e206e6f742072656d617020746f2073616d65206368696c6420746f6b656e4368696c64436861696e4d616e616765723a20494e56414c49445f53594e435f545950454368696c64436861696e4d616e616765723a20544f4b454e5f4e4f545f4d4150504544a26469706673582212207ade7a630c849cfb3c8bf1bdb1b30fd08031860bb9aa9edb961f7b5ecb81356964736f6c63430006060033",
  "linkReferences": {},
  "deployedLinkReferences": {}
}