{
  "_format": "hh-sol-artifact-1",
  "contractName": "DummyERC721",
  "sourceName": "contracts/root/RootToken/DummyERC721.sol",
  "abi": [
    {
      "inputs": [
        {
          "internalType": "string",
          "name": "name_",
          "type": "string"
        },
        {
          "internalType": "string",
          "name": "symbol_",
          "type": "string"
        }
      ],
      "stateMutability": "nonpayable",
      "type": "constructor"
    },
    {
      "anonymous": false,
      "inputs": [
        {
          "indexed": true,
          "internalType": "address",
          "name": "owner",
          "type": "address"
        },
        {
          "indexed": true,
          "internalType": "address",
          "name": "approved",
          "type": "address"
        },
        {
          "indexed": true,
          "internalType": "uint256",
          "name": "tokenId",
          "type": "uint256"
        }
      ],
      "name": "Approval",
      "type": "event"
    },
    {
      "anonymous": false,
      "inputs": [
        {
          "indexed": true,
          "internalType": "address",
          "name": "owner",
          "type": "address"
        },
        {
          "indexed": true,
          "internalType": "address",
          "name": "operator",
          "type": "address"
        },
        {
          "indexed": false,
          "internalType": "bool",
          "name": "approved",
          "type": "bool"
        }
      ],
      "name": "ApprovalForAll",
      "type": "event"
    },
    {
      "anonymous": false,
      "inputs": [
        {
          "indexed": false,
          "internalType": "address",
          "name": "userAddress",
          "type": "address"
        },
        {
          "indexed": false,
          "internalType": "address payable",
          "name": "relayerAddress",
          "type": "address"
        },
        {
          "indexed": false,
          "internalType": "bytes",
          "name": "functionSignature",
          "type": "bytes"
        }
      ],
      "name": "MetaTransactionExecuted",
      "type": "event"
    },
    {
      "anonymous": false,
      "inputs": [
        {
          "indexed": true,
          "internalType": "address",
          "name": "from",
          "type": "address"
        },
        {
          "indexed": true,
          "internalType": "address",
          "name": "to",
          "type": "address"
        },
        {
          "indexed": true,
          "internalType": "uint256",
          "name": "tokenId",
          "type": "uint256"
        }
      ],
      "name": "Transfer",
      "type": "event"
    },
    {
      "inputs": [],
      "name": "ERC712_VERSION",
      "outputs": [
        {
          "internalType": "string",
          "name": "",
          "type": "string"
        }
      ],
      "stateMutability": "view",
      "type": "function"
    },
    {
      "inputs": [
        {
          "internalType": "address",
          "name": "to",
          "type": "address"
        },
        {
          "internalType": "uint256",
          "name": "tokenId",
          "type": "uint256"
        }
      ],
      "name": "approve",
      "outputs": [],
      "stateMutability": "nonpayable",
      "type": "function"
    },
    {
      "inputs": [
        {
          "internalType": "address",
          "name": "owner",
          "type": "address"
        }
      ],
      "name": "balanceOf",
      "outputs": [
        {
          "internalType": "uint256",
          "name": "",
          "type": "uint256"
        }
      ],
      "stateMutability": "view",
      "type": "function"
    },
    {
      "inputs": [],
      "name": "baseURI",
      "outputs": [
        {
          "internalType": "string",
          "name": "",
          "type": "string"
        }
      ],
      "stateMutability": "view",
      "type": "function"
    },
    {
      "inputs": [
        {
          "internalType": "address",
          "name": "userAddress",
          "type": "address"
        },
        {
          "internalType": "bytes",
          "name": "functionSignature",
          "type": "bytes"
        },
        {
          "internalType": "bytes32",
          "name": "sigR",
          "type": "bytes32"
        },
        {
          "internalType": "bytes32",
          "name": "sigS",
          "type": "bytes32"
        },
        {
          "internalType": "uint8",
          "name": "sigV",
          "type": "uint8"
        }
      ],
      "name": "executeMetaTransaction",
      "outputs": [
        {
          "internalType": "bytes",
          "name": "",
          "type": "bytes"
        }
      ],
      "stateMutability": "payable",
      "type": "function"
    },
    {
      "inputs": [
        {
          "internalType": "uint256",
          "name": "tokenId",
          "type": "uint256"
        }
      ],
      "name": "getApproved",
      "outputs": [
        {
          "internalType": "address",
          "name": "",
          "type": "address"
        }
      ],
      "stateMutability": "view",
      "type": "function"
    },
    {
      "inputs": [],
      "name": "getChainId",
      "outputs": [
        {
          "internalType": "uint256",
          "name": "",
          "type": "uint256"
        }
      ],
      "stateMutability": "pure",
      "type": "function"
    },
    {
      "inputs": [],
      "name": "getDomainSeperator",
      "outputs": [
        {
          "internalType": "bytes32",
          "name": "",
          "type": "bytes32"
        }
      ],
      "stateMutability": "view",
      "type": "function"
    },
    {
      "inputs": [
        {
          "internalType": "address",
          "name": "user",
          "type": "address"
        }
      ],
      "name": "getNonce",
      "outputs": [
        {
          "internalType": "uint256",
          "name": "nonce",
          "type": "uint256"
        }
      ],
      "stateMutability": "view",
      "type": "function"
    },
    {
      "inputs": [
        {
          "internalType": "address",
          "name": "owner",
          "type": "address"
        },
        {
          "internalType": "address",
          "name": "operator",
          "type": "address"
        }
      ],
      "name": "isApprovedForAll",
      "outputs": [
        {
          "internalType": "bool",
          "name": "",
          "type": "bool"
        }
      ],
      "stateMutability": "view",
      "type": "function"
    },
    {
      "inputs": [
        {
          "internalType": "uint256",
          "name": "tokenId",
          "type": "uint256"
        }
      ],
      "name": "mint",
      "outputs": [],
      "stateMutability": "nonpayable",
      "type": "function"
    },
    {
      "inputs": [],
      "name": "name",
      "outputs": [
        {
          "internalType": "string",
          "name": "",
          "type": "string"
        }
      ],
      "stateMutability": "view",
      "type": "function"
    },
    {
      "inputs": [
        {
          "internalType": "uint256",
          "name": "tokenId",
          "type": "uint256"
        }
      ],
      "name": "ownerOf",
      "outputs": [
        {
          "internalType": "address",
          "name": "",
          "type": "address"
        }
      ],
      "stateMutability": "view",
      "type": "function"
    },
    {
      "inputs": [
        {
          "internalType": "address",
          "name": "from",
          "type": "address"
        },
        {
          "internalType": "address",
          "name": "to",
          "type": "address"
        },
        {
          "internalType": "uint256",
          "name": "tokenId",
          "type": "uint256"
        }
      ],
      "name": "safeTransferFrom",
      "outputs": [],
      "stateMutability": "nonpayable",
      "type": "function"
    },
    {
      "inputs": [
        {
          "internalType": "address",
          "name": "from",
          "type": "address"
        },
        {
          "internalType": "address",
          "name": "to",
          "type": "address"
        },
        {
          "internalType": "uint256",
          "name": "tokenId",
          "type": "uint256"
        },
        {
          "internalType": "bytes",
          "name": "_data",
          "type": "bytes"
        }
      ],
      "name": "safeTransferFrom",
      "outputs": [],
      "stateMutability": "nonpayable",
      "type": "function"
    },
    {
      "inputs": [
        {
          "internalType": "address",
          "name": "operator",
          "type": "address"
        },
        {
          "internalType": "bool",
          "name": "approved",
          "type": "bool"
        }
      ],
      "name": "setApprovalForAll",
      "outputs": [],
      "stateMutability": "nonpayable",
      "type": "function"
    },
    {
      "inputs": [
        {
          "internalType": "bytes4",
          "name": "interfaceId",
          "type": "bytes4"
        }
      ],
      "name": "supportsInterface",
      "outputs": [
        {
          "internalType": "bool",
          "name": "",
          "type": "bool"
        }
      ],
      "stateMutability": "view",
      "type": "function"
    },
    {
      "inputs": [],
      "name": "symbol",
      "outputs": [
        {
          "internalType": "string",
          "name": "",
          "type": "string"
        }
      ],
      "stateMutability": "view",
      "type": "function"
    },
    {
      "inputs": [
        {
          "internalType": "uint256",
          "name": "index",
          "type": "uint256"
        }
      ],
      "name": "tokenByIndex",
      "outputs": [
        {
          "internalType": "uint256",
          "name": "",
          "type": "uint256"
        }
      ],
      "stateMutability": "view",
      "type": "function"
    },
    {
      "inputs": [
        {
          "internalType": "address",
          "name": "owner",
          "type": "address"
        },
        {
          "internalType": "uint256",
          "name": "index",
          "type": "uint256"
        }
      ],
      "name": "tokenOfOwnerByIndex",
      "outputs": [
        {
          "internalType": "uint256",
          "name": "",
          "type": "uint256"
        }
      ],
      "stateMutability": "view",
      "type": "function"
    },
    {
      "inputs": [
        {
          "internalType": "uint256",
          "name": "tokenId",
          "type": "uint256"
        }
      ],
      "name": "tokenURI",
      "outputs": [
        {
          "internalType": "string",
          "name": "",
          "type": "string"
        }
      ],
      "stateMutability": "view",
      "type": "function"
    },
    {
      "inputs": [],
      "name": "totalSupply",
      "outputs": [
        {
          "internalType": "uint256",
          "name": "",
          "type": "uint256"
        }
      ],
      "stateMutability": "view",
      "type": "function"
    },
    {
      "inputs": [
        {
          "internalType": "address",
          "name": "from",
          "type": "address"
        },
        {
          "internalType": "address",
          "name": "to",
          "type": "address"
        },
        {
          "internalType": "uint256",
          "name": "tokenId",
          "type": "uint256"
        }
      ],
      "name": "transferFrom",
      "outputs": [],
      "stateMutability": "nonpayable",
      "type": "function"
    }
  ],
  "bytecode": "0x6080604052600a805460ff191690553480156200001b57600080fd5b506040516200296738038062002967833981810160405260408110156200004157600080fd5b81019080805160405193929190846401000000008211156200006257600080fd5b9083019060208201858111156200007857600080fd5b82516401000000008111828201881017156200009357600080fd5b82525081516020918201929091019080838360005b83811015620000c2578181015183820152602001620000a8565b50505050905090810190601f168015620000f05780820380516001836020036101000a031916815260200191505b50604052602001805160405193929190846401000000008211156200011457600080fd5b9083019060208201858111156200012a57600080fd5b82516401000000008111828201881017156200014557600080fd5b82525081516020918201929091019080838360005b83811015620001745781810151838201526020016200015a565b50505050905090810190601f168015620001a25780820380516001836020036101000a031916815260200191505b5060405250839150829050620001c86301ffc9a760e01b6001600160e01b036200026416565b8151620001dd90600690602085019062000424565b508051620001f390600790602084019062000424565b506200020f6380ac58cd60e01b6001600160e01b036200026416565b6200022a635b5e139f60e01b6001600160e01b036200026416565b6200024563780e9d6360e01b6001600160e01b036200026416565b506200025c9050826001600160e01b03620002e916565b5050620004c6565b6001600160e01b03198082161415620002c4576040805162461bcd60e51b815260206004820152601c60248201527f4552433136353a20696e76616c696420696e7465726661636520696400000000604482015290519081900360640190fd5b6001600160e01b0319166000908152602081905260409020805460ff19166001179055565b600a5460ff161562000333576040805162461bcd60e51b815260206004820152600e60248201526d185b1c9958591e481a5b9a5d195960921b604482015290519081900360640190fd5b62000347816001600160e01b036200035716565b50600a805460ff19166001179055565b6040518060800160405280604f815260200162002918604f913980516020918201208251838301206040805180820190915260018152603160f81b930192909252907fc89efdaa54c0f20c7adf612882df0950f5a951637e0307cdcb4c672f298b8bc630620003ce6001600160e01b036200041f16565b604080516020808201979097528082019590955260608501939093526001600160a01b03909116608084015260a0808401919091528151808403909101815260c090920190528051910120600b5550565b465b90565b828054600181600116156101000203166002900490600052602060002090601f016020900481019282601f106200046757805160ff191683800117855562000497565b8280016001018555821562000497579182015b82811115620004975782518255916020019190600101906200047a565b50620004a5929150620004a9565b5090565b6200042191905b80821115620004a55760008155600101620004b0565b61244280620004d66000396000f3fe6080604052600436106101405760003560e01c80633408e470116100b657806395d89b411161006f57806395d89b4114610550578063a0712d6814610565578063a22cb4651461058f578063b88d4fde146105ca578063c87b56dd1461069d578063e985e9c5146106c757610140565b80633408e4701461045c57806342842e0e146104715780634f6ccce7146104b45780636352211e146104de5780636c0360eb1461050857806370a082311461051d57610140565b80630f7e5970116101085780630f7e59701461035c57806318160ddd1461037157806320379ee51461039857806323b872dd146103ad5780632d0335ab146103f05780632f745c591461042357610140565b806301ffc9a71461014557806306fdde031461018d578063081812fc14610217578063095ea7b31461025d5780630c53c51c14610298575b600080fd5b34801561015157600080fd5b506101796004803603602081101561016857600080fd5b50356001600160e01b031916610702565b604080519115158252519081900360200190f35b34801561019957600080fd5b506101a2610725565b6040805160208082528351818301528351919283929083019185019080838360005b838110156101dc5781810151838201526020016101c4565b50505050905090810190601f1680156102095780820380516001836020036101000a031916815260200191505b509250505060405180910390f35b34801561022357600080fd5b506102416004803603602081101561023a57600080fd5b50356107bb565b604080516001600160a01b039092168252519081900360200190f35b34801561026957600080fd5b506102966004803603604081101561028057600080fd5b506001600160a01b03813516906020013561081d565b005b6101a2600480360360a08110156102ae57600080fd5b6001600160a01b0382351691908101906040810160208201356401000000008111156102d957600080fd5b8201836020820111156102eb57600080fd5b8035906020019184600183028401116401000000008311171561030d57600080fd5b91908080601f016020809104026020016040519081016040528093929190818152602001838380828437600092019190915250929550508235935050506020810135906040013560ff166108f8565b34801561036857600080fd5b506101a2610bfb565b34801561037d57600080fd5b50610386610c18565b60408051918252519081900360200190f35b3480156103a457600080fd5b50610386610c29565b3480156103b957600080fd5b50610296600480360360608110156103d057600080fd5b506001600160a01b03813581169160208101359091169060400135610c2f565b3480156103fc57600080fd5b506103866004803603602081101561041357600080fd5b50356001600160a01b0316610c86565b34801561042f57600080fd5b506103866004803603604081101561044657600080fd5b506001600160a01b038135169060200135610ca1565b34801561046857600080fd5b50610386610cd2565b34801561047d57600080fd5b506102966004803603606081101561049457600080fd5b506001600160a01b03813581169160208101359091169060400135610cd6565b3480156104c057600080fd5b50610386600480360360208110156104d757600080fd5b5035610cf1565b3480156104ea57600080fd5b506102416004803603602081101561050157600080fd5b5035610d0d565b34801561051457600080fd5b506101a2610d3b565b34801561052957600080fd5b506103866004803603602081101561054057600080fd5b50356001600160a01b0316610d9c565b34801561055c57600080fd5b506101a2610e04565b34801561057157600080fd5b506102966004803603602081101561058857600080fd5b5035610e65565b34801561059b57600080fd5b50610296600480360360408110156105b257600080fd5b506001600160a01b0381351690602001351515610e79565b3480156105d657600080fd5b50610296600480360360808110156105ed57600080fd5b6001600160a01b0382358116926020810135909116916040820135919081019060808101606082013564010000000081111561062857600080fd5b82018360208201111561063a57600080fd5b8035906020019184600183028401116401000000008311171561065c57600080fd5b91908080601f016020809104026020016040519081016040528093929190818152602001838380828437600092019190915250929550610f7e945050505050565b3480156106a957600080fd5b506101a2600480360360208110156106c057600080fd5b5035610fdc565b3480156106d357600080fd5b50610179600480360360408110156106ea57600080fd5b506001600160a01b0381358116916020013516611283565b6001600160e01b0319811660009081526020819052604090205460ff165b919050565b60068054604080516020601f60026000196101006001881615020190951694909404938401819004810282018101909252828152606093909290918301828280156107b15780601f10610786576101008083540402835291602001916107b1565b820191906000526020600020905b81548152906001019060200180831161079457829003601f168201915b5050505050905090565b60006107c6826112b1565b6108015760405162461bcd60e51b815260040180806020018281038252602c815260200180612316602c913960400191505060405180910390fd5b506000908152600460205260409020546001600160a01b031690565b600061082882610d0d565b9050806001600160a01b0316836001600160a01b0316141561087b5760405162461bcd60e51b81526004018080602001828103825260218152602001806123bb6021913960400191505060405180910390fd5b806001600160a01b031661088d6112c4565b6001600160a01b031614806108ae57506108ae816108a96112c4565b611283565b6108e95760405162461bcd60e51b81526004018080602001828103825260388152602001806122696038913960400191505060405180910390fd5b6108f383836112ce565b505050565b6060610902612132565b50604080516060810182526001600160a01b0388166000818152600c602090815290849020548352820152908101869052610940878287878761133c565b61097b5760405162461bcd60e51b815260040180806020018281038252602181526020018061236b6021913960400191505060405180910390fd5b6001600160a01b0387166000908152600c60205260409020546109a590600163ffffffff61141916565b6001600160a01b0388166000818152600c602090815260408083209490945583519283523383820181905260609484018581528b51958501959095528a517f5845892132946850460bff5a0083f71031bc5bf9aadcd40f1de79423eac9b10b958d9592948d94919260808501928601918190849084905b83811015610a34578181015183820152602001610a1c565b50505050905090810190601f168015610a615780820380516001836020036101000a031916815260200191505b5094505050505060405180910390a160006060306001600160a01b0316888a6040516020018083805190602001908083835b60208310610ab25780518252601f199092019160209182019101610a93565b6001836020036101000a038019825116818451168082178552505050505050905001826001600160a01b03166001600160a01b031660601b8152601401925050506040516020818303038152906040526040518082805190602001908083835b60208310610b315780518252601f199092019160209182019101610b12565b6001836020036101000a0380198251168184511680821785525050505050509050019150506000604051808303816000865af19150503d8060008114610b93576040519150601f19603f3d011682016040523d82523d6000602084013e610b98565b606091505b509150915081610bef576040805162461bcd60e51b815260206004820152601c60248201527f46756e6374696f6e2063616c6c206e6f74207375636365737366756c00000000604482015290519081900360640190fd5b98975050505050505050565b604051806040016040528060018152602001603160f81b81525081565b6000610c246002611473565b905090565b600b5490565b610c40610c3a6112c4565b8261147e565b610c7b5760405162461bcd60e51b81526004018080602001828103825260318152602001806123dc6031913960400191505060405180910390fd5b6108f3838383611522565b6001600160a01b03166000908152600c602052604090205490565b6001600160a01b0382166000908152600160205260408120610cc9908363ffffffff61168016565b90505b92915050565b4690565b6108f383838360405180602001604052806000815250610f7e565b600080610d0560028463ffffffff61168c16565b509392505050565b6000610ccc826040518060600160405280602981526020016122cb602991396002919063ffffffff6116a816565b60098054604080516020601f60026000196101006001881615020190951694909404938401819004810282018101909252828152606093909290918301828280156107b15780601f10610786576101008083540402835291602001916107b1565b60006001600160a01b038216610de35760405162461bcd60e51b815260040180806020018281038252602a8152602001806122a1602a913960400191505060405180910390fd5b6001600160a01b0382166000908152600160205260409020610ccc90611473565b60078054604080516020601f60026000196101006001881615020190951694909404938401819004810282018101909252828152606093909290918301828280156107b15780601f10610786576101008083540402835291602001916107b1565b610e76610e706112c4565b826116bf565b50565b610e816112c4565b6001600160a01b0316826001600160a01b03161415610ee7576040805162461bcd60e51b815260206004820152601960248201527f4552433732313a20617070726f766520746f2063616c6c657200000000000000604482015290519081900360640190fd5b8060056000610ef46112c4565b6001600160a01b03908116825260208083019390935260409182016000908120918716808252919093529120805460ff191692151592909217909155610f386112c4565b60408051841515815290516001600160a01b0392909216917f17307eab39ab6107e8899845ad3d59bd9653f200f220920489ca2b5937696c319181900360200190a35050565b610f8f610f896112c4565b8361147e565b610fca5760405162461bcd60e51b81526004018080602001828103825260318152602001806123dc6031913960400191505060405180910390fd5b610fd6848484846117f9565b50505050565b6060610fe7826112b1565b6110225760405162461bcd60e51b815260040180806020018281038252602f81526020018061238c602f913960400191505060405180910390fd5b60008281526008602090815260409182902080548351601f60026000196101006001861615020190931692909204918201849004840281018401909452808452606093928301828280156110b75780601f1061108c576101008083540402835291602001916110b7565b820191906000526020600020905b81548152906001019060200180831161109a57829003601f168201915b5050600954939450505050600260001961010060018416150201909116046110e0579050610720565b8051156111b15760098160405160200180838054600181600116156101000203166002900480156111485780601f10611126576101008083540402835291820191611148565b820191906000526020600020905b815481529060010190602001808311611134575b5050825160208401908083835b602083106111745780518252601f199092019160209182019101611155565b6001836020036101000a03801982511681845116808217855250505050505090500192505050604051602081830303815290604052915050610720565b60096111bc8461184b565b604051602001808380546001816001161561010002031660029004801561121a5780601f106111f857610100808354040283529182019161121a565b820191906000526020600020905b815481529060010190602001808311611206575b5050825160208401908083835b602083106112465780518252601f199092019160209182019101611227565b6001836020036101000a03801982511681845116808217855250505050505090500192505050604051602081830303815290604052915050919050565b6001600160a01b03918216600090815260056020908152604080832093909416825291909152205460ff1690565b6000610ccc60028363ffffffff61192616565b6000610c24611932565b600081815260046020526040902080546001600160a01b0319166001600160a01b038416908117909155819061130382610d0d565b6001600160a01b03167f8c5be1e5ebec7d5bd14f71427d1e84f3dd0314c0f7b2291e5b200ac8c7c3b92560405160405180910390a45050565b60006001600160a01b0386166113835760405162461bcd60e51b81526004018080602001828103825260258152602001806122446025913960400191505060405180910390fd5b600161139661139187611990565b611a1c565b83868660405160008152602001604052604051808581526020018460ff1660ff1681526020018381526020018281526020019450505050506020604051602081039080840390855afa1580156113f0573d6000803e3d6000fd5b505050602060405103516001600160a01b0316866001600160a01b031614905095945050505050565b600082820183811015610cc9576040805162461bcd60e51b815260206004820152601b60248201527f536166654d6174683a206164646974696f6e206f766572666c6f770000000000604482015290519081900360640190fd5b6000610ccc82611a68565b6000611489826112b1565b6114c45760405162461bcd60e51b815260040180806020018281038252602c815260200180612218602c913960400191505060405180910390fd5b60006114cf83610d0d565b9050806001600160a01b0316846001600160a01b0316148061150a5750836001600160a01b03166114ff846107bb565b6001600160a01b0316145b8061151a575061151a8185611283565b949350505050565b826001600160a01b031661153582610d0d565b6001600160a01b03161461157a5760405162461bcd60e51b81526004018080602001828103825260298152602001806123426029913960400191505060405180910390fd5b6001600160a01b0382166115bf5760405162461bcd60e51b81526004018080602001828103825260248152602001806121f46024913960400191505060405180910390fd5b6115ca8383836108f3565b6115d56000826112ce565b6001600160a01b03831660009081526001602052604090206115fd908263ffffffff611a6c16565b506001600160a01b0382166000908152600160205260409020611626908263ffffffff611a7816565b506116396002828463ffffffff611a8416565b5080826001600160a01b0316846001600160a01b03167fddf252ad1be2c89b69c2b068fc378daa952ba7f163c4a11628f55a4df523b3ef60405160405180910390a4505050565b6000610cc98383611a9a565b600080808061169b8686611afe565b9097909650945050505050565b60006116b5848484611b79565b90505b9392505050565b6001600160a01b03821661171a576040805162461bcd60e51b815260206004820181905260248201527f4552433732313a206d696e7420746f20746865207a65726f2061646472657373604482015290519081900360640190fd5b611723816112b1565b15611775576040805162461bcd60e51b815260206004820152601c60248201527f4552433732313a20746f6b656e20616c7265616479206d696e74656400000000604482015290519081900360640190fd5b611781600083836108f3565b6001600160a01b03821660009081526001602052604090206117a9908263ffffffff611a7816565b506117bc6002828463ffffffff611a8416565b5060405181906001600160a01b038416906000907fddf252ad1be2c89b69c2b068fc378daa952ba7f163c4a11628f55a4df523b3ef908290a45050565b611804848484611522565b61181084848484611c43565b610fd65760405162461bcd60e51b815260040180806020018281038252603281526020018061217f6032913960400191505060405180910390fd5b60608161187057506040805180820190915260018152600360fc1b6020820152610720565b8160005b811561188857600101600a82049150611874565b60608167ffffffffffffffff811180156118a157600080fd5b506040519080825280601f01601f1916602001820160405280156118cc576020820181803683370190505b50859350905060001982015b831561191d57600a840660300160f81b828280600190039350815181106118fb57fe5b60200101906001600160f81b031916908160001a905350600a840493506118d8565b50949350505050565b6000610cc98383611dc3565b60003330141561198a5760606000368080601f0160208091040260200160405190810160405280939291908181526020018383808284376000920191909152505050503601516001600160a01b0316915061198d9050565b50335b90565b60006040518060800160405280604381526020016121b160439139805190602001208260000151836020015184604001518051906020012060405160200180858152602001848152602001836001600160a01b03166001600160a01b03168152602001828152602001945050505050604051602081830303815290604052805190602001209050919050565b6000611a26610c29565b82604051602001808061190160f01b81525060020183815260200182815260200192505050604051602081830303815290604052805190602001209050919050565b5490565b6000610cc98383611ddb565b6000610cc98383611ea1565b60006116b584846001600160a01b038516611eeb565b81546000908210611adc5760405162461bcd60e51b815260040180806020018281038252602281526020018061215d6022913960400191505060405180910390fd5b826000018281548110611aeb57fe5b9060005260206000200154905092915050565b815460009081908310611b425760405162461bcd60e51b81526004018080602001828103825260228152602001806122f46022913960400191505060405180910390fd5b6000846000018481548110611b5357fe5b906000526020600020906002020190508060000154816001015492509250509250929050565b60008281526001840160205260408120548281611c145760405162461bcd60e51b81526004018080602001828103825283818151815260200191508051906020019080838360005b83811015611bd9578181015183820152602001611bc1565b50505050905090810190601f168015611c065780820380516001836020036101000a031916815260200191505b509250505060405180910390fd5b50846000016001820381548110611c2757fe5b9060005260206000209060020201600101549150509392505050565b6000611c57846001600160a01b0316611f82565b611c635750600161151a565b6060611d89630a85bd0160e11b611c786112c4565b88878760405160240180856001600160a01b03166001600160a01b03168152602001846001600160a01b03166001600160a01b0316815260200183815260200180602001828103825283818151815260200191508051906020019080838360005b83811015611cf1578181015183820152602001611cd9565b50505050905090810190601f168015611d1e5780820380516001836020036101000a031916815260200191505b5095505050505050604051602081830303815290604052906001600160e01b0319166020820180516001600160e01b03838183161783525050505060405180606001604052806032815260200161217f603291396001600160a01b038816919063ffffffff611fbb16565b90506000818060200190516020811015611da257600080fd5b50516001600160e01b031916630a85bd0160e11b1492505050949350505050565b60009081526001919091016020526040902054151590565b60008181526001830160205260408120548015611e975783546000198083019190810190600090879083908110611e0e57fe5b9060005260206000200154905080876000018481548110611e2b57fe5b600091825260208083209091019290925582815260018981019092526040902090840190558654879080611e5b57fe5b60019003818190600052602060002001600090559055866001016000878152602001908152602001600020600090556001945050505050610ccc565b6000915050610ccc565b6000611ead8383611dc3565b611ee357508154600181810184556000848152602080822090930184905584548482528286019093526040902091909155610ccc565b506000610ccc565b600082815260018401602052604081205480611f505750506040805180820182528381526020808201848152865460018181018955600089815284812095516002909302909501918255915190820155865486845281880190925292909120556116b8565b82856000016001830381548110611f6357fe5b90600052602060002090600202016001018190555060009150506116b8565b6000813f7fc5d2460186f7233c927e7db2dcc703c0e500b653ca82273b7bfad8045d85a47081811480159061151a575050151592915050565b60606116b584846000856060611fd085611f82565b612021576040805162461bcd60e51b815260206004820152601d60248201527f416464726573733a2063616c6c20746f206e6f6e2d636f6e7472616374000000604482015290519081900360640190fd5b60006060866001600160a01b031685876040518082805190602001908083835b602083106120605780518252601f199092019160209182019101612041565b6001836020036101000a03801982511681845116808217855250505050505090500191505060006040518083038185875af1925050503d80600081146120c2576040519150601f19603f3d011682016040523d82523d6000602084013e6120c7565b606091505b509150915081156120db57915061151a9050565b8051156120eb5780518082602001fd5b60405162461bcd60e51b8152602060048201818152865160248401528651879391928392604401919085019080838360008315611bd9578181015183820152602001611bc1565b60405180606001604052806000815260200160006001600160a01b0316815260200160608152509056fe456e756d657261626c655365743a20696e646578206f7574206f6620626f756e64734552433732313a207472616e7366657220746f206e6f6e20455243373231526563656976657220696d706c656d656e7465724d6574615472616e73616374696f6e2875696e74323536206e6f6e63652c616464726573732066726f6d2c62797465732066756e6374696f6e5369676e6174757265294552433732313a207472616e7366657220746f20746865207a65726f20616464726573734552433732313a206f70657261746f7220717565727920666f72206e6f6e6578697374656e7420746f6b656e4e61746976654d6574615472616e73616374696f6e3a20494e56414c49445f5349474e45524552433732313a20617070726f76652063616c6c6572206973206e6f74206f776e6572206e6f7220617070726f76656420666f7220616c6c4552433732313a2062616c616e636520717565727920666f7220746865207a65726f20616464726573734552433732313a206f776e657220717565727920666f72206e6f6e6578697374656e7420746f6b656e456e756d657261626c654d61703a20696e646578206f7574206f6620626f756e64734552433732313a20617070726f76656420717565727920666f72206e6f6e6578697374656e7420746f6b656e4552433732313a207472616e73666572206f6620746f6b656e2074686174206973206e6f74206f776e5369676e657220616e64207369676e617475726520646f206e6f74206d617463684552433732314d657461646174613a2055524920717565727920666f72206e6f6e6578697374656e7420746f6b656e4552433732313a20617070726f76616c20746f2063757272656e74206f776e65724552433732313a207472616e736665722063616c6c6572206973206e6f74206f776e6572206e6f7220617070726f766564a2646970667358221220cafe4e3ad9f809199b7d7e08c2cf2b893af0831361a7339be12242e397e83bff64736f6c63430006060033454950373132446f6d61696e28737472696e67206e616d652c737472696e672076657273696f6e2c6164647265737320766572696679696e67436f6e74726163742c627974657333322073616c7429",
  "linkReferences": {},
  "deployedLinkReferences": {}
}