{
  "_format": "hh-sol-artifact-1",
  "contractName": "ChildMintableERC721",
  "sourceName": "contracts/child/ChildToken/ChildMintableERC721.sol",
  "abi": [
    {
      "inputs": [
        {
          "internalType": "string",
          "name": "name_",
          "type": "string"
        },
        {
          "internalType": "string",
          "name": "symbol_",
          "type": "string"
        },
        {
          "internalType": "address",
          "name": "childChainManager",
          "type": "address"
        }
      ],
      "stateMutability": "nonpayable",
      "type": "constructor"
    },
    {
      "anonymous": false,
      "inputs": [
        {
          "indexed": true,
          "internalType": "address",
          "name": "owner",
          "type": "address"
        },
        {
          "indexed": true,
          "internalType": "address",
          "name": "approved",
          "type": "address"
        },
        {
          "indexed": true,
          "internalType": "uint256",
          "name": "tokenId",
          "type": "uint256"
        }
      ],
      "name": "Approval",
      "type": "event"
    },
    {
      "anonymous": false,
      "inputs": [
        {
          "indexed": true,
          "internalType": "address",
          "name": "owner",
          "type": "address"
        },
        {
          "indexed": true,
          "internalType": "address",
          "name": "operator",
          "type": "address"
        },
        {
          "indexed": false,
          "internalType": "bool",
          "name": "approved",
          "type": "bool"
        }
      ],
      "name": "ApprovalForAll",
      "type": "event"
    },
    {
      "anonymous": false,
      "inputs": [
        {
          "indexed": false,
          "internalType": "address",
          "name": "userAddress",
          "type": "address"
        },
        {
          "indexed": false,
          "internalType": "address payable",
          "name": "relayerAddress",
          "type": "address"
        },
        {
          "indexed": false,
          "internalType": "bytes",
          "name": "functionSignature",
          "type": "bytes"
        }
      ],
      "name": "MetaTransactionExecuted",
      "type": "event"
    },
    {
      "anonymous": false,
      "inputs": [
        {
          "indexed": true,
          "internalType": "bytes32",
          "name": "role",
          "type": "bytes32"
        },
        {
          "indexed": true,
          "internalType": "bytes32",
          "name": "previousAdminRole",
          "type": "bytes32"
        },
        {
          "indexed": true,
          "internalType": "bytes32",
          "name": "newAdminRole",
          "type": "bytes32"
        }
      ],
      "name": "RoleAdminChanged",
      "type": "event"
    },
    {
      "anonymous": false,
      "inputs": [
        {
          "indexed": true,
          "internalType": "bytes32",
          "name": "role",
          "type": "bytes32"
        },
        {
          "indexed": true,
          "internalType": "address",
          "name": "account",
          "type": "address"
        },
        {
          "indexed": true,
          "internalType": "address",
          "name": "sender",
          "type": "address"
        }
      ],
      "name": "RoleGranted",
      "type": "event"
    },
    {
      "anonymous": false,
      "inputs": [
        {
          "indexed": true,
          "internalType": "bytes32",
          "name": "role",
          "type": "bytes32"
        },
        {
          "indexed": true,
          "internalType": "address",
          "name": "account",
          "type": "address"
        },
        {
          "indexed": true,
          "internalType": "address",
          "name": "sender",
          "type": "address"
        }
      ],
      "name": "RoleRevoked",
      "type": "event"
    },
    {
      "anonymous": false,
      "inputs": [
        {
          "indexed": true,
          "internalType": "address",
          "name": "from",
          "type": "address"
        },
        {
          "indexed": true,
          "internalType": "address",
          "name": "to",
          "type": "address"
        },
        {
          "indexed": true,
          "internalType": "uint256",
          "name": "tokenId",
          "type": "uint256"
        }
      ],
      "name": "Transfer",
      "type": "event"
    },
    {
      "inputs": [],
      "name": "DEFAULT_ADMIN_ROLE",
      "outputs": [
        {
          "internalType": "bytes32",
          "name": "",
          "type": "bytes32"
        }
      ],
      "stateMutability": "view",
      "type": "function"
    },
    {
      "inputs": [],
      "name": "DEPOSITOR_ROLE",
      "outputs": [
        {
          "internalType": "bytes32",
          "name": "",
          "type": "bytes32"
        }
      ],
      "stateMutability": "view",
      "type": "function"
    },
    {
      "inputs": [],
      "name": "ERC712_VERSION",
      "outputs": [
        {
          "internalType": "string",
          "name": "",
          "type": "string"
        }
      ],
      "stateMutability": "view",
      "type": "function"
    },
    {
      "inputs": [
        {
          "internalType": "address",
          "name": "to",
          "type": "address"
        },
        {
          "internalType": "uint256",
          "name": "tokenId",
          "type": "uint256"
        }
      ],
      "name": "approve",
      "outputs": [],
      "stateMutability": "nonpayable",
      "type": "function"
    },
    {
      "inputs": [
        {
          "internalType": "address",
          "name": "owner",
          "type": "address"
        }
      ],
      "name": "balanceOf",
      "outputs": [
        {
          "internalType": "uint256",
          "name": "",
          "type": "uint256"
        }
      ],
      "stateMutability": "view",
      "type": "function"
    },
    {
      "inputs": [],
      "name": "baseURI",
      "outputs": [
        {
          "internalType": "string",
          "name": "",
          "type": "string"
        }
      ],
      "stateMutability": "view",
      "type": "function"
    },
    {
      "inputs": [
        {
          "internalType": "address",
          "name": "user",
          "type": "address"
        },
        {
          "internalType": "bytes",
          "name": "depositData",
          "type": "bytes"
        }
      ],
      "name": "deposit",
      "outputs": [],
      "stateMutability": "nonpayable",
      "type": "function"
    },
    {
      "inputs": [
        {
          "internalType": "address",
          "name": "userAddress",
          "type": "address"
        },
        {
          "internalType": "bytes",
          "name": "functionSignature",
          "type": "bytes"
        },
        {
          "internalType": "bytes32",
          "name": "sigR",
          "type": "bytes32"
        },
        {
          "internalType": "bytes32",
          "name": "sigS",
          "type": "bytes32"
        },
        {
          "internalType": "uint8",
          "name": "sigV",
          "type": "uint8"
        }
      ],
      "name": "executeMetaTransaction",
      "outputs": [
        {
          "internalType": "bytes",
          "name": "",
          "type": "bytes"
        }
      ],
      "stateMutability": "payable",
      "type": "function"
    },
    {
      "inputs": [
        {
          "internalType": "uint256",
          "name": "tokenId",
          "type": "uint256"
        }
      ],
      "name": "getApproved",
      "outputs": [
        {
          "internalType": "address",
          "name": "",
          "type": "address"
        }
      ],
      "stateMutability": "view",
      "type": "function"
    },
    {
      "inputs": [],
      "name": "getChainId",
      "outputs": [
        {
          "internalType": "uint256",
          "name": "",
          "type": "uint256"
        }
      ],
      "stateMutability": "pure",
      "type": "function"
    },
    {
      "inputs": [],
      "name": "getDomainSeperator",
      "outputs": [
        {
          "internalType": "bytes32",
          "name": "",
          "type": "bytes32"
        }
      ],
      "stateMutability": "view",
      "type": "function"
    },
    {
      "inputs": [
        {
          "internalType": "address",
          "name": "user",
          "type": "address"
        }
      ],
      "name": "getNonce",
      "outputs": [
        {
          "internalType": "uint256",
          "name": "nonce",
          "type": "uint256"
        }
      ],
      "stateMutability": "view",
      "type": "function"
    },
    {
      "inputs": [
        {
          "internalType": "bytes32",
          "name": "role",
          "type": "bytes32"
        }
      ],
      "name": "getRoleAdmin",
      "outputs": [
        {
          "internalType": "bytes32",
          "name": "",
          "type": "bytes32"
        }
      ],
      "stateMutability": "view",
      "type": "function"
    },
    {
      "inputs": [
        {
          "internalType": "bytes32",
          "name": "role",
          "type": "bytes32"
        },
        {
          "internalType": "uint256",
          "name": "index",
          "type": "uint256"
        }
      ],
      "name": "getRoleMember",
      "outputs": [
        {
          "internalType": "address",
          "name": "",
          "type": "address"
        }
      ],
      "stateMutability": "view",
      "type": "function"
    },
    {
      "inputs": [
        {
          "internalType": "bytes32",
          "name": "role",
          "type": "bytes32"
        }
      ],
      "name": "getRoleMemberCount",
      "outputs": [
        {
          "internalType": "uint256",
          "name": "",
          "type": "uint256"
        }
      ],
      "stateMutability": "view",
      "type": "function"
    },
    {
      "inputs": [
        {
          "internalType": "bytes32",
          "name": "role",
          "type": "bytes32"
        },
        {
          "internalType": "address",
          "name": "account",
          "type": "address"
        }
      ],
      "name": "grantRole",
      "outputs": [],
      "stateMutability": "nonpayable",
      "type": "function"
    },
    {
      "inputs": [
        {
          "internalType": "bytes32",
          "name": "role",
          "type": "bytes32"
        },
        {
          "internalType": "address",
          "name": "account",
          "type": "address"
        }
      ],
      "name": "hasRole",
      "outputs": [
        {
          "internalType": "bool",
          "name": "",
          "type": "bool"
        }
      ],
      "stateMutability": "view",
      "type": "function"
    },
    {
      "inputs": [
        {
          "internalType": "address",
          "name": "owner",
          "type": "address"
        },
        {
          "internalType": "address",
          "name": "operator",
          "type": "address"
        }
      ],
      "name": "isApprovedForAll",
      "outputs": [
        {
          "internalType": "bool",
          "name": "",
          "type": "bool"
        }
      ],
      "stateMutability": "view",
      "type": "function"
    },
    {
      "inputs": [
        {
          "internalType": "address",
          "name": "user",
          "type": "address"
        },
        {
          "internalType": "uint256",
          "name": "tokenId",
          "type": "uint256"
        }
      ],
      "name": "mint",
      "outputs": [],
      "stateMutability": "nonpayable",
      "type": "function"
    },
    {
      "inputs": [],
      "name": "name",
      "outputs": [
        {
          "internalType": "string",
          "name": "",
          "type": "string"
        }
      ],
      "stateMutability": "view",
      "type": "function"
    },
    {
      "inputs": [
        {
          "internalType": "uint256",
          "name": "tokenId",
          "type": "uint256"
        }
      ],
      "name": "ownerOf",
      "outputs": [
        {
          "internalType": "address",
          "name": "",
          "type": "address"
        }
      ],
      "stateMutability": "view",
      "type": "function"
    },
    {
      "inputs": [
        {
          "internalType": "bytes32",
          "name": "role",
          "type": "bytes32"
        },
        {
          "internalType": "address",
          "name": "account",
          "type": "address"
        }
      ],
      "name": "renounceRole",
      "outputs": [],
      "stateMutability": "nonpayable",
      "type": "function"
    },
    {
      "inputs": [
        {
          "internalType": "bytes32",
          "name": "role",
          "type": "bytes32"
        },
        {
          "internalType": "address",
          "name": "account",
          "type": "address"
        }
      ],
      "name": "revokeRole",
      "outputs": [],
      "stateMutability": "nonpayable",
      "type": "function"
    },
    {
      "inputs": [
        {
          "internalType": "address",
          "name": "from",
          "type": "address"
        },
        {
          "internalType": "address",
          "name": "to",
          "type": "address"
        },
        {
          "internalType": "uint256",
          "name": "tokenId",
          "type": "uint256"
        }
      ],
      "name": "safeTransferFrom",
      "outputs": [],
      "stateMutability": "nonpayable",
      "type": "function"
    },
    {
      "inputs": [
        {
          "internalType": "address",
          "name": "from",
          "type": "address"
        },
        {
          "internalType": "address",
          "name": "to",
          "type": "address"
        },
        {
          "internalType": "uint256",
          "name": "tokenId",
          "type": "uint256"
        },
        {
          "internalType": "bytes",
          "name": "_data",
          "type": "bytes"
        }
      ],
      "name": "safeTransferFrom",
      "outputs": [],
      "stateMutability": "nonpayable",
      "type": "function"
    },
    {
      "inputs": [
        {
          "internalType": "address",
          "name": "operator",
          "type": "address"
        },
        {
          "internalType": "bool",
          "name": "approved",
          "type": "bool"
        }
      ],
      "name": "setApprovalForAll",
      "outputs": [],
      "stateMutability": "nonpayable",
      "type": "function"
    },
    {
      "inputs": [
        {
          "internalType": "bytes4",
          "name": "interfaceId",
          "type": "bytes4"
        }
      ],
      "name": "supportsInterface",
      "outputs": [
        {
          "internalType": "bool",
          "name": "",
          "type": "bool"
        }
      ],
      "stateMutability": "view",
      "type": "function"
    },
    {
      "inputs": [],
      "name": "symbol",
      "outputs": [
        {
          "internalType": "string",
          "name": "",
          "type": "string"
        }
      ],
      "stateMutability": "view",
      "type": "function"
    },
    {
      "inputs": [
        {
          "internalType": "uint256",
          "name": "index",
          "type": "uint256"
        }
      ],
      "name": "tokenByIndex",
      "outputs": [
        {
          "internalType": "uint256",
          "name": "",
          "type": "uint256"
        }
      ],
      "stateMutability": "view",
      "type": "function"
    },
    {
      "inputs": [
        {
          "internalType": "address",
          "name": "owner",
          "type": "address"
        },
        {
          "internalType": "uint256",
          "name": "index",
          "type": "uint256"
        }
      ],
      "name": "tokenOfOwnerByIndex",
      "outputs": [
        {
          "internalType": "uint256",
          "name": "",
          "type": "uint256"
        }
      ],
      "stateMutability": "view",
      "type": "function"
    },
    {
      "inputs": [
        {
          "internalType": "uint256",
          "name": "tokenId",
          "type": "uint256"
        }
      ],
      "name": "tokenURI",
      "outputs": [
        {
          "internalType": "string",
          "name": "",
          "type": "string"
        }
      ],
      "stateMutability": "view",
      "type": "function"
    },
    {
      "inputs": [],
      "name": "totalSupply",
      "outputs": [
        {
          "internalType": "uint256",
          "name": "",
          "type": "uint256"
        }
      ],
      "stateMutability": "view",
      "type": "function"
    },
    {
      "inputs": [
        {
          "internalType": "address",
          "name": "from",
          "type": "address"
        },
        {
          "internalType": "address",
          "name": "to",
          "type": "address"
        },
        {
          "internalType": "uint256",
          "name": "tokenId",
          "type": "uint256"
        }
      ],
      "name": "transferFrom",
      "outputs": [],
      "stateMutability": "nonpayable",
      "type": "function"
    },
    {
      "inputs": [
        {
          "internalType": "uint256",
          "name": "tokenId",
          "type": "uint256"
        }
      ],
      "name": "withdraw",
      "outputs": [],
      "stateMutability": "nonpayable",
      "type": "function"
    },
    {
      "inputs": [
        {
          "internalType": "uint256",
          "name": "",
          "type": "uint256"
        }
      ],
      "name": "withdrawnTokens",
      "outputs": [
        {
          "internalType": "bool",
          "name": "",
          "type": "bool"
        }
      ],
      "stateMutability": "view",
      "type": "function"
    }
  ],
  "bytecode": "0x6080604052600c805460ff191690553480156200001b57600080fd5b50604051620037d7380380620037d7833981810160405260608110156200004157600080fd5b81019080805160405193929190846401000000008211156200006257600080fd5b9083019060208201858111156200007857600080fd5b82516401000000008111828201881017156200009357600080fd5b82525081516020918201929091019080838360005b83811015620000c2578181015183820152602001620000a8565b50505050905090810190601f168015620000f05780820380516001836020036101000a031916815260200191505b50604052602001805160405193929190846401000000008211156200011457600080fd5b9083019060208201858111156200012a57600080fd5b82516401000000008111828201881017156200014557600080fd5b82525081516020918201929091019080838360005b83811015620001745781810151838201526020016200015a565b50505050905090810190601f168015620001a25780820380516001836020036101000a031916815260200191505b5060405260200151915083905082620001cb6301ffc9a760e01b6001600160e01b036200030f16565b8151620001e090600690602085019062000722565b508051620001f690600790602084019062000722565b50620002126380ac58cd60e01b6001600160e01b036200030f16565b6200022d635b5e139f60e01b6001600160e01b036200030f16565b6200024863780e9d6360e01b6001600160e01b036200030f16565b505060408051808201909152601381527f4368696c644d696e7461626c6545524337323100000000000000000000000000602082015262000292906001600160e01b036200039416565b620002ba6000620002ab6001600160e01b036200043a16565b6001600160e01b036200045716565b604080516d4445504f5349544f525f524f4c4560901b8152905190819003600e019020620002f290826001600160e01b036200045716565b62000306836001600160e01b036200046c16565b505050620007c4565b6001600160e01b031980821614156200036f576040805162461bcd60e51b815260206004820152601c60248201527f4552433136353a20696e76616c696420696e7465726661636520696400000000604482015290519081900360640190fd5b6001600160e01b0319166000908152602081905260409020805460ff19166001179055565b806040516020018082805190602001908083835b60208310620003c95780518252601f199092019160209182019101620003a8565b51815160209384036101000a60001901801990921691161790527f3a20494e53554646494349454e545f5045524d495353494f4e530000000000009190930190815260408051808303600519018152601a90920190528051620004369550600b9450920191905062000722565b5050565b600062000451620004da60201b6200225d1760201c565b90505b90565b6200043682826001600160e01b036200053916565b600c5460ff1615620004b6576040805162461bcd60e51b815260206004820152600e60248201526d185b1c9958591e481a5b9a5d195960921b604482015290519081900360640190fd5b620004ca816001600160e01b03620005bd16565b50600c805460ff19166001179055565b600033301415620005345760606000368080601f0160208091040260200160405190810160405280939291908181526020018383808284376000920191909152505050503601516001600160a01b03169150620004549050565b503390565b6000828152600a6020908152604090912062000560918390620023d062000685821b17901c565b156200043657620005796001600160e01b036200043a16565b6001600160a01b0316816001600160a01b0316837f2f8788117e7eff1d82e926ec794901d17c78024a50270940304540a733656f0d60405160405180910390a45050565b6040518060800160405280604f815260200162003788604f913980516020918201208251838301206040805180820190915260018152603160f81b930192909252907fc89efdaa54c0f20c7adf612882df0950f5a951637e0307cdcb4c672f298b8bc630620006346001600160e01b03620006ae16565b604080516020808201979097528082019590955260608501939093526001600160a01b03909116608084015260a0808401919091528151808403909101815260c090920190528051910120600d5550565b6000620006a5836001600160a01b0384166001600160e01b03620006b216565b90505b92915050565b4690565b6000620006c983836001600160e01b036200070a16565b6200070157508154600181810184556000848152602080822090930184905584548482528286019093526040902091909155620006a8565b506000620006a8565b60009081526001919091016020526040902054151590565b828054600181600116156101000203166002900490600052602060002090601f016020900481019282601f106200076557805160ff191683800117855562000795565b8280016001018555821562000795579182015b828111156200079557825182559160200191906001019062000778565b50620007a3929150620007a7565b5090565b6200045491905b80821115620007a35760008155600101620007ae565b612fb480620007d46000396000f3fe6080604052600436106102045760003560e01c806340c10f1911610118578063a217fddf116100a0578063c87b56dd1161006f578063c87b56dd146108f3578063ca15c8731461091d578063cf2c52cb14610947578063d547741f146109d4578063e985e9c514610a0d57610204565b8063a217fddf146107bb578063a22cb465146107d0578063a3b0b5a31461080b578063b88d4fde1461082057610204565b80636c0360eb116100e75780636c0360eb146106f557806370a082311461070a5780639010d07c1461073d57806391d148541461076d57806395d89b41146107a657610204565b806340c10f191461062557806342842e0e1461065e5780634f6ccce7146106a15780636352211e146106cb57610204565b806320379ee51161019b5780632e1a7d4d1161016a5780632e1a7d4d1461053b5780632f2ff15d146105655780632f745c591461059e5780633408e470146105d757806336568abe146105ec57610204565b806320379ee51461048657806323b872dd1461049b578063248a9ca3146104de5780632d0335ab1461050857610204565b8063095ea7b3116101d7578063095ea7b31461034b5780630c53c51c146103865780630f7e59701461044a57806318160ddd1461045f57610204565b806301ffc9a71461020957806306fdde031461025157806307a974fc146102db578063081812fc14610305575b600080fd5b34801561021557600080fd5b5061023d6004803603602081101561022c57600080fd5b50356001600160e01b031916610a48565b604080519115158252519081900360200190f35b34801561025d57600080fd5b50610266610a6b565b6040805160208082528351818301528351919283929083019185019080838360005b838110156102a0578181015183820152602001610288565b50505050905090810190601f1680156102cd5780820380516001836020036101000a031916815260200191505b509250505060405180910390f35b3480156102e757600080fd5b5061023d600480360360208110156102fe57600080fd5b5035610b02565b34801561031157600080fd5b5061032f6004803603602081101561032857600080fd5b5035610b17565b604080516001600160a01b039092168252519081900360200190f35b34801561035757600080fd5b506103846004803603604081101561036e57600080fd5b506001600160a01b038135169060200135610b79565b005b610266600480360360a081101561039c57600080fd5b6001600160a01b0382351691908101906040810160208201356401000000008111156103c757600080fd5b8201836020820111156103d957600080fd5b803590602001918460018302840111640100000000831117156103fb57600080fd5b91908080601f016020809104026020016040519081016040528093929190818152602001838380828437600092019190915250929550508235935050506020810135906040013560ff16610c54565b34801561045657600080fd5b50610266610f57565b34801561046b57600080fd5b50610474610f74565b60408051918252519081900360200190f35b34801561049257600080fd5b50610474610f85565b3480156104a757600080fd5b50610384600480360360608110156104be57600080fd5b506001600160a01b03813581169160208101359091169060400135610f8b565b3480156104ea57600080fd5b506104746004803603602081101561050157600080fd5b5035610fe2565b34801561051457600080fd5b506104746004803603602081101561052b57600080fd5b50356001600160a01b0316610ff7565b34801561054757600080fd5b506103846004803603602081101561055e57600080fd5b5035611012565b34801561057157600080fd5b506103846004803603604081101561058857600080fd5b50803590602001356001600160a01b0316611096565b3480156105aa57600080fd5b50610474600480360360408110156105c157600080fd5b506001600160a01b038135169060200135611102565b3480156105e357600080fd5b50610474611133565b3480156105f857600080fd5b506103846004803603604081101561060f57600080fd5b50803590602001356001600160a01b0316611137565b34801561063157600080fd5b506103846004803603604081101561064857600080fd5b506001600160a01b038135169060200135611198565b34801561066a57600080fd5b506103846004803603606081101561068157600080fd5b506001600160a01b0381358116916020810135909116906040013561129f565b3480156106ad57600080fd5b50610474600480360360208110156106c457600080fd5b50356112ba565b3480156106d757600080fd5b5061032f600480360360208110156106ee57600080fd5b50356112d6565b34801561070157600080fd5b50610266611304565b34801561071657600080fd5b506104746004803603602081101561072d57600080fd5b50356001600160a01b0316611365565b34801561074957600080fd5b5061032f6004803603604081101561076057600080fd5b50803590602001356113cd565b34801561077957600080fd5b5061023d6004803603604081101561079057600080fd5b50803590602001356001600160a01b03166113eb565b3480156107b257600080fd5b50610266611409565b3480156107c757600080fd5b5061047461146a565b3480156107dc57600080fd5b50610384600480360360408110156107f357600080fd5b506001600160a01b038135169060200135151561146f565b34801561081757600080fd5b50610474611574565b34801561082c57600080fd5b506103846004803603608081101561084357600080fd5b6001600160a01b0382358116926020810135909116916040820135919081019060808101606082013564010000000081111561087e57600080fd5b82018360208201111561089057600080fd5b803590602001918460018302840111640100000000831117156108b257600080fd5b91908080601f01602080910402602001604051908101604052809392919081815260200183838082843760009201919091525092955061159a945050505050565b3480156108ff57600080fd5b506102666004803603602081101561091657600080fd5b50356115f8565b34801561092957600080fd5b506104746004803603602081101561094057600080fd5b503561189f565b34801561095357600080fd5b506103846004803603604081101561096a57600080fd5b6001600160a01b03823516919081019060408101602082013564010000000081111561099557600080fd5b8201836020820111156109a757600080fd5b803590602001918460018302840111640100000000831117156109c957600080fd5b5090925090506118b6565b3480156109e057600080fd5b50610384600480360360408110156109f757600080fd5b50803590602001356001600160a01b0316611989565b348015610a1957600080fd5b5061023d60048036036040811015610a3057600080fd5b506001600160a01b03813581169160200135166119e2565b6001600160e01b0319811660009081526020819052604090205460ff165b919050565b60068054604080516020601f6002600019610100600188161502019095169490940493840181900481028201810190925282815260609390929091830182828015610af75780601f10610acc57610100808354040283529160200191610af7565b820191906000526020600020905b815481529060010190602001808311610ada57829003601f168201915b505050505090505b90565b600f6020526000908152604090205460ff1681565b6000610b2282611a10565b610b5d5760405162461bcd60e51b815260040180806020018281038252602c815260200180612e59602c913960400191505060405180910390fd5b506000908152600460205260409020546001600160a01b031690565b6000610b84826112d6565b9050806001600160a01b0316836001600160a01b03161415610bd75760405162461bcd60e51b8152600401808060200182810382526021815260200180612efe6021913960400191505060405180910390fd5b806001600160a01b0316610be9611a23565b6001600160a01b03161480610c0a5750610c0a81610c05611a23565b6119e2565b610c455760405162461bcd60e51b8152600401808060200182810382526038815260200180612d846038913960400191505060405180910390fd5b610c4f8383611a2d565b505050565b6060610c5e612b66565b50604080516060810182526001600160a01b0388166000818152600e602090815290849020548352820152908101869052610c9c8782878787611a9b565b610cd75760405162461bcd60e51b8152600401808060200182810382526021815260200180612eae6021913960400191505060405180910390fd5b6001600160a01b0387166000908152600e6020526040902054610d0190600163ffffffff611b7816565b6001600160a01b0388166000818152600e602090815260408083209490945583519283523383820181905260609484018581528b51958501959095528a517f5845892132946850460bff5a0083f71031bc5bf9aadcd40f1de79423eac9b10b958d9592948d94919260808501928601918190849084905b83811015610d90578181015183820152602001610d78565b50505050905090810190601f168015610dbd5780820380516001836020036101000a031916815260200191505b5094505050505060405180910390a160006060306001600160a01b0316888a6040516020018083805190602001908083835b60208310610e0e5780518252601f199092019160209182019101610def565b6001836020036101000a038019825116818451168082178552505050505050905001826001600160a01b03166001600160a01b031660601b8152601401925050506040516020818303038152906040526040518082805190602001908083835b60208310610e8d5780518252601f199092019160209182019101610e6e565b6001836020036101000a0380198251168184511680821785525050505050509050019150506000604051808303816000865af19150503d8060008114610eef576040519150601f19603f3d011682016040523d82523d6000602084013e610ef4565b606091505b509150915081610f4b576040805162461bcd60e51b815260206004820152601c60248201527f46756e6374696f6e2063616c6c206e6f74207375636365737366756c00000000604482015290519081900360640190fd5b98975050505050505050565b604051806040016040528060018152602001603160f81b81525081565b6000610f806002611bd2565b905090565b600d5490565b610f9c610f96611a23565b82611bdd565b610fd75760405162461bcd60e51b8152600401808060200182810382526031815260200180612f1f6031913960400191505060405180910390fd5b610c4f838383611c81565b6000908152600a602052604090206002015490565b6001600160a01b03166000908152600e602052604090205490565b61101b816112d6565b6001600160a01b031661102c611a23565b6001600160a01b0316146110715760405162461bcd60e51b8152600401808060200182810382526028815260200180612dbc6028913960400191505060405180910390fd5b6000818152600f60205260409020805460ff1916600117905561109381611ddf565b50565b6000828152600a60205260409020600201546110b9906110b4611a23565b6113eb565b6110f45760405162461bcd60e51b815260040180806020018281038252602f815260200180612c0c602f913960400191505060405180910390fd5b6110fe8282611eb8565b5050565b6001600160a01b038216600090815260016020526040812061112a908363ffffffff611f2716565b90505b92915050565b4690565b61113f611a23565b6001600160a01b0316816001600160a01b03161461118e5760405162461bcd60e51b815260040180806020018281038252602f815260200180612f50602f913960400191505060405180910390fd5b6110fe8282611f33565b60006111a6816110b4611a23565b600b906112465760405162461bcd60e51b81526020600482019081528254600260001961010060018416150201909116046024830181905290918291604490910190849080156112375780601f1061120c57610100808354040283529160200191611237565b820191906000526020600020905b81548152906001019060200180831161121a57829003601f168201915b50509250505060405180910390fd5b506000828152600f602052604090205460ff16156112955760405162461bcd60e51b815260040180806020018281038252602f815260200180612c6d602f913960400191505060405180910390fd5b610c4f8383611fa2565b610c4f8383836040518060200160405280600081525061159a565b6000806112ce60028463ffffffff6120dc16565b509392505050565b600061112d82604051806060016040528060298152602001612e0e602991396002919063ffffffff6120f816565b60098054604080516020601f6002600019610100600188161502019095169490940493840181900481028201810190925282815260609390929091830182828015610af75780601f10610acc57610100808354040283529160200191610af7565b60006001600160a01b0382166113ac5760405162461bcd60e51b815260040180806020018281038252602a815260200180612de4602a913960400191505060405180910390fd5b6001600160a01b038216600090815260016020526040902061112d90611bd2565b6000828152600a6020526040812061112a908363ffffffff611f2716565b6000828152600a6020526040812061112a908363ffffffff61210f16565b60078054604080516020601f6002600019610100600188161502019095169490940493840181900481028201810190925282815260609390929091830182828015610af75780601f10610acc57610100808354040283529160200191610af7565b600081565b611477611a23565b6001600160a01b0316826001600160a01b031614156114dd576040805162461bcd60e51b815260206004820152601960248201527f4552433732313a20617070726f766520746f2063616c6c657200000000000000604482015290519081900360640190fd5b80600560006114ea611a23565b6001600160a01b03908116825260208083019390935260409182016000908120918716808252919093529120805460ff19169215159290921790915561152e611a23565b60408051841515815290516001600160a01b0392909216917f17307eab39ab6107e8899845ad3d59bd9653f200f220920489ca2b5937696c319181900360200190a35050565b604080516d4445504f5349544f525f524f4c4560901b8152905190819003600e01902081565b6115ab6115a5611a23565b83611bdd565b6115e65760405162461bcd60e51b8152600401808060200182810382526031815260200180612f1f6031913960400191505060405180910390fd5b6115f284848484612124565b50505050565b606061160382611a10565b61163e5760405162461bcd60e51b815260040180806020018281038252602f815260200180612ecf602f913960400191505060405180910390fd5b60008281526008602090815260409182902080548351601f60026000196101006001861615020190931692909204918201849004840281018401909452808452606093928301828280156116d35780601f106116a8576101008083540402835291602001916116d3565b820191906000526020600020905b8154815290600101906020018083116116b657829003601f168201915b5050600954939450505050600260001961010060018416150201909116046116fc579050610a66565b8051156117cd5760098160405160200180838054600181600116156101000203166002900480156117645780601f10611742576101008083540402835291820191611764565b820191906000526020600020905b815481529060010190602001808311611750575b5050825160208401908083835b602083106117905780518252601f199092019160209182019101611771565b6001836020036101000a03801982511681845116808217855250505050505090500192505050604051602081830303815290604052915050610a66565b60096117d884612176565b60405160200180838054600181600116156101000203166002900480156118365780601f10611814576101008083540402835291820191611836565b820191906000526020600020905b815481529060010190602001808311611822575b5050825160208401908083835b602083106118625780518252601f199092019160209182019101611843565b6001836020036101000a03801982511681845116808217855250505050505090500192505050604051602081830303815290604052915050919050565b6000818152600a6020526040812061112d90611bd2565b604080516d4445504f5349544f525f524f4c4560901b8152905190819003600e0190206118e5816110b4611a23565b600b9061194b5760405162461bcd60e51b81526020600482019081528254600260001961010060018416150201909116046024830181905290918291604490910190849080156112375780601f1061120c57610100808354040283529160200191611237565b5060008383602081101561195e57600080fd5b50356000818152600f60205260409020805460ff1916905590506119828582611fa2565b5050505050565b6000828152600a60205260409020600201546119a7906110b4611a23565b61118e5760405162461bcd60e51b8152600401808060200182810382526030815260200180612d2f6030913960400191505060405180910390fd5b6001600160a01b03918216600090815260056020908152604080832093909416825291909152205460ff1690565b600061112d60028363ffffffff61225116565b6000610f8061225d565b600081815260046020526040902080546001600160a01b0319166001600160a01b0384169081179091558190611a62826112d6565b6001600160a01b03167f8c5be1e5ebec7d5bd14f71427d1e84f3dd0314c0f7b2291e5b200ac8c7c3b92560405160405180910390a45050565b60006001600160a01b038616611ae25760405162461bcd60e51b8152600401808060200182810382526025815260200180612d5f6025913960400191505060405180910390fd5b6001611af5611af0876122ba565b612346565b83868660405160008152602001604052604051808581526020018460ff1660ff1681526020018381526020018281526020019450505050506020604051602081039080840390855afa158015611b4f573d6000803e3d6000fd5b505050602060405103516001600160a01b0316866001600160a01b031614905095945050505050565b60008282018381101561112a576040805162461bcd60e51b815260206004820152601b60248201527f536166654d6174683a206164646974696f6e206f766572666c6f770000000000604482015290519081900360640190fd5b600061112d82612392565b6000611be882611a10565b611c235760405162461bcd60e51b815260040180806020018281038252602c815260200180612d03602c913960400191505060405180910390fd5b6000611c2e836112d6565b9050806001600160a01b0316846001600160a01b03161480611c695750836001600160a01b0316611c5e84610b17565b6001600160a01b0316145b80611c795750611c7981856119e2565b949350505050565b826001600160a01b0316611c94826112d6565b6001600160a01b031614611cd95760405162461bcd60e51b8152600401808060200182810382526029815260200180612e856029913960400191505060405180910390fd5b6001600160a01b038216611d1e5760405162461bcd60e51b8152600401808060200182810382526024815260200180612cdf6024913960400191505060405180910390fd5b611d29838383610c4f565b611d34600082611a2d565b6001600160a01b0383166000908152600160205260409020611d5c908263ffffffff61239616565b506001600160a01b0382166000908152600160205260409020611d85908263ffffffff6123a216565b50611d986002828463ffffffff6123ae16565b5080826001600160a01b0316846001600160a01b03167fddf252ad1be2c89b69c2b068fc378daa952ba7f163c4a11628f55a4df523b3ef60405160405180910390a4505050565b6000611dea826112d6565b9050611df881600084610c4f565b611e03600083611a2d565b6000828152600860205260409020546002600019610100600184161502019091160415611e41576000828152600860205260408120611e4191612b90565b6001600160a01b0381166000908152600160205260409020611e69908363ffffffff61239616565b50611e7b60028363ffffffff6123c416565b5060405182906000906001600160a01b038416907fddf252ad1be2c89b69c2b068fc378daa952ba7f163c4a11628f55a4df523b3ef908390a45050565b6000828152600a60205260409020611ed6908263ffffffff6123d016565b156110fe57611ee3611a23565b6001600160a01b0316816001600160a01b0316837f2f8788117e7eff1d82e926ec794901d17c78024a50270940304540a733656f0d60405160405180910390a45050565b600061112a83836123e5565b6000828152600a60205260409020611f51908263ffffffff61244916565b156110fe57611f5e611a23565b6001600160a01b0316816001600160a01b0316837ff6391f5c32d9c69d2a47ea670b442974b53935d1edc7fd64eb21e047a839171b60405160405180910390a45050565b6001600160a01b038216611ffd576040805162461bcd60e51b815260206004820181905260248201527f4552433732313a206d696e7420746f20746865207a65726f2061646472657373604482015290519081900360640190fd5b61200681611a10565b15612058576040805162461bcd60e51b815260206004820152601c60248201527f4552433732313a20746f6b656e20616c7265616479206d696e74656400000000604482015290519081900360640190fd5b61206460008383610c4f565b6001600160a01b038216600090815260016020526040902061208c908263ffffffff6123a216565b5061209f6002828463ffffffff6123ae16565b5060405181906001600160a01b038416906000907fddf252ad1be2c89b69c2b068fc378daa952ba7f163c4a11628f55a4df523b3ef908290a45050565b60008080806120eb868661245e565b9097909650945050505050565b60006121058484846124d9565b90505b9392505050565b600061112a836001600160a01b0384166125a3565b61212f848484611c81565b61213b848484846125bb565b6115f25760405162461bcd60e51b8152600401808060200182810382526032815260200180612c3b6032913960400191505060405180910390fd5b60608161219b57506040805180820190915260018152600360fc1b6020820152610a66565b8160005b81156121b357600101600a8204915061219f565b60608167ffffffffffffffff811180156121cc57600080fd5b506040519080825280601f01601f1916602001820160405280156121f7576020820181803683370190505b50859350905060001982015b831561224857600a840660300160f81b8282806001900393508151811061222657fe5b60200101906001600160f81b031916908160001a905350600a84049350612203565b50949350505050565b600061112a83836125a3565b6000333014156122b55760606000368080601f0160208091040260200160405190810160405280939291908181526020018383808284376000920191909152505050503601516001600160a01b03169150610aff9050565b503390565b6000604051806080016040528060438152602001612c9c60439139805190602001208260000151836020015184604001518051906020012060405160200180858152602001848152602001836001600160a01b03166001600160a01b03168152602001828152602001945050505050604051602081830303815290604052805190602001209050919050565b6000612350610f85565b82604051602001808061190160f01b81525060020183815260200182815260200192505050604051602081830303815290604052805190602001209050919050565b5490565b600061112a838361273b565b600061112a8383612801565b600061210584846001600160a01b03851661284b565b600061112a83836128e2565b600061112a836001600160a01b038416612801565b815460009082106124275760405162461bcd60e51b8152600401808060200182810382526022815260200180612bea6022913960400191505060405180910390fd5b82600001828154811061243657fe5b9060005260206000200154905092915050565b600061112a836001600160a01b03841661273b565b8154600090819083106124a25760405162461bcd60e51b8152600401808060200182810382526022815260200180612e376022913960400191505060405180910390fd5b60008460000184815481106124b357fe5b906000526020600020906002020190508060000154816001015492509250509250929050565b600082815260018401602052604081205482816125745760405162461bcd60e51b81526004018080602001828103825283818151815260200191508051906020019080838360005b83811015612539578181015183820152602001612521565b50505050905090810190601f1680156125665780820380516001836020036101000a031916815260200191505b509250505060405180910390fd5b5084600001600182038154811061258757fe5b9060005260206000209060020201600101549150509392505050565b60009081526001919091016020526040902054151590565b60006125cf846001600160a01b03166129b6565b6125db57506001611c79565b6060612701630a85bd0160e11b6125f0611a23565b88878760405160240180856001600160a01b03166001600160a01b03168152602001846001600160a01b03166001600160a01b0316815260200183815260200180602001828103825283818151815260200191508051906020019080838360005b83811015612669578181015183820152602001612651565b50505050905090810190601f1680156126965780820380516001836020036101000a031916815260200191505b5095505050505050604051602081830303815290604052906001600160e01b0319166020820180516001600160e01b038381831617835250505050604051806060016040528060328152602001612c3b603291396001600160a01b038816919063ffffffff6129ef16565b9050600081806020019051602081101561271a57600080fd5b50516001600160e01b031916630a85bd0160e11b1492505050949350505050565b600081815260018301602052604081205480156127f7578354600019808301919081019060009087908390811061276e57fe5b906000526020600020015490508087600001848154811061278b57fe5b6000918252602080832090910192909255828152600189810190925260409020908401905586548790806127bb57fe5b6001900381819060005260206000200160009055905586600101600087815260200190815260200160002060009055600194505050505061112d565b600091505061112d565b600061280d83836125a3565b6128435750815460018181018455600084815260208082209093018490558454848252828601909352604090209190915561112d565b50600061112d565b6000828152600184016020526040812054806128b0575050604080518082018252838152602080820184815286546001818101895560008981528481209551600290930290950191825591519082015586548684528188019092529290912055612108565b828560000160018303815481106128c357fe5b9060005260206000209060020201600101819055506000915050612108565b600081815260018301602052604081205480156127f7578354600019808301919081019060009087908390811061291557fe5b906000526020600020906002020190508087600001848154811061293557fe5b60009182526020808320845460029093020191825560019384015491840191909155835482528983019052604090209084019055865487908061297457fe5b600082815260208082206002600019909401938402018281556001908101839055929093558881528982019092526040822091909155945061112d9350505050565b6000813f7fc5d2460186f7233c927e7db2dcc703c0e500b653ca82273b7bfad8045d85a470818114801590611c79575050151592915050565b606061210584846000856060612a04856129b6565b612a55576040805162461bcd60e51b815260206004820152601d60248201527f416464726573733a2063616c6c20746f206e6f6e2d636f6e7472616374000000604482015290519081900360640190fd5b60006060866001600160a01b031685876040518082805190602001908083835b60208310612a945780518252601f199092019160209182019101612a75565b6001836020036101000a03801982511681845116808217855250505050505090500191505060006040518083038185875af1925050503d8060008114612af6576040519150601f19603f3d011682016040523d82523d6000602084013e612afb565b606091505b50915091508115612b0f579150611c799050565b805115612b1f5780518082602001fd5b60405162461bcd60e51b8152602060048201818152865160248401528651879391928392604401919085019080838360008315612539578181015183820152602001612521565b60405180606001604052806000815260200160006001600160a01b03168152602001606081525090565b50805460018160011615610100020316600290046000825580601f10612bb65750611093565b600091825260209182902061109392610aff92601f01048101905b80821115612be55760008155600101612bd1565b509056fe456e756d657261626c655365743a20696e646578206f7574206f6620626f756e6473416363657373436f6e74726f6c3a2073656e646572206d75737420626520616e2061646d696e20746f206772616e744552433732313a207472616e7366657220746f206e6f6e20455243373231526563656976657220696d706c656d656e7465724368696c644d696e7461626c654552433732313a20544f4b454e5f4558495354535f4f4e5f524f4f545f434841494e4d6574615472616e73616374696f6e2875696e74323536206e6f6e63652c616464726573732066726f6d2c62797465732066756e6374696f6e5369676e6174757265294552433732313a207472616e7366657220746f20746865207a65726f20616464726573734552433732313a206f70657261746f7220717565727920666f72206e6f6e6578697374656e7420746f6b656e416363657373436f6e74726f6c3a2073656e646572206d75737420626520616e2061646d696e20746f207265766f6b654e61746976654d6574615472616e73616374696f6e3a20494e56414c49445f5349474e45524552433732313a20617070726f76652063616c6c6572206973206e6f74206f776e6572206e6f7220617070726f76656420666f7220616c6c4368696c644d696e7461626c654552433732313a20494e56414c49445f544f4b454e5f4f574e45524552433732313a2062616c616e636520717565727920666f7220746865207a65726f20616464726573734552433732313a206f776e657220717565727920666f72206e6f6e6578697374656e7420746f6b656e456e756d657261626c654d61703a20696e646578206f7574206f6620626f756e64734552433732313a20617070726f76656420717565727920666f72206e6f6e6578697374656e7420746f6b656e4552433732313a207472616e73666572206f6620746f6b656e2074686174206973206e6f74206f776e5369676e657220616e64207369676e617475726520646f206e6f74206d617463684552433732314d657461646174613a2055524920717565727920666f72206e6f6e6578697374656e7420746f6b656e4552433732313a20617070726f76616c20746f2063757272656e74206f776e65724552433732313a207472616e736665722063616c6c6572206973206e6f74206f776e6572206e6f7220617070726f766564416363657373436f6e74726f6c3a2063616e206f6e6c792072656e6f756e636520726f6c657320666f722073656c66a26469706673582212202536ffa40907fbdb572ca099595e94266812bdb4d112d90581ce3a76e802dc0a64736f6c63430006060033454950373132446f6d61696e28737472696e67206e616d652c737472696e672076657273696f6e2c6164647265737320766572696679696e67436f6e74726163742c627974657333322073616c7429",
  "linkReferences": {},
  "deployedLinkReferences": {}
}