{
  "_format": "hh-sol-artifact-1",
  "contractName": "DummyMintableERC721",
  "sourceName": "contracts/root/RootToken/DummyMintableERC721.sol",
  "abi": [
    {
      "inputs": [
        {
          "internalType": "string",
          "name": "name_",
          "type": "string"
        },
        {
          "internalType": "string",
          "name": "symbol_",
          "type": "string"
        }
      ],
      "stateMutability": "nonpayable",
      "type": "constructor"
    },
    {
      "anonymous": false,
      "inputs": [
        {
          "indexed": true,
          "internalType": "address",
          "name": "owner",
          "type": "address"
        },
        {
          "indexed": true,
          "internalType": "address",
          "name": "approved",
          "type": "address"
        },
        {
          "indexed": true,
          "internalType": "uint256",
          "name": "tokenId",
          "type": "uint256"
        }
      ],
      "name": "Approval",
      "type": "event"
    },
    {
      "anonymous": false,
      "inputs": [
        {
          "indexed": true,
          "internalType": "address",
          "name": "owner",
          "type": "address"
        },
        {
          "indexed": true,
          "internalType": "address",
          "name": "operator",
          "type": "address"
        },
        {
          "indexed": false,
          "internalType": "bool",
          "name": "approved",
          "type": "bool"
        }
      ],
      "name": "ApprovalForAll",
      "type": "event"
    },
    {
      "anonymous": false,
      "inputs": [
        {
          "indexed": false,
          "internalType": "address",
          "name": "userAddress",
          "type": "address"
        },
        {
          "indexed": false,
          "internalType": "address payable",
          "name": "relayerAddress",
          "type": "address"
        },
        {
          "indexed": false,
          "internalType": "bytes",
          "name": "functionSignature",
          "type": "bytes"
        }
      ],
      "name": "MetaTransactionExecuted",
      "type": "event"
    },
    {
      "anonymous": false,
      "inputs": [
        {
          "indexed": true,
          "internalType": "bytes32",
          "name": "role",
          "type": "bytes32"
        },
        {
          "indexed": true,
          "internalType": "bytes32",
          "name": "previousAdminRole",
          "type": "bytes32"
        },
        {
          "indexed": true,
          "internalType": "bytes32",
          "name": "newAdminRole",
          "type": "bytes32"
        }
      ],
      "name": "RoleAdminChanged",
      "type": "event"
    },
    {
      "anonymous": false,
      "inputs": [
        {
          "indexed": true,
          "internalType": "bytes32",
          "name": "role",
          "type": "bytes32"
        },
        {
          "indexed": true,
          "internalType": "address",
          "name": "account",
          "type": "address"
        },
        {
          "indexed": true,
          "internalType": "address",
          "name": "sender",
          "type": "address"
        }
      ],
      "name": "RoleGranted",
      "type": "event"
    },
    {
      "anonymous": false,
      "inputs": [
        {
          "indexed": true,
          "internalType": "bytes32",
          "name": "role",
          "type": "bytes32"
        },
        {
          "indexed": true,
          "internalType": "address",
          "name": "account",
          "type": "address"
        },
        {
          "indexed": true,
          "internalType": "address",
          "name": "sender",
          "type": "address"
        }
      ],
      "name": "RoleRevoked",
      "type": "event"
    },
    {
      "anonymous": false,
      "inputs": [
        {
          "indexed": true,
          "internalType": "address",
          "name": "from",
          "type": "address"
        },
        {
          "indexed": true,
          "internalType": "address",
          "name": "to",
          "type": "address"
        },
        {
          "indexed": true,
          "internalType": "uint256",
          "name": "tokenId",
          "type": "uint256"
        }
      ],
      "name": "Transfer",
      "type": "event"
    },
    {
      "inputs": [],
      "name": "DEFAULT_ADMIN_ROLE",
      "outputs": [
        {
          "internalType": "bytes32",
          "name": "",
          "type": "bytes32"
        }
      ],
      "stateMutability": "view",
      "type": "function"
    },
    {
      "inputs": [],
      "name": "ERC712_VERSION",
      "outputs": [
        {
          "internalType": "string",
          "name": "",
          "type": "string"
        }
      ],
      "stateMutability": "view",
      "type": "function"
    },
    {
      "inputs": [],
      "name": "PREDICATE_ROLE",
      "outputs": [
        {
          "internalType": "bytes32",
          "name": "",
          "type": "bytes32"
        }
      ],
      "stateMutability": "view",
      "type": "function"
    },
    {
      "inputs": [
        {
          "internalType": "address",
          "name": "to",
          "type": "address"
        },
        {
          "internalType": "uint256",
          "name": "tokenId",
          "type": "uint256"
        }
      ],
      "name": "approve",
      "outputs": [],
      "stateMutability": "nonpayable",
      "type": "function"
    },
    {
      "inputs": [
        {
          "internalType": "address",
          "name": "owner",
          "type": "address"
        }
      ],
      "name": "balanceOf",
      "outputs": [
        {
          "internalType": "uint256",
          "name": "",
          "type": "uint256"
        }
      ],
      "stateMutability": "view",
      "type": "function"
    },
    {
      "inputs": [],
      "name": "baseURI",
      "outputs": [
        {
          "internalType": "string",
          "name": "",
          "type": "string"
        }
      ],
      "stateMutability": "view",
      "type": "function"
    },
    {
      "inputs": [
        {
          "internalType": "address",
          "name": "userAddress",
          "type": "address"
        },
        {
          "internalType": "bytes",
          "name": "functionSignature",
          "type": "bytes"
        },
        {
          "internalType": "bytes32",
          "name": "sigR",
          "type": "bytes32"
        },
        {
          "internalType": "bytes32",
          "name": "sigS",
          "type": "bytes32"
        },
        {
          "internalType": "uint8",
          "name": "sigV",
          "type": "uint8"
        }
      ],
      "name": "executeMetaTransaction",
      "outputs": [
        {
          "internalType": "bytes",
          "name": "",
          "type": "bytes"
        }
      ],
      "stateMutability": "payable",
      "type": "function"
    },
    {
      "inputs": [
        {
          "internalType": "uint256",
          "name": "tokenId",
          "type": "uint256"
        }
      ],
      "name": "exists",
      "outputs": [
        {
          "internalType": "bool",
          "name": "",
          "type": "bool"
        }
      ],
      "stateMutability": "view",
      "type": "function"
    },
    {
      "inputs": [
        {
          "internalType": "uint256",
          "name": "tokenId",
          "type": "uint256"
        }
      ],
      "name": "getApproved",
      "outputs": [
        {
          "internalType": "address",
          "name": "",
          "type": "address"
        }
      ],
      "stateMutability": "view",
      "type": "function"
    },
    {
      "inputs": [],
      "name": "getChainId",
      "outputs": [
        {
          "internalType": "uint256",
          "name": "",
          "type": "uint256"
        }
      ],
      "stateMutability": "pure",
      "type": "function"
    },
    {
      "inputs": [],
      "name": "getDomainSeperator",
      "outputs": [
        {
          "internalType": "bytes32",
          "name": "",
          "type": "bytes32"
        }
      ],
      "stateMutability": "view",
      "type": "function"
    },
    {
      "inputs": [
        {
          "internalType": "address",
          "name": "user",
          "type": "address"
        }
      ],
      "name": "getNonce",
      "outputs": [
        {
          "internalType": "uint256",
          "name": "nonce",
          "type": "uint256"
        }
      ],
      "stateMutability": "view",
      "type": "function"
    },
    {
      "inputs": [
        {
          "internalType": "bytes32",
          "name": "role",
          "type": "bytes32"
        }
      ],
      "name": "getRoleAdmin",
      "outputs": [
        {
          "internalType": "bytes32",
          "name": "",
          "type": "bytes32"
        }
      ],
      "stateMutability": "view",
      "type": "function"
    },
    {
      "inputs": [
        {
          "internalType": "bytes32",
          "name": "role",
          "type": "bytes32"
        },
        {
          "internalType": "uint256",
          "name": "index",
          "type": "uint256"
        }
      ],
      "name": "getRoleMember",
      "outputs": [
        {
          "internalType": "address",
          "name": "",
          "type": "address"
        }
      ],
      "stateMutability": "view",
      "type": "function"
    },
    {
      "inputs": [
        {
          "internalType": "bytes32",
          "name": "role",
          "type": "bytes32"
        }
      ],
      "name": "getRoleMemberCount",
      "outputs": [
        {
          "internalType": "uint256",
          "name": "",
          "type": "uint256"
        }
      ],
      "stateMutability": "view",
      "type": "function"
    },
    {
      "inputs": [
        {
          "internalType": "bytes32",
          "name": "role",
          "type": "bytes32"
        },
        {
          "internalType": "address",
          "name": "account",
          "type": "address"
        }
      ],
      "name": "grantRole",
      "outputs": [],
      "stateMutability": "nonpayable",
      "type": "function"
    },
    {
      "inputs": [
        {
          "internalType": "bytes32",
          "name": "role",
          "type": "bytes32"
        },
        {
          "internalType": "address",
          "name": "account",
          "type": "address"
        }
      ],
      "name": "hasRole",
      "outputs": [
        {
          "internalType": "bool",
          "name": "",
          "type": "bool"
        }
      ],
      "stateMutability": "view",
      "type": "function"
    },
    {
      "inputs": [
        {
          "internalType": "address",
          "name": "owner",
          "type": "address"
        },
        {
          "internalType": "address",
          "name": "operator",
          "type": "address"
        }
      ],
      "name": "isApprovedForAll",
      "outputs": [
        {
          "internalType": "bool",
          "name": "",
          "type": "bool"
        }
      ],
      "stateMutability": "view",
      "type": "function"
    },
    {
      "inputs": [
        {
          "internalType": "address",
          "name": "user",
          "type": "address"
        },
        {
          "internalType": "uint256",
          "name": "tokenId",
          "type": "uint256"
        }
      ],
      "name": "mint",
      "outputs": [],
      "stateMutability": "nonpayable",
      "type": "function"
    },
    {
      "inputs": [],
      "name": "name",
      "outputs": [
        {
          "internalType": "string",
          "name": "",
          "type": "string"
        }
      ],
      "stateMutability": "view",
      "type": "function"
    },
    {
      "inputs": [
        {
          "internalType": "uint256",
          "name": "tokenId",
          "type": "uint256"
        }
      ],
      "name": "ownerOf",
      "outputs": [
        {
          "internalType": "address",
          "name": "",
          "type": "address"
        }
      ],
      "stateMutability": "view",
      "type": "function"
    },
    {
      "inputs": [
        {
          "internalType": "bytes32",
          "name": "role",
          "type": "bytes32"
        },
        {
          "internalType": "address",
          "name": "account",
          "type": "address"
        }
      ],
      "name": "renounceRole",
      "outputs": [],
      "stateMutability": "nonpayable",
      "type": "function"
    },
    {
      "inputs": [
        {
          "internalType": "bytes32",
          "name": "role",
          "type": "bytes32"
        },
        {
          "internalType": "address",
          "name": "account",
          "type": "address"
        }
      ],
      "name": "revokeRole",
      "outputs": [],
      "stateMutability": "nonpayable",
      "type": "function"
    },
    {
      "inputs": [
        {
          "internalType": "address",
          "name": "from",
          "type": "address"
        },
        {
          "internalType": "address",
          "name": "to",
          "type": "address"
        },
        {
          "internalType": "uint256",
          "name": "tokenId",
          "type": "uint256"
        }
      ],
      "name": "safeTransferFrom",
      "outputs": [],
      "stateMutability": "nonpayable",
      "type": "function"
    },
    {
      "inputs": [
        {
          "internalType": "address",
          "name": "from",
          "type": "address"
        },
        {
          "internalType": "address",
          "name": "to",
          "type": "address"
        },
        {
          "internalType": "uint256",
          "name": "tokenId",
          "type": "uint256"
        },
        {
          "internalType": "bytes",
          "name": "_data",
          "type": "bytes"
        }
      ],
      "name": "safeTransferFrom",
      "outputs": [],
      "stateMutability": "nonpayable",
      "type": "function"
    },
    {
      "inputs": [
        {
          "internalType": "address",
          "name": "operator",
          "type": "address"
        },
        {
          "internalType": "bool",
          "name": "approved",
          "type": "bool"
        }
      ],
      "name": "setApprovalForAll",
      "outputs": [],
      "stateMutability": "nonpayable",
      "type": "function"
    },
    {
      "inputs": [
        {
          "internalType": "bytes4",
          "name": "interfaceId",
          "type": "bytes4"
        }
      ],
      "name": "supportsInterface",
      "outputs": [
        {
          "internalType": "bool",
          "name": "",
          "type": "bool"
        }
      ],
      "stateMutability": "view",
      "type": "function"
    },
    {
      "inputs": [],
      "name": "symbol",
      "outputs": [
        {
          "internalType": "string",
          "name": "",
          "type": "string"
        }
      ],
      "stateMutability": "view",
      "type": "function"
    },
    {
      "inputs": [
        {
          "internalType": "uint256",
          "name": "index",
          "type": "uint256"
        }
      ],
      "name": "tokenByIndex",
      "outputs": [
        {
          "internalType": "uint256",
          "name": "",
          "type": "uint256"
        }
      ],
      "stateMutability": "view",
      "type": "function"
    },
    {
      "inputs": [
        {
          "internalType": "address",
          "name": "owner",
          "type": "address"
        },
        {
          "internalType": "uint256",
          "name": "index",
          "type": "uint256"
        }
      ],
      "name": "tokenOfOwnerByIndex",
      "outputs": [
        {
          "internalType": "uint256",
          "name": "",
          "type": "uint256"
        }
      ],
      "stateMutability": "view",
      "type": "function"
    },
    {
      "inputs": [
        {
          "internalType": "uint256",
          "name": "tokenId",
          "type": "uint256"
        }
      ],
      "name": "tokenURI",
      "outputs": [
        {
          "internalType": "string",
          "name": "",
          "type": "string"
        }
      ],
      "stateMutability": "view",
      "type": "function"
    },
    {
      "inputs": [],
      "name": "totalSupply",
      "outputs": [
        {
          "internalType": "uint256",
          "name": "",
          "type": "uint256"
        }
      ],
      "stateMutability": "view",
      "type": "function"
    },
    {
      "inputs": [
        {
          "internalType": "address",
          "name": "from",
          "type": "address"
        },
        {
          "internalType": "address",
          "name": "to",
          "type": "address"
        },
        {
          "internalType": "uint256",
          "name": "tokenId",
          "type": "uint256"
        }
      ],
      "name": "transferFrom",
      "outputs": [],
      "stateMutability": "nonpayable",
      "type": "function"
    }
  ],
  "bytecode": "0x6080604052600c805460ff191690553480156200001b57600080fd5b506040516200331238038062003312833981810160405260408110156200004157600080fd5b81019080805160405193929190846401000000008211156200006257600080fd5b9083019060208201858111156200007857600080fd5b82516401000000008111828201881017156200009357600080fd5b82525081516020918201929091019080838360005b83811015620000c2578181015183820152602001620000a8565b50505050905090810190601f168015620000f05780820380516001836020036101000a031916815260200191505b50604052602001805160405193929190846401000000008211156200011457600080fd5b9083019060208201858111156200012a57600080fd5b82516401000000008111828201881017156200014557600080fd5b82525081516020918201929091019080838360005b83811015620001745781810151838201526020016200015a565b50505050905090810190601f168015620001a25780820380516001836020036101000a031916815260200191505b5060405250839150829050620001c86301ffc9a760e01b6001600160e01b036200030e16565b8151620001dd90600690602085019062000721565b508051620001f390600790602084019062000721565b506200020f6380ac58cd60e01b6001600160e01b036200030e16565b6200022a635b5e139f60e01b6001600160e01b036200030e16565b6200024563780e9d6360e01b6001600160e01b036200030e16565b505060408051808201909152601381527f44756d6d794d696e7461626c654552433732310000000000000000000000000060208201526200028f906001600160e01b036200039316565b620002b76000620002a86001600160e01b036200043916565b6001600160e01b036200045616565b604080516d5052454449434154455f524f4c4560901b8152905190819003600e019020620002f290620002a86001600160e01b036200043916565b62000306826001600160e01b036200046b16565b5050620007c3565b6001600160e01b031980821614156200036e576040805162461bcd60e51b815260206004820152601c60248201527f4552433136353a20696e76616c696420696e7465726661636520696400000000604482015290519081900360640190fd5b6001600160e01b0319166000908152602081905260409020805460ff19166001179055565b806040516020018082805190602001908083835b60208310620003c85780518252601f199092019160209182019101620003a7565b51815160209384036101000a60001901801990921691161790527f3a20494e53554646494349454e545f5045524d495353494f4e530000000000009190930190815260408051808303600519018152601a90920190528051620004359550600b9450920191905062000721565b5050565b600062000450620004d960201b62001f281760201c565b90505b90565b6200043582826001600160e01b036200053816565b600c5460ff1615620004b5576040805162461bcd60e51b815260206004820152600e60248201526d185b1c9958591e481a5b9a5d195960921b604482015290519081900360640190fd5b620004c9816001600160e01b03620005bc16565b50600c805460ff19166001179055565b600033301415620005335760606000368080601f0160208091040260200160405190810160405280939291908181526020018383808284376000920191909152505050503601516001600160a01b03169150620004539050565b503390565b6000828152600a602090815260409091206200055f9183906200209062000684821b17901c565b156200043557620005786001600160e01b036200043916565b6001600160a01b0316816001600160a01b0316837f2f8788117e7eff1d82e926ec794901d17c78024a50270940304540a733656f0d60405160405180910390a45050565b6040518060800160405280604f8152602001620032c3604f913980516020918201208251838301206040805180820190915260018152603160f81b930192909252907fc89efdaa54c0f20c7adf612882df0950f5a951637e0307cdcb4c672f298b8bc630620006336001600160e01b03620006ad16565b604080516020808201979097528082019590955260608501939093526001600160a01b03909116608084015260a0808401919091528151808403909101815260c090920190528051910120600d5550565b6000620006a4836001600160a01b0384166001600160e01b03620006b116565b90505b92915050565b4690565b6000620006c883836001600160e01b036200070916565b6200070057508154600181810184556000848152602080822090930184905584548482528286019093526040902091909155620006a7565b506000620006a7565b60009081526001919091016020526040902054151590565b828054600181600116156101000203166002900490600052602060002090601f016020900481019282601f106200076457805160ff191683800117855562000794565b8280016001018555821562000794579182015b828111156200079457825182559160200191906001019062000777565b50620007a2929150620007a6565b5090565b6200045391905b80821115620007a25760008155600101620007ad565b612af080620007d36000396000f3fe6080604052600436106101ee5760003560e01c806342842e0e1161010d57806395d89b41116100a0578063c87b56dd1161006f578063c87b56dd1461089e578063ca15c873146108c8578063d547741f146108f2578063e72db5fd1461092b578063e985e9c514610940576101ee565b806395d89b4114610766578063a217fddf1461077b578063a22cb46514610790578063b88d4fde146107cb576101ee565b80636c0360eb116100dc5780636c0360eb146106b557806370a08231146106ca5780639010d07c146106fd57806391d148541461072d576101ee565b806342842e0e146105f45780634f558e79146106375780634f6ccce7146106615780636352211e1461068b576101ee565b806323b872dd116101855780632f745c59116101545780632f745c59146105345780633408e4701461056d57806336568abe1461058257806340c10f19146105bb576101ee565b806323b872dd1461045b578063248a9ca31461049e5780632d0335ab146104c85780632f2ff15d146104fb576101ee565b80630c53c51c116101c15780630c53c51c146103465780630f7e59701461040a57806318160ddd1461041f57806320379ee514610446576101ee565b806301ffc9a7146101f357806306fdde031461023b578063081812fc146102c5578063095ea7b31461030b575b600080fd5b3480156101ff57600080fd5b506102276004803603602081101561021657600080fd5b50356001600160e01b03191661097b565b604080519115158252519081900360200190f35b34801561024757600080fd5b5061025061099e565b6040805160208082528351818301528351919283929083019185019080838360005b8381101561028a578181015183820152602001610272565b50505050905090810190601f1680156102b75780820380516001836020036101000a031916815260200191505b509250505060405180910390f35b3480156102d157600080fd5b506102ef600480360360208110156102e857600080fd5b5035610a34565b604080516001600160a01b039092168252519081900360200190f35b34801561031757600080fd5b506103446004803603604081101561032e57600080fd5b506001600160a01b038135169060200135610a96565b005b610250600480360360a081101561035c57600080fd5b6001600160a01b03823516919081019060408101602082013564010000000081111561038757600080fd5b82018360208201111561039957600080fd5b803590602001918460018302840111640100000000831117156103bb57600080fd5b91908080601f016020809104026020016040519081016040528093929190818152602001838380828437600092019190915250929550508235935050506020810135906040013560ff16610b71565b34801561041657600080fd5b50610250610e74565b34801561042b57600080fd5b50610434610e91565b60408051918252519081900360200190f35b34801561045257600080fd5b50610434610ea2565b34801561046757600080fd5b506103446004803603606081101561047e57600080fd5b506001600160a01b03813581169160208101359091169060400135610ea8565b3480156104aa57600080fd5b50610434600480360360208110156104c157600080fd5b5035610eff565b3480156104d457600080fd5b50610434600480360360208110156104eb57600080fd5b50356001600160a01b0316610f14565b34801561050757600080fd5b506103446004803603604081101561051e57600080fd5b50803590602001356001600160a01b0316610f2f565b34801561054057600080fd5b506104346004803603604081101561055757600080fd5b506001600160a01b038135169060200135610f9b565b34801561057957600080fd5b50610434610fcc565b34801561058e57600080fd5b50610344600480360360408110156105a557600080fd5b50803590602001356001600160a01b0316610fd0565b3480156105c757600080fd5b50610344600480360360408110156105de57600080fd5b506001600160a01b038135169060200135611031565b34801561060057600080fd5b506103446004803603606081101561061757600080fd5b506001600160a01b0381358116916020810135909116906040013561110b565b34801561064357600080fd5b506102276004803603602081101561065a57600080fd5b5035611126565b34801561066d57600080fd5b506104346004803603602081101561068457600080fd5b5035611131565b34801561069757600080fd5b506102ef600480360360208110156106ae57600080fd5b503561114d565b3480156106c157600080fd5b5061025061117b565b3480156106d657600080fd5b50610434600480360360208110156106ed57600080fd5b50356001600160a01b03166111dc565b34801561070957600080fd5b506102ef6004803603604081101561072057600080fd5b5080359060200135611244565b34801561073957600080fd5b506102276004803603604081101561075057600080fd5b50803590602001356001600160a01b0316611262565b34801561077257600080fd5b50610250611280565b34801561078757600080fd5b506104346112e1565b34801561079c57600080fd5b50610344600480360360408110156107b357600080fd5b506001600160a01b03813516906020013515156112e6565b3480156107d757600080fd5b50610344600480360360808110156107ee57600080fd5b6001600160a01b0382358116926020810135909116916040820135919081019060808101606082013564010000000081111561082957600080fd5b82018360208201111561083b57600080fd5b8035906020019184600183028401116401000000008311171561085d57600080fd5b91908080601f0160208091040260200160405190810160405280939291908181526020018383808284376000920191909152509295506113eb945050505050565b3480156108aa57600080fd5b50610250600480360360208110156108c157600080fd5b5035611449565b3480156108d457600080fd5b50610434600480360360208110156108eb57600080fd5b50356116f0565b3480156108fe57600080fd5b506103446004803603604081101561091557600080fd5b50803590602001356001600160a01b0316611707565b34801561093757600080fd5b50610434611760565b34801561094c57600080fd5b506102276004803603604081101561096357600080fd5b506001600160a01b0381358116916020013516611786565b6001600160e01b0319811660009081526020819052604090205460ff165b919050565b60068054604080516020601f6002600019610100600188161502019095169490940493840181900481028201810190925282815260609390929091830182828015610a2a5780601f106109ff57610100808354040283529160200191610a2a565b820191906000526020600020905b815481529060010190602001808311610a0d57829003601f168201915b5050505050905090565b6000610a3f826117b4565b610a7a5760405162461bcd60e51b815260040180806020018281038252602c815260200180612995602c913960400191505060405180910390fd5b506000908152600460205260409020546001600160a01b031690565b6000610aa18261114d565b9050806001600160a01b0316836001600160a01b03161415610af45760405162461bcd60e51b8152600401808060200182810382526021815260200180612a3a6021913960400191505060405180910390fd5b806001600160a01b0316610b066117c7565b6001600160a01b03161480610b275750610b2781610b226117c7565b611786565b610b625760405162461bcd60e51b81526004018080602001828103825260388152602001806128e86038913960400191505060405180910390fd5b610b6c83836117d1565b505050565b6060610b7b612752565b50604080516060810182526001600160a01b0388166000818152600e602090815290849020548352820152908101869052610bb9878287878761183f565b610bf45760405162461bcd60e51b81526004018080602001828103825260218152602001806129ea6021913960400191505060405180910390fd5b6001600160a01b0387166000908152600e6020526040902054610c1e90600163ffffffff61191c16565b6001600160a01b0388166000818152600e602090815260408083209490945583519283523383820181905260609484018581528b51958501959095528a517f5845892132946850460bff5a0083f71031bc5bf9aadcd40f1de79423eac9b10b958d9592948d94919260808501928601918190849084905b83811015610cad578181015183820152602001610c95565b50505050905090810190601f168015610cda5780820380516001836020036101000a031916815260200191505b5094505050505060405180910390a160006060306001600160a01b0316888a6040516020018083805190602001908083835b60208310610d2b5780518252601f199092019160209182019101610d0c565b6001836020036101000a038019825116818451168082178552505050505050905001826001600160a01b03166001600160a01b031660601b8152601401925050506040516020818303038152906040526040518082805190602001908083835b60208310610daa5780518252601f199092019160209182019101610d8b565b6001836020036101000a0380198251168184511680821785525050505050509050019150506000604051808303816000865af19150503d8060008114610e0c576040519150601f19603f3d011682016040523d82523d6000602084013e610e11565b606091505b509150915081610e68576040805162461bcd60e51b815260206004820152601c60248201527f46756e6374696f6e2063616c6c206e6f74207375636365737366756c00000000604482015290519081900360640190fd5b98975050505050505050565b604051806040016040528060018152602001603160f81b81525081565b6000610e9d6002611976565b905090565b600d5490565b610eb9610eb36117c7565b82611981565b610ef45760405162461bcd60e51b8152600401808060200182810382526031815260200180612a5b6031913960400191505060405180910390fd5b610b6c838383611a25565b6000908152600a602052604090206002015490565b6001600160a01b03166000908152600e602052604090205490565b6000828152600a6020526040902060020154610f5290610f4d6117c7565b611262565b610f8d5760405162461bcd60e51b815260040180806020018281038252602f81526020018061279f602f913960400191505060405180910390fd5b610f978282611b83565b5050565b6001600160a01b0382166000908152600160205260408120610fc3908363ffffffff611bf216565b90505b92915050565b4690565b610fd86117c7565b6001600160a01b0316816001600160a01b0316146110275760405162461bcd60e51b815260040180806020018281038252602f815260200180612a8c602f913960400191505060405180910390fd5b610f978282611bfe565b604080516d5052454449434154455f524f4c4560901b8152905190819003600e01902061106081610f4d6117c7565b600b906111005760405162461bcd60e51b81526020600482019081528254600260001961010060018416150201909116046024830181905290918291604490910190849080156110f15780601f106110c6576101008083540402835291602001916110f1565b820191906000526020600020905b8154815290600101906020018083116110d457829003601f168201915b50509250505060405180910390fd5b50610b6c8383611c6d565b610b6c838383604051806020016040528060008152506113eb565b6000610fc6826117b4565b60008061114560028463ffffffff611da716565b509392505050565b6000610fc68260405180606001604052806029815260200161294a602991396002919063ffffffff611dc316565b60098054604080516020601f6002600019610100600188161502019095169490940493840181900481028201810190925282815260609390929091830182828015610a2a5780601f106109ff57610100808354040283529160200191610a2a565b60006001600160a01b0382166112235760405162461bcd60e51b815260040180806020018281038252602a815260200180612920602a913960400191505060405180910390fd5b6001600160a01b0382166000908152600160205260409020610fc690611976565b6000828152600a60205260408120610fc3908363ffffffff611bf216565b6000828152600a60205260408120610fc3908363ffffffff611dda16565b60078054604080516020601f6002600019610100600188161502019095169490940493840181900481028201810190925282815260609390929091830182828015610a2a5780601f106109ff57610100808354040283529160200191610a2a565b600081565b6112ee6117c7565b6001600160a01b0316826001600160a01b03161415611354576040805162461bcd60e51b815260206004820152601960248201527f4552433732313a20617070726f766520746f2063616c6c657200000000000000604482015290519081900360640190fd5b80600560006113616117c7565b6001600160a01b03908116825260208083019390935260409182016000908120918716808252919093529120805460ff1916921515929092179091556113a56117c7565b60408051841515815290516001600160a01b0392909216917f17307eab39ab6107e8899845ad3d59bd9653f200f220920489ca2b5937696c319181900360200190a35050565b6113fc6113f66117c7565b83611981565b6114375760405162461bcd60e51b8152600401808060200182810382526031815260200180612a5b6031913960400191505060405180910390fd5b61144384848484611def565b50505050565b6060611454826117b4565b61148f5760405162461bcd60e51b815260040180806020018281038252602f815260200180612a0b602f913960400191505060405180910390fd5b60008281526008602090815260409182902080548351601f60026000196101006001861615020190931692909204918201849004840281018401909452808452606093928301828280156115245780601f106114f957610100808354040283529160200191611524565b820191906000526020600020905b81548152906001019060200180831161150757829003601f168201915b50506009549394505050506002600019610100600184161502019091160461154d579050610999565b80511561161e5760098160405160200180838054600181600116156101000203166002900480156115b55780601f106115935761010080835404028352918201916115b5565b820191906000526020600020905b8154815290600101906020018083116115a1575b5050825160208401908083835b602083106115e15780518252601f1990920191602091820191016115c2565b6001836020036101000a03801982511681845116808217855250505050505090500192505050604051602081830303815290604052915050610999565b600961162984611e41565b60405160200180838054600181600116156101000203166002900480156116875780601f10611665576101008083540402835291820191611687565b820191906000526020600020905b815481529060010190602001808311611673575b5050825160208401908083835b602083106116b35780518252601f199092019160209182019101611694565b6001836020036101000a03801982511681845116808217855250505050505090500192505050604051602081830303815290604052915050919050565b6000818152600a60205260408120610fc690611976565b6000828152600a602052604090206002015461172590610f4d6117c7565b6110275760405162461bcd60e51b81526004018080602001828103825260308152602001806128936030913960400191505060405180910390fd5b604080516d5052454449434154455f524f4c4560901b8152905190819003600e01902081565b6001600160a01b03918216600090815260056020908152604080832093909416825291909152205460ff1690565b6000610fc660028363ffffffff611f1c16565b6000610e9d611f28565b600081815260046020526040902080546001600160a01b0319166001600160a01b03841690811790915581906118068261114d565b6001600160a01b03167f8c5be1e5ebec7d5bd14f71427d1e84f3dd0314c0f7b2291e5b200ac8c7c3b92560405160405180910390a45050565b60006001600160a01b0386166118865760405162461bcd60e51b81526004018080602001828103825260258152602001806128c36025913960400191505060405180910390fd5b600161189961189487611f86565b612012565b83868660405160008152602001604052604051808581526020018460ff1660ff1681526020018381526020018281526020019450505050506020604051602081039080840390855afa1580156118f3573d6000803e3d6000fd5b505050602060405103516001600160a01b0316866001600160a01b031614905095945050505050565b600082820183811015610fc3576040805162461bcd60e51b815260206004820152601b60248201527f536166654d6174683a206164646974696f6e206f766572666c6f770000000000604482015290519081900360640190fd5b6000610fc68261205e565b600061198c826117b4565b6119c75760405162461bcd60e51b815260040180806020018281038252602c815260200180612867602c913960400191505060405180910390fd5b60006119d28361114d565b9050806001600160a01b0316846001600160a01b03161480611a0d5750836001600160a01b0316611a0284610a34565b6001600160a01b0316145b80611a1d5750611a1d8185611786565b949350505050565b826001600160a01b0316611a388261114d565b6001600160a01b031614611a7d5760405162461bcd60e51b81526004018080602001828103825260298152602001806129c16029913960400191505060405180910390fd5b6001600160a01b038216611ac25760405162461bcd60e51b81526004018080602001828103825260248152602001806128436024913960400191505060405180910390fd5b611acd838383610b6c565b611ad86000826117d1565b6001600160a01b0383166000908152600160205260409020611b00908263ffffffff61206216565b506001600160a01b0382166000908152600160205260409020611b29908263ffffffff61206e16565b50611b3c6002828463ffffffff61207a16565b5080826001600160a01b0316846001600160a01b03167fddf252ad1be2c89b69c2b068fc378daa952ba7f163c4a11628f55a4df523b3ef60405160405180910390a4505050565b6000828152600a60205260409020611ba1908263ffffffff61209016565b15610f9757611bae6117c7565b6001600160a01b0316816001600160a01b0316837f2f8788117e7eff1d82e926ec794901d17c78024a50270940304540a733656f0d60405160405180910390a45050565b6000610fc383836120a5565b6000828152600a60205260409020611c1c908263ffffffff61210916565b15610f9757611c296117c7565b6001600160a01b0316816001600160a01b0316837ff6391f5c32d9c69d2a47ea670b442974b53935d1edc7fd64eb21e047a839171b60405160405180910390a45050565b6001600160a01b038216611cc8576040805162461bcd60e51b815260206004820181905260248201527f4552433732313a206d696e7420746f20746865207a65726f2061646472657373604482015290519081900360640190fd5b611cd1816117b4565b15611d23576040805162461bcd60e51b815260206004820152601c60248201527f4552433732313a20746f6b656e20616c7265616479206d696e74656400000000604482015290519081900360640190fd5b611d2f60008383610b6c565b6001600160a01b0382166000908152600160205260409020611d57908263ffffffff61206e16565b50611d6a6002828463ffffffff61207a16565b5060405181906001600160a01b038416906000907fddf252ad1be2c89b69c2b068fc378daa952ba7f163c4a11628f55a4df523b3ef908290a45050565b6000808080611db6868661211e565b9097909650945050505050565b6000611dd0848484612199565b90505b9392505050565b6000610fc3836001600160a01b038416612263565b611dfa848484611a25565b611e068484848461227b565b6114435760405162461bcd60e51b81526004018080602001828103825260328152602001806127ce6032913960400191505060405180910390fd5b606081611e6657506040805180820190915260018152600360fc1b6020820152610999565b8160005b8115611e7e57600101600a82049150611e6a565b60608167ffffffffffffffff81118015611e9757600080fd5b506040519080825280601f01601f191660200182016040528015611ec2576020820181803683370190505b50859350905060001982015b8315611f1357600a840660300160f81b82828060019003935081518110611ef157fe5b60200101906001600160f81b031916908160001a905350600a84049350611ece565b50949350505050565b6000610fc38383612263565b600033301415611f805760606000368080601f0160208091040260200160405190810160405280939291908181526020018383808284376000920191909152505050503601516001600160a01b03169150611f839050565b50335b90565b600060405180608001604052806043815260200161280060439139805190602001208260000151836020015184604001518051906020012060405160200180858152602001848152602001836001600160a01b03166001600160a01b03168152602001828152602001945050505050604051602081830303815290604052805190602001209050919050565b600061201c610ea2565b82604051602001808061190160f01b81525060020183815260200182815260200192505050604051602081830303815290604052805190602001209050919050565b5490565b6000610fc383836123fb565b6000610fc383836124c1565b6000611dd084846001600160a01b03851661250b565b6000610fc3836001600160a01b0384166124c1565b815460009082106120e75760405162461bcd60e51b815260040180806020018281038252602281526020018061277d6022913960400191505060405180910390fd5b8260000182815481106120f657fe5b9060005260206000200154905092915050565b6000610fc3836001600160a01b0384166123fb565b8154600090819083106121625760405162461bcd60e51b81526004018080602001828103825260228152602001806129736022913960400191505060405180910390fd5b600084600001848154811061217357fe5b906000526020600020906002020190508060000154816001015492509250509250929050565b600082815260018401602052604081205482816122345760405162461bcd60e51b81526004018080602001828103825283818151815260200191508051906020019080838360005b838110156121f95781810151838201526020016121e1565b50505050905090810190601f1680156122265780820380516001836020036101000a031916815260200191505b509250505060405180910390fd5b5084600001600182038154811061224757fe5b9060005260206000209060020201600101549150509392505050565b60009081526001919091016020526040902054151590565b600061228f846001600160a01b03166125a2565b61229b57506001611a1d565b60606123c1630a85bd0160e11b6122b06117c7565b88878760405160240180856001600160a01b03166001600160a01b03168152602001846001600160a01b03166001600160a01b0316815260200183815260200180602001828103825283818151815260200191508051906020019080838360005b83811015612329578181015183820152602001612311565b50505050905090810190601f1680156123565780820380516001836020036101000a031916815260200191505b5095505050505050604051602081830303815290604052906001600160e01b0319166020820180516001600160e01b0383818316178352505050506040518060600160405280603281526020016127ce603291396001600160a01b038816919063ffffffff6125db16565b905060008180602001905160208110156123da57600080fd5b50516001600160e01b031916630a85bd0160e11b1492505050949350505050565b600081815260018301602052604081205480156124b7578354600019808301919081019060009087908390811061242e57fe5b906000526020600020015490508087600001848154811061244b57fe5b60009182526020808320909101929092558281526001898101909252604090209084019055865487908061247b57fe5b60019003818190600052602060002001600090559055866001016000878152602001908152602001600020600090556001945050505050610fc6565b6000915050610fc6565b60006124cd8383612263565b61250357508154600181810184556000848152602080822090930184905584548482528286019093526040902091909155610fc6565b506000610fc6565b600082815260018401602052604081205480612570575050604080518082018252838152602080820184815286546001818101895560008981528481209551600290930290950191825591519082015586548684528188019092529290912055611dd3565b8285600001600183038154811061258357fe5b9060005260206000209060020201600101819055506000915050611dd3565b6000813f7fc5d2460186f7233c927e7db2dcc703c0e500b653ca82273b7bfad8045d85a470818114801590611a1d575050151592915050565b6060611dd0848460008560606125f0856125a2565b612641576040805162461bcd60e51b815260206004820152601d60248201527f416464726573733a2063616c6c20746f206e6f6e2d636f6e7472616374000000604482015290519081900360640190fd5b60006060866001600160a01b031685876040518082805190602001908083835b602083106126805780518252601f199092019160209182019101612661565b6001836020036101000a03801982511681845116808217855250505050505090500191505060006040518083038185875af1925050503d80600081146126e2576040519150601f19603f3d011682016040523d82523d6000602084013e6126e7565b606091505b509150915081156126fb579150611a1d9050565b80511561270b5780518082602001fd5b60405162461bcd60e51b81526020600482018181528651602484015286518793919283926044019190850190808383600083156121f95781810151838201526020016121e1565b60405180606001604052806000815260200160006001600160a01b0316815260200160608152509056fe456e756d657261626c655365743a20696e646578206f7574206f6620626f756e6473416363657373436f6e74726f6c3a2073656e646572206d75737420626520616e2061646d696e20746f206772616e744552433732313a207472616e7366657220746f206e6f6e20455243373231526563656976657220696d706c656d656e7465724d6574615472616e73616374696f6e2875696e74323536206e6f6e63652c616464726573732066726f6d2c62797465732066756e6374696f6e5369676e6174757265294552433732313a207472616e7366657220746f20746865207a65726f20616464726573734552433732313a206f70657261746f7220717565727920666f72206e6f6e6578697374656e7420746f6b656e416363657373436f6e74726f6c3a2073656e646572206d75737420626520616e2061646d696e20746f207265766f6b654e61746976654d6574615472616e73616374696f6e3a20494e56414c49445f5349474e45524552433732313a20617070726f76652063616c6c6572206973206e6f74206f776e6572206e6f7220617070726f76656420666f7220616c6c4552433732313a2062616c616e636520717565727920666f7220746865207a65726f20616464726573734552433732313a206f776e657220717565727920666f72206e6f6e6578697374656e7420746f6b656e456e756d657261626c654d61703a20696e646578206f7574206f6620626f756e64734552433732313a20617070726f76656420717565727920666f72206e6f6e6578697374656e7420746f6b656e4552433732313a207472616e73666572206f6620746f6b656e2074686174206973206e6f74206f776e5369676e657220616e64207369676e617475726520646f206e6f74206d617463684552433732314d657461646174613a2055524920717565727920666f72206e6f6e6578697374656e7420746f6b656e4552433732313a20617070726f76616c20746f2063757272656e74206f776e65724552433732313a207472616e736665722063616c6c6572206973206e6f74206f776e6572206e6f7220617070726f766564416363657373436f6e74726f6c3a2063616e206f6e6c792072656e6f756e636520726f6c657320666f722073656c66a2646970667358221220a65fb7a9763d05071f3e6a6cd7e5f69280feb7e42fff8e05db0cf3809299805764736f6c63430006060033454950373132446f6d61696e28737472696e67206e616d652c737472696e672076657273696f6e2c6164647265737320766572696679696e67436f6e74726163742c627974657333322073616c7429",
  "linkReferences": {},
  "deployedLinkReferences": {}
}