{
  "_format": "hh-sol-artifact-1",
  "contractName": "ATokenRootChainManager",
  "sourceName": "contracts/root/RootChainManager/ATokenRootChainManager.sol",
  "abi": [
    {
      "anonymous": false,
      "inputs": [
        {
          "indexed": true,
          "internalType": "address",
          "name": "depositor",
          "type": "address"
        },
        {
          "indexed": true,
          "internalType": "address",
          "name": "depositReceiver",
          "type": "address"
        },
        {
          "indexed": true,
          "internalType": "address",
          "name": "rootToken",
          "type": "address"
        },
        {
          "indexed": false,
          "internalType": "uint256",
          "name": "amount",
          "type": "uint256"
        }
      ],
      "name": "LockedERC20",
      "type": "event"
    },
    {
      "anonymous": false,
      "inputs": [
        {
          "indexed": false,
          "internalType": "address",
          "name": "userAddress",
          "type": "address"
        },
        {
          "indexed": false,
          "internalType": "address payable",
          "name": "relayerAddress",
          "type": "address"
        },
        {
          "indexed": false,
          "internalType": "bytes",
          "name": "functionSignature",
          "type": "bytes"
        }
      ],
      "name": "MetaTransactionExecuted",
      "type": "event"
    },
    {
      "anonymous": false,
      "inputs": [
        {
          "indexed": true,
          "internalType": "address",
          "name": "_previousMapper",
          "type": "address"
        },
        {
          "indexed": true,
          "internalType": "address",
          "name": "_newMapper",
          "type": "address"
        }
      ],
      "name": "SetMapper",
      "type": "event"
    },
    {
      "anonymous": false,
      "inputs": [
        {
          "indexed": true,
          "internalType": "address",
          "name": "_previousOwner",
          "type": "address"
        },
        {
          "indexed": true,
          "internalType": "address",
          "name": "_newOwner",
          "type": "address"
        }
      ],
      "name": "SetOwner",
      "type": "event"
    },
    {
      "anonymous": false,
      "inputs": [
        {
          "indexed": true,
          "internalType": "address",
          "name": "rootToken",
          "type": "address"
        },
        {
          "indexed": true,
          "internalType": "address",
          "name": "childToken",
          "type": "address"
        },
        {
          "indexed": true,
          "internalType": "bytes32",
          "name": "tokenType",
          "type": "bytes32"
        }
      ],
      "name": "TokenMapped",
      "type": "event"
    },
    {
      "inputs": [],
      "name": "DEPOSIT",
      "outputs": [
        {
          "internalType": "bytes32",
          "name": "",
          "type": "bytes32"
        }
      ],
      "stateMutability": "view",
      "type": "function"
    },
    {
      "inputs": [],
      "name": "ERC712_VERSION",
      "outputs": [
        {
          "internalType": "string",
          "name": "",
          "type": "string"
        }
      ],
      "stateMutability": "view",
      "type": "function"
    },
    {
      "inputs": [],
      "name": "MAPPER_ROLE",
      "outputs": [
        {
          "internalType": "bytes32",
          "name": "",
          "type": "bytes32"
        }
      ],
      "stateMutability": "view",
      "type": "function"
    },
    {
      "inputs": [],
      "name": "MAP_TOKEN",
      "outputs": [
        {
          "internalType": "bytes32",
          "name": "",
          "type": "bytes32"
        }
      ],
      "stateMutability": "view",
      "type": "function"
    },
    {
      "inputs": [],
      "name": "TRANSFER_EVENT_SIG",
      "outputs": [
        {
          "internalType": "bytes32",
          "name": "",
          "type": "bytes32"
        }
      ],
      "stateMutability": "view",
      "type": "function"
    },
    {
      "inputs": [],
      "name": "checkpointManagerAddress",
      "outputs": [
        {
          "internalType": "address",
          "name": "",
          "type": "address"
        }
      ],
      "stateMutability": "view",
      "type": "function"
    },
    {
      "inputs": [
        {
          "internalType": "address",
          "name": "_childToken",
          "type": "address"
        }
      ],
      "name": "childToRootToken",
      "outputs": [
        {
          "internalType": "address",
          "name": "",
          "type": "address"
        }
      ],
      "stateMutability": "view",
      "type": "function"
    },
    {
      "inputs": [
        {
          "internalType": "address",
          "name": "rootToken",
          "type": "address"
        }
      ],
      "name": "childTokenAddress",
      "outputs": [
        {
          "internalType": "address",
          "name": "childToken_",
          "type": "address"
        }
      ],
      "stateMutability": "view",
      "type": "function"
    },
    {
      "inputs": [
        {
          "internalType": "address",
          "name": "user",
          "type": "address"
        },
        {
          "internalType": "address",
          "name": "rootToken",
          "type": "address"
        },
        {
          "internalType": "bytes",
          "name": "depositData",
          "type": "bytes"
        }
      ],
      "name": "depositFor",
      "outputs": [],
      "stateMutability": "nonpayable",
      "type": "function"
    },
    {
      "inputs": [
        {
          "internalType": "address",
          "name": "userAddress",
          "type": "address"
        },
        {
          "internalType": "bytes",
          "name": "functionSignature",
          "type": "bytes"
        },
        {
          "internalType": "bytes32",
          "name": "sigR",
          "type": "bytes32"
        },
        {
          "internalType": "bytes32",
          "name": "sigS",
          "type": "bytes32"
        },
        {
          "internalType": "uint8",
          "name": "sigV",
          "type": "uint8"
        }
      ],
      "name": "executeMetaTransaction",
      "outputs": [
        {
          "internalType": "bytes",
          "name": "",
          "type": "bytes"
        }
      ],
      "stateMutability": "payable",
      "type": "function"
    },
    {
      "inputs": [
        {
          "internalType": "bytes",
          "name": "inputData",
          "type": "bytes"
        }
      ],
      "name": "exit",
      "outputs": [],
      "stateMutability": "nonpayable",
      "type": "function"
    },
    {
      "inputs": [
        {
          "internalType": "address",
          "name": "_aTokenAddress",
          "type": "address"
        },
        {
          "internalType": "uint256",
          "name": "_maTokenValue",
          "type": "uint256"
        }
      ],
      "name": "getATokenValue",
      "outputs": [
        {
          "internalType": "uint256",
          "name": "aTokenValue_",
          "type": "uint256"
        }
      ],
      "stateMutability": "view",
      "type": "function"
    },
    {
      "inputs": [],
      "name": "getChainId",
      "outputs": [
        {
          "internalType": "uint256",
          "name": "",
          "type": "uint256"
        }
      ],
      "stateMutability": "pure",
      "type": "function"
    },
    {
      "inputs": [],
      "name": "getDomainSeperator",
      "outputs": [
        {
          "internalType": "bytes32",
          "name": "",
          "type": "bytes32"
        }
      ],
      "stateMutability": "view",
      "type": "function"
    },
    {
      "inputs": [
        {
          "internalType": "address",
          "name": "_aTokenAddress",
          "type": "address"
        },
        {
          "internalType": "uint256",
          "name": "_aTokenValue",
          "type": "uint256"
        }
      ],
      "name": "getMATokenValue",
      "outputs": [
        {
          "internalType": "uint256",
          "name": "maTokenValue_",
          "type": "uint256"
        }
      ],
      "stateMutability": "view",
      "type": "function"
    },
    {
      "inputs": [
        {
          "internalType": "address",
          "name": "user",
          "type": "address"
        }
      ],
      "name": "getNonce",
      "outputs": [
        {
          "internalType": "uint256",
          "name": "nonce",
          "type": "uint256"
        }
      ],
      "stateMutability": "view",
      "type": "function"
    },
    {
      "inputs": [
        {
          "internalType": "uint256",
          "name": "",
          "type": "uint256"
        }
      ],
      "name": "headerBlocks",
      "outputs": [
        {
          "internalType": "bytes32",
          "name": "root",
          "type": "bytes32"
        },
        {
          "internalType": "uint256",
          "name": "start",
          "type": "uint256"
        },
        {
          "internalType": "uint256",
          "name": "end",
          "type": "uint256"
        },
        {
          "internalType": "uint256",
          "name": "createdAt",
          "type": "uint256"
        },
        {
          "internalType": "address",
          "name": "proposer",
          "type": "address"
        }
      ],
      "stateMutability": "view",
      "type": "function"
    },
    {
      "inputs": [
        {
          "internalType": "address",
          "name": "_owner",
          "type": "address"
        },
        {
          "internalType": "address",
          "name": "_stateSender",
          "type": "address"
        },
        {
          "internalType": "address",
          "name": "_checkpointManager",
          "type": "address"
        },
        {
          "internalType": "address",
          "name": "_childChainManagerAddress",
          "type": "address"
        },
        {
          "internalType": "bytes32",
          "name": "_childTokenBytecodeHash",
          "type": "bytes32"
        }
      ],
      "name": "initialize",
      "outputs": [],
      "stateMutability": "nonpayable",
      "type": "function"
    },
    {
      "inputs": [
        {
          "internalType": "address",
          "name": "rootToken",
          "type": "address"
        }
      ],
      "name": "mapToken",
      "outputs": [],
      "stateMutability": "nonpayable",
      "type": "function"
    },
    {
      "inputs": [],
      "name": "mapper",
      "outputs": [
        {
          "internalType": "address",
          "name": "",
          "type": "address"
        }
      ],
      "stateMutability": "view",
      "type": "function"
    },
    {
      "inputs": [],
      "name": "owner",
      "outputs": [
        {
          "internalType": "address",
          "name": "",
          "type": "address"
        }
      ],
      "stateMutability": "view",
      "type": "function"
    },
    {
      "inputs": [
        {
          "internalType": "bytes32",
          "name": "_exitHash",
          "type": "bytes32"
        }
      ],
      "name": "processedExits",
      "outputs": [
        {
          "internalType": "bool",
          "name": "",
          "type": "bool"
        }
      ],
      "stateMutability": "view",
      "type": "function"
    },
    {
      "inputs": [
        {
          "internalType": "address",
          "name": "rootToken",
          "type": "address"
        }
      ],
      "name": "remapToken",
      "outputs": [],
      "stateMutability": "nonpayable",
      "type": "function"
    },
    {
      "inputs": [
        {
          "internalType": "address",
          "name": "_rootToken",
          "type": "address"
        }
      ],
      "name": "rootToChildToken",
      "outputs": [
        {
          "internalType": "address",
          "name": "",
          "type": "address"
        }
      ],
      "stateMutability": "view",
      "type": "function"
    },
    {
      "inputs": [
        {
          "internalType": "address",
          "name": "newCheckpointManager",
          "type": "address"
        }
      ],
      "name": "setCheckpointManager",
      "outputs": [],
      "stateMutability": "nonpayable",
      "type": "function"
    },
    {
      "inputs": [
        {
          "internalType": "address",
          "name": "newChildChainManager",
          "type": "address"
        }
      ],
      "name": "setChildChainManagerAddress",
      "outputs": [],
      "stateMutability": "nonpayable",
      "type": "function"
    },
    {
      "inputs": [
        {
          "internalType": "address",
          "name": "newChildChainManager",
          "type": "address"
        },
        {
          "internalType": "bytes32",
          "name": "newChildTokenBytecodeHash",
          "type": "bytes32"
        }
      ],
      "name": "setChildChainManagerAddressAndChildTokenBytecodeHash",
      "outputs": [],
      "stateMutability": "nonpayable",
      "type": "function"
    },
    {
      "inputs": [
        {
          "internalType": "bytes32",
          "name": "newChildTokenBytecodeHash",
          "type": "bytes32"
        }
      ],
      "name": "setChildTokenBytecodeHash",
      "outputs": [],
      "stateMutability": "nonpayable",
      "type": "function"
    },
    {
      "inputs": [
        {
          "internalType": "address",
          "name": "_newMapper",
          "type": "address"
        }
      ],
      "name": "setMapper",
      "outputs": [],
      "stateMutability": "nonpayable",
      "type": "function"
    },
    {
      "inputs": [
        {
          "internalType": "address",
          "name": "_newOwner",
          "type": "address"
        }
      ],
      "name": "setOwner",
      "outputs": [],
      "stateMutability": "nonpayable",
      "type": "function"
    },
    {
      "inputs": [
        {
          "internalType": "address",
          "name": "newStateSender",
          "type": "address"
        }
      ],
      "name": "setStateSender",
      "outputs": [],
      "stateMutability": "nonpayable",
      "type": "function"
    },
    {
      "inputs": [],
      "name": "stateSender",
      "outputs": [
        {
          "internalType": "address",
          "name": "",
          "type": "address"
        }
      ],
      "stateMutability": "view",
      "type": "function"
    },
    {
      "inputs": [],
      "name": "stateSenderAddress",
      "outputs": [
        {
          "internalType": "address",
          "name": "",
          "type": "address"
        }
      ],
      "stateMutability": "view",
      "type": "function"
    },
    {
      "stateMutability": "payable",
      "type": "receive"
    }
  ],
  "bytecode": "0x60806040526001805460ff1916905534801561001a57600080fd5b506146988061002a6000396000f3fe6080604052600436106101f15760003560e01c80636cb136b01161010d578063c38a960e116100a0578063dc993a231161006f578063dc993a2314610857578063e2c49de114610803578063e3dec8fb1461088a578063ea60c7c414610954578063f4a120f7146109875761022d565b8063c38a960e146107d0578063cb10f94c14610803578063d45d760e14610818578063d81c8e52146108425761022d565b80638da5cb5b116100dc5780638da5cb5b1461073a5780639b2492c81461074f578063b017a30f14610788578063bc08452b1461079d5761022d565b80636cb136b0146106865780636e86b770146106b9578063886a69ba146106ec57806389d60963146107015761022d565b80632d0335ab1161018557806341539d4a1161015457806341539d4a146105c0578063568b80b51461061e578063607f2d421461063357806362f4f6a2146106715761022d565b80632d0335ab146104e85780633138b6f11461051b5780633408e470146105305780633805550f146105455761022d565b806313af4035116101c157806313af4035146104085780631d97c02b1461043b57806320379ee51461046e578063297a3e57146104955761022d565b8062561b7c146102325780630c53c51c1461026d5780630f7e5970146103a45780631116f918146103b95761022d565b3661022d5760405162461bcd60e51b81526004018080602001828103825260228152602001806142d86022913960400191505060405180910390fd5b600080fd5b34801561023e57600080fd5b5061026b6004803603604081101561025557600080fd5b506001600160a01b0381351690602001356109ba565b005b61032f600480360360a081101561028357600080fd5b6001600160a01b038235169190810190604081016020820135600160201b8111156102ad57600080fd5b8201836020820111156102bf57600080fd5b803590602001918460018302840111600160201b831117156102e057600080fd5b91908080601f016020809104026020016040519081016040528093929190818152602001838380828437600092019190915250929550508235935050506020810135906040013560ff16610a83565b6040805160208082528351818301528351919283929083019185019080838360005b83811015610369578181015183820152602001610351565b50505050905090810190601f1680156103965780820380516001836020036101000a031916815260200191505b509250505060405180910390f35b3480156103b057600080fd5b5061032f610d86565b3480156103c557600080fd5b506103ec600480360360208110156103dc57600080fd5b50356001600160a01b0316610da3565b604080516001600160a01b039092168252519081900360200190f35b34801561041457600080fd5b5061026b6004803603602081101561042b57600080fd5b50356001600160a01b0316610e08565b34801561044757600080fd5b5061026b6004803603602081101561045e57600080fd5b50356001600160a01b0316610ec2565b34801561047a57600080fd5b50610483611057565b60408051918252519081900360200190f35b3480156104a157600080fd5b5061026b600480360360a08110156104b857600080fd5b506001600160a01b038135811691602081013582169160408201358116916060810135909116906080013561105d565b3480156104f457600080fd5b506104836004803603602081101561050b57600080fd5b50356001600160a01b031661115a565b34801561052757600080fd5b506103ec611175565b34801561053c57600080fd5b50610483611184565b34801561055157600080fd5b5061026b6004803603602081101561056857600080fd5b810190602081018135600160201b81111561058257600080fd5b82018360208201111561059457600080fd5b803590602001918460018302840111600160201b831117156105b557600080fd5b509092509050611188565b3480156105cc57600080fd5b506105ea600480360360208110156105e357600080fd5b5035611577565b6040805195865260208601949094528484019290925260608401526001600160a01b03166080830152519081900360a00190f35b34801561062a57600080fd5b506104836115af565b34801561063f57600080fd5b5061065d6004803603602081101561065657600080fd5b50356115d2565b604080519115158252519081900360200190f35b34801561067d57600080fd5b506103ec6115ea565b34801561069257600080fd5b5061026b600480360360208110156106a957600080fd5b50356001600160a01b03166115f9565b3480156106c557600080fd5b506103ec600480360360208110156106dc57600080fd5b50356001600160a01b031661167f565b3480156106f857600080fd5b5061048361169d565b34801561070d57600080fd5b506104836004803603604081101561072457600080fd5b506001600160a01b0381351690602001356116be565b34801561074657600080fd5b506103ec61182a565b34801561075b57600080fd5b506104836004803603604081101561077257600080fd5b506001600160a01b038135169060200135611839565b34801561079457600080fd5b5061048361199c565b3480156107a957600080fd5b5061026b600480360360208110156107c057600080fd5b50356001600160a01b03166119c0565b3480156107dc57600080fd5b5061026b600480360360208110156107f357600080fd5b50356001600160a01b0316611a40565b34801561080f57600080fd5b506103ec611afa565b34801561082457600080fd5b5061026b6004803603602081101561083b57600080fd5b5035611b0e565b34801561084e57600080fd5b50610483611b71565b34801561086357600080fd5b5061026b6004803603602081101561087a57600080fd5b50356001600160a01b0316611b90565b34801561089657600080fd5b5061026b600480360360608110156108ad57600080fd5b6001600160a01b038235811692602081013590911691810190606081016040820135600160201b8111156108e057600080fd5b8201836020820111156108f257600080fd5b803590602001918460018302840111600160201b8311171561091357600080fd5b91908080601f016020809104026020016040519081016040528093929190818152602001838380828437600092019190915250929550611c55945050505050565b34801561096057600080fd5b506103ec6004803603602081101561097757600080fd5b50356001600160a01b0316612064565b34801561099357600080fd5b5061026b600480360360208110156109aa57600080fd5b50356001600160a01b0316612082565b600b546001600160a01b03166109ce61216c565b6001600160a01b031614610a18576040805162461bcd60e51b815260206004820152600c60248201526b24b9903737ba1037bbb732b960a11b604482015290519081900360640190fd5b6001600160a01b038216610a5d5760405162461bcd60e51b81526004018080602001828103825260338152602001806145186033913960400191505060405180910390fd5b600980546001600160a01b0319166001600160a01b039390931692909217909155600a55565b6060610a8d6141d4565b50604080516060810182526001600160a01b03881660008181526003602090815290849020548352820152908101869052610acb87828787876121ca565b610b065760405162461bcd60e51b81526004018080602001828103825260218152602001806144f76021913960400191505060405180910390fd5b6001600160a01b038716600090815260036020526040902054610b3090600163ffffffff6122a716565b6001600160a01b03881660008181526003602090815260408083209490945583519283523383820181905260609484018581528b51958501959095528a517f5845892132946850460bff5a0083f71031bc5bf9aadcd40f1de79423eac9b10b958d9592948d94919260808501928601918190849084905b83811015610bbf578181015183820152602001610ba7565b50505050905090810190601f168015610bec5780820380516001836020036101000a031916815260200191505b5094505050505060405180910390a160006060306001600160a01b0316888a6040516020018083805190602001908083835b60208310610c3d5780518252601f199092019160209182019101610c1e565b6001836020036101000a038019825116818451168082178552505050505050905001826001600160a01b03166001600160a01b031660601b8152601401925050506040516020818303038152906040526040518082805190602001908083835b60208310610cbc5780518252601f199092019160209182019101610c9d565b6001836020036101000a0380198251168184511680821785525050505050509050019150506000604051808303816000865af19150503d8060008114610d1e576040519150601f19603f3d011682016040523d82523d6000602084013e610d23565b606091505b509150915081610d7a576040805162461bcd60e51b815260206004820152601c60248201527f46756e6374696f6e2063616c6c206e6f74207375636365737366756c00000000604482015290519081900360640190fd5b98975050505050505050565b604051806040016040528060018152602001603160f81b81525081565b600954600a54604080516001600160f81b03196020808301919091526bffffffffffffffffffffffff19606095861b811660218401529590941b9094166035850152605580850192909252805180850390920182526075909301909252815191012090565b600b546001600160a01b0316610e1c61216c565b6001600160a01b031614610e66576040805162461bcd60e51b815260206004820152600c60248201526b24b9903737ba1037bbb732b960a11b604482015290519081900360640190fd5b600b546040516001600160a01b038084169216907fcbf985117192c8f614a58aaf97226bb80a754772f5f6edf06f87c675f2e6c66390600090a3600b80546001600160a01b0319166001600160a01b0392909216919091179055565b6000610ecc61216c565b600c549091506001600160a01b0380831691161480610ef85750600b546001600160a01b038281169116145b610f39576040805162461bcd60e51b815260206004820152600d60248201526c24b9903737ba1036b0b83832b960991b604482015290519081900360640190fd5b6000610f4483610da3565b6001600160a01b03808516600090815260046020526040902054919250908116908216811415610fa55760405162461bcd60e51b815260040180806020018281038252602f815260200180614219602f913960400191505060405180910390fd5b6001600160a01b03808316600090815260056020908152604080832054841680845260049092529091205490911615610fff576001600160a01b038116600090815260046020526040902080546001600160a01b03191690555b6001600160a01b038281166000908152600560205260409020541615611046576001600160a01b038216600090815260056020526040902080546001600160a01b03191690555b611050858461230a565b5050505050565b60025490565b60075460ff16156110a6576040805162461bcd60e51b815260206004820152600e60248201526d185b1c9958591e481a5b9a5d195960921b604482015290519081900360640190fd5b6007805460ff1916600117905560408051808201909152601681527520aa37b5b2b72937b7ba21b430b4b726b0b730b3b2b960511b60208201526110e9906129b0565b600b80546001600160a01b03199081166001600160a01b03978816908117909255600c8054821690921790915560078054610100600160a81b031916610100968816969096029590951790945560088054851693861693909317909255600980549093169316929092179055600a55565b6001600160a01b031660009081526003602052604090205490565b6008546001600160a01b031690565b4690565b60606111d16111cc84848080601f016020809104026020016040519081016040528093929190818152602001838380828437600092019190915250612a1192505050565b612a8c565b905060006111f2826002815181106111e557fe5b6020026020010151612c0e565b6112176112128460088151811061120557fe5b6020026020010151612d56565b612e20565b611227846009815181106111e557fe5b6040516020018084815260200183805190602001908083835b6020831061125f5780518252601f199092019160209182019101611240565b51815160209384036101000a6000190180199092169116179052920193845250604080518085038152938201815283519382019390932060008181526006909252929020549194505060ff161591506112eb90505760405162461bcd60e51b815260040180806020018281038252602e8152602001806144a3602e913960400191505060405180910390fd5b6000818152600660208190526040909120805460ff191660011790558251606091611328916111cc9161132391879190811061120557fe5b612a11565b90506113326141fe565b61134f8260038151811061134257fe5b6020026020010151612a8c565b61135f856009815181106111e557fe5b8151811061136957fe5b60200260200101519050600061139a61138183612a8c565b60008151811061138d57fe5b6020026020010151612f93565b6001600160a01b0380821660009081526005602052604090205491925016806113f45760405162461bcd60e51b81526004018080602001828103825260288152602001806142b06028913960400191505060405180910390fd5b611404866008815181106111e557fe5b63ffffffff1916156114475760405162461bcd60e51b815260040180806020018281038252602b815260200180614478602b913960400191505060405180910390fd5b61148f61145a8760068151811061120557fe5b61146a8860088151811061120557fe5b61147a8960078151811061120557fe5b61148a8a6005815181106111e557fe5b613023565b6114ca5760405162461bcd60e51b81526004018080602001828103825260258152602001806143df6025913960400191505060405180910390fd5b6115386114dd876002815181106111e557fe5b6114ed886003815181106111e557fe5b6114fd896004815181106111e557fe5b60001b6115108a6005815181106111e557fe5b60001b6115238b6000815181106111e557fe5b6115338c60018151811061120557fe5b61326a565b5061156d61154461216c565b6001600160a01b03808516600090815260056020526040902054166115688661339d565b61340b565b5050505050505050565b60006020819052908152604090208054600182015460028301546003840154600490940154929391929091906001600160a01b031685565b604080516a4d41505045525f524f4c4560a81b8152905190819003600b01902081565b60008181526006602052604090205460ff165b919050565b600c546001600160a01b031690565b600b546001600160a01b031661160d61216c565b6001600160a01b031614611657576040805162461bcd60e51b815260206004820152600c60248201526b24b9903737ba1037bbb732b960a11b604482015290519081900360640190fd5b600780546001600160a01b0390921661010002610100600160a81b0319909216919091179055565b6001600160a01b039081166000908152600560205260409020541690565b604080516826a0a82faa27a5a2a760b91b8152905190819003600901902081565b600080836001600160a01b0316637535d2466040518163ffffffff1660e01b815260040160206040518083038186803b1580156116fa57600080fd5b505afa15801561170e573d6000803e3d6000fd5b505050506040513d602081101561172457600080fd5b5051604080516358b50cef60e11b815290519192506000916001600160a01b038085169263d15e0053929189169163b16a19de91600480820192602092909190829003018186803b15801561177857600080fd5b505afa15801561178c573d6000803e3d6000fd5b505050506040513d60208110156117a257600080fd5b5051604080516001600160e01b031960e085901b1681526001600160a01b039092166004830152516024808301926020929190829003018186803b1580156117e957600080fd5b505afa1580156117fd573d6000803e3d6000fd5b505050506040513d602081101561181357600080fd5b50519050611821848261354f565b95945050505050565b600b546001600160a01b031690565b600080836001600160a01b0316637535d2466040518163ffffffff1660e01b815260040160206040518083038186803b15801561187557600080fd5b505afa158015611889573d6000803e3d6000fd5b505050506040513d602081101561189f57600080fd5b5051604080516358b50cef60e11b815290519192506000916001600160a01b038085169263d15e0053929189169163b16a19de91600480820192602092909190829003018186803b1580156118f357600080fd5b505afa158015611907573d6000803e3d6000fd5b505050506040513d602081101561191d57600080fd5b5051604080516001600160e01b031960e085901b1681526001600160a01b039092166004830152516024808301926020929190829003018186803b15801561196457600080fd5b505afa158015611978573d6000803e3d6000fd5b505050506040513d602081101561198e57600080fd5b505190506118218482613657565b7fddf252ad1be2c89b69c2b068fc378daa952ba7f163c4a11628f55a4df523b3ef81565b600b546001600160a01b03166119d461216c565b6001600160a01b031614611a1e576040805162461bcd60e51b815260206004820152600c60248201526b24b9903737ba1037bbb732b960a11b604482015290519081900360640190fd5b600880546001600160a01b0319166001600160a01b0392909216919091179055565b600b546001600160a01b0316611a5461216c565b6001600160a01b031614611a9e576040805162461bcd60e51b815260206004820152600c60248201526b24b9903737ba1037bbb732b960a11b604482015290519081900360640190fd5b600c546040516001600160a01b038084169216907fc3ccb9ca599457fe5a9bb338f84c2f853b1898c3a6e7eba842d95b0f017a7fa190600090a3600c80546001600160a01b0319166001600160a01b0392909216919091179055565b60075461010090046001600160a01b031690565b600b546001600160a01b0316611b2261216c565b6001600160a01b031614611b6c576040805162461bcd60e51b815260206004820152600c60248201526b24b9903737ba1037bbb732b960a11b604482015290519081900360640190fd5b600a55565b604080516611115413d4d25560ca1b8152905190819003600701902081565b600b546001600160a01b0316611ba461216c565b6001600160a01b031614611bee576040805162461bcd60e51b815260206004820152600c60248201526b24b9903737ba1037bbb732b960a11b604482015290519081900360640190fd5b6001600160a01b038116611c335760405162461bcd60e51b81526004018080602001828103825260338152602001806145186033913960400191505060405180910390fd5b600980546001600160a01b0319166001600160a01b0392909216919091179055565b6001600160a01b0382811660009081526004602052604090205416611cab5760405162461bcd60e51b81526004018080602001828103825260288152602001806142b06028913960400191505060405180910390fd5b6001600160a01b038316611cf05760405162461bcd60e51b81526004018080602001828103825260248152602001806142fa6024913960400191505060405180910390fd5b6000818060200190516020811015611d0757600080fd5b505190506000611d1561216c565b9050836001600160a01b0316856001600160a01b0316826001600160a01b03167f9b217a401a5ddf7c4d474074aff9958a18d48690d77cc2151c4706aa7348b401856040518082815260200191505060405180910390a4611d876001600160a01b03851682308563ffffffff61372d16565b6000611d9385846116be565b905060008451905060208501945060208103855281856040516020018083815260200182805190602001908083835b60208310611de15780518252601f199092019160209182019101611dc2565b6001836020036101000a038019825116818451168082178552505050505050905001925050506040516020818303038152906040529450606087878760405160200180846001600160a01b03166001600160a01b03168152602001836001600160a01b03166001600160a01b0316815260200180602001828103825283818151815260200191508051906020019080838360005b83811015611e8d578181015183820152602001611e75565b50505050905090810190601f168015611eba5780820380516001836020036101000a031916815260200191505b5060408051808303601f19018152828252600780546009546611115413d4d25560ca1b865284519586900390920185206020808701828152878701968752855160608901528551959d506101009093046001600160a01b039081169c506316f198319b50909316985096508a955093608001919085019080838360005b83811015611f4f578181015183820152602001611f37565b50505050905090810190601f168015611f7c5780820380516001836020036101000a031916815260200191505b5093505050506040516020818303038152906040526040518363ffffffff1660e01b815260040180836001600160a01b03166001600160a01b0316815260200180602001828103825283818151815260200191508051906020019080838360005b83811015611ff5578181015183820152602001611fdd565b50505050905090810190601f1680156120225780820380516001836020036101000a031916815260200191505b509350505050600060405180830381600087803b15801561204257600080fd5b505af1158015612056573d6000803e3d6000fd5b505050505050505050505050565b6001600160a01b039081166000908152600460205260409020541690565b600061208c61216c565b600c549091506001600160a01b03808316911614806120b85750600b546001600160a01b038281169116145b6120f9576040805162461bcd60e51b815260206004820152600d60248201526c24b9903737ba1036b0b83832b960991b604482015290519081900360640190fd5b6001600160a01b0382811660009081526004602052604090205416156121505760405162461bcd60e51b815260040180806020018281038252602681526020018061436d6026913960400191505060405180910390fd5b600061215b83610da3565b9050612167838261230a565b505050565b6000333014156121c45760606000368080601f0160208091040260200160405190810160405280939291908181526020018383808284376000920191909152505050503601516001600160a01b031691506121c79050565b50335b90565b60006001600160a01b0386166122115760405162461bcd60e51b81526004018080602001828103825260258152602001806144046025913960400191505060405180910390fd5b600161222461221f8761378d565b613819565b83868660405160008152602001604052604051808581526020018460ff1660ff1681526020018381526020018281526020019450505050506020604051602081039080840390855afa15801561227e573d6000803e3d6000fd5b505050602060405103516001600160a01b0316866001600160a01b031614905095945050505050565b600082820183811015612301576040805162461bcd60e51b815260206004820152601b60248201527f536166654d6174683a206164646974696f6e206f766572666c6f770000000000604482015290519081900360640190fd5b90505b92915050565b6001600160a01b03808316600081815260046020908152604080832080549587166001600160a01b031996871681179091558084526005909252808320805490951684179094559251909291907f9e651a8866fbea043e911d816ec254b0e3c992c06fff32d605e72362d6023bd9908490a4606082836001600160a01b03166306fdde036040518163ffffffff1660e01b815260040160006040518083038186803b1580156123b857600080fd5b505afa1580156123cc573d6000803e3d6000fd5b505050506040513d6000823e601f3d908101601f1916820160405260208110156123f557600080fd5b8101908080516040519392919084600160201b82111561241457600080fd5b90830190602082018581111561242957600080fd5b8251600160201b81118282018810171561244257600080fd5b82525081516020918201929091019080838360005b8381101561246f578181015183820152602001612457565b50505050905090810190601f16801561249c5780820380516001836020036101000a031916815260200191505b50604052505050604051602001808065026b0ba34b1960d51b81525060060182805190602001908083835b602083106124e65780518252601f1990920191602091820191016124c7565b6001836020036101000a038019825116818451168082178552505050505050905001915050604051602081830303815290604052846001600160a01b03166395d89b416040518163ffffffff1660e01b815260040160006040518083038186803b15801561255357600080fd5b505afa158015612567573d6000803e3d6000fd5b505050506040513d6000823e601f3d908101601f19168201604052602081101561259057600080fd5b8101908080516040519392919084600160201b8211156125af57600080fd5b9083019060208201858111156125c457600080fd5b8251600160201b8111828201881017156125dd57600080fd5b82525081516020918201929091019080838360005b8381101561260a5781810151838201526020016125f2565b50505050905090810190601f1680156126375780820380516001836020036101000a031916815260200191505b506040525050506040516020018080606d60f81b81525060010182805190602001908083835b6020831061267c5780518252601f19909201916020918201910161265d565b6001836020036101000a038019825116818451168082178552505050505050905001915050604051602081830303815290604052856001600160a01b031663313ce5676040518163ffffffff1660e01b815260040160206040518083038186803b1580156126e957600080fd5b505afa1580156126fd573d6000803e3d6000fd5b505050506040513d602081101561271357600080fd5b5051604080516001600160a01b038616602082810191825260ff8516608080850191909152938301938452865160a08401528651919392606081019260c09091019188019080838360005b8381101561277657818101518382015260200161275e565b50505050905090810190601f1680156127a35780820380516001836020036101000a031916815260200191505b50838103825285518152855160209182019187019080838360005b838110156127d65781810151838201526020016127be565b50505050905090810190601f1680156128035780820380516001836020036101000a031916815260200191505b5060408051601f19818403018152828252600754600980546826a0a82faa27a5a2a760b91b865284519586900390910185206020868101828152878701968752855160608901528551959f506001600160a01b0361010090950485169e506316f198319d50929093169a5098508c975095509193506080909201919085019080838360005b838110156128a0578181015183820152602001612888565b50505050905090810190601f1680156128cd5780820380516001836020036101000a031916815260200191505b5093505050506040516020818303038152906040526040518363ffffffff1660e01b815260040180836001600160a01b03166001600160a01b0316815260200180602001828103825283818151815260200191508051906020019080838360005b8381101561294657818101518382015260200161292e565b50505050905090810190601f1680156129735780820380516001836020036101000a031916815260200191505b509350505050600060405180830381600087803b15801561299357600080fd5b505af11580156129a7573d6000803e3d6000fd5b50505050505050565b60015460ff16156129f9576040805162461bcd60e51b815260206004820152600e60248201526d185b1c9958591e481a5b9a5d195960921b604482015290519081900360640190fd5b612a0281613865565b506001805460ff191681179055565b612a196141fe565b6000825111612a6f576040805162461bcd60e51b815260206004820152601f60248201527f524c505265616465723a20494e56414c49445f42595445535f4c454e47544800604482015290519081900360640190fd5b506040805180820190915281518152602082810190820152919050565b6060612a9782613921565b612ae8576040805162461bcd60e51b815260206004820152601860248201527f524c505265616465723a204954454d5f4e4f545f4c4953540000000000000000604482015290519081900360640190fd5b6000612af38361394d565b905060608167ffffffffffffffff81118015612b0e57600080fd5b50604051908082528060200260200182016040528015612b4857816020015b612b356141fe565b815260200190600190039081612b2d5790505b5090506000612b5a85602001516139d9565b85519091508114612b9c5760405162461bcd60e51b81526004018080602001828103825260278152602001806145746027913960400191505060405180910390fd5b6000612bab8660200151613a6d565b60208701510190506000805b85811015612c0257612bc8836139d9565b9150604051806040016040528083815260200184815250858281518110612beb57fe5b602090810291909101015291810191600101612bb7565b50929695505050505050565b6000612c1982613921565b15612c6b576040805162461bcd60e51b815260206004820181905260248201527f524c505265616465723a204445434f44494e475f4c4953545f41535f55494e54604482015290519081900360640190fd5b815160211015612cc2576040805162461bcd60e51b815260206004820152601e60248201527f524c505265616465723a20494e56414c49445f55494e545f4c454e4754480000604482015290519081900360640190fd5b6000612cd183602001516139d9565b83519091508114612d135760405162461bcd60e51b81526004018080602001828103825260278152602001806145f36027913960400191505060405180910390fd5b6000612d228460200151613a6d565b84516020808701518301805193945091849003929190831015612d4c57826020036101000a820491505b5095945050505050565b60606000612d6783602001516139d9565b83519091508114612da95760405162461bcd60e51b81526004018080602001828103825260288152602001806143936028913960400191505060405180910390fd5b6000612db88460200151613a6d565b845190915081900360608167ffffffffffffffff81118015612dd957600080fd5b506040519080825280601f01601f191660200182016040528015612e04576020820181803683370190505b5090506000816020019050612d4c848860200151018285613ad0565b6040805160208101909152600081528151606091901561230457600080612e48600086613b1b565b60f81c90506001811480612e5f57508060ff166003145b15612eee57600185516002020367ffffffffffffffff81118015612e8257600080fd5b506040519080825280601f01601f191660200182016040528015612ead576020820181803683370190505b5092506000612ebd600187613b1b565b90508084600081518110612ecd57fe5b60200101906001600160f81b031916908160001a9053506001925050612f3f565b600285516002020367ffffffffffffffff81118015612f0c57600080fd5b506040519080825280601f01601f191660200182016040528015612f37576020820181803683370190505b509250600091505b60ff82165b8351811015612f8a57612f5f8360ff16820360020187613b1b565b848281518110612f6b57fe5b60200101906001600160f81b031916908160001a905350600101612f44565b50505092915050565b6000612f9e82613921565b15612fda5760405162461bcd60e51b81526004018080602001828103825260238152602001806144556023913960400191505060405180910390fd5b815160151461301a5760405162461bcd60e51b815260040180806020018281038252602181526020018061461a6021913960400191505060405180910390fd5b61230482612c0e565b600061302d6141fe565b61303684612a11565b9050606061304382612a8c565b9050606080856000826130558b612e20565b9050805160001415613071576000975050505050505050613262565b60005b865181101561325957815183111561309757600098505050505050505050613262565b6130b38782815181106130a657fe5b602002602001015161339d565b9550858051906020012084146130d457600098505050505050505050613262565b6130e387828151811061134257fe5b94508451601114156131a057815183141561313f578c805190602001206131108660108151811061120557fe5b80519060200120141561312e57600198505050505050505050613262565b600098505050505050505050613262565b600082848151811061314d57fe5b016020015160f81c905060108111156131725760009950505050505050505050613262565b613191868260ff168151811061318457fe5b6020026020010151613b78565b94505060019290920191613251565b84516002141561312e5760006131c66131bf8760008151811061120557fe5b8486613c17565b90508251818501141561321c578d805190602001206131eb8760018151811061120557fe5b80519060200120141561320a5760019950505050505050505050613262565b60009950505050505050505050613262565b806132335760009950505050505050505050613262565b80840193506132488660018151811061318457fe5b94506132519050565b600101613074565b50505050505050505b949350505050565b600854604080516320a9cea560e11b81526004810185905290516000928392839283926001600160a01b0316916341539d4a9160248083019260a0929190829003018186803b1580156132bc57600080fd5b505afa1580156132d0573d6000803e3d6000fd5b505050506040513d60a08110156132e657600080fd5b5080516020820151606090920151909450909250905061335561330f8b8463ffffffff613cf616565b6040805160208082018f90528183018e9052606082018d905260808083018d90528351808403909101815260a0909201909252805191012090858863ffffffff613d3816565b6133905760405162461bcd60e51b81526004018080602001828103825260268152602001806144d16026913960400191505060405180910390fd5b9998505050505050505050565b606080826000015167ffffffffffffffff811180156133bb57600080fd5b506040519080825280601f01601f1916602001820160405280156133e6576020820181803683370190505b50905060008160200190506134048460200151828660000151613ad0565b5092915050565b60606134196111cc83612a11565b9050606061342d8260018151811061134257fe5b90507fddf252ad1be2c89b69c2b068fc378daa952ba7f163c4a11628f55a4df523b3ef60001b613463826000815181106111e557fe5b1461349f5760405162461bcd60e51b815260040180806020018281038252602981526020018061454b6029913960400191505060405180910390fd5b60006134b1826001815181106111e557fe5b905060006001600160a01b03166134ce836002815181106111e557fe5b6001600160a01b0316146135135760405162461bcd60e51b815260040180806020018281038252602881526020018061463b6028913960400191505060405180910390fd5b6000613525846002815181106111e557fe5b905060006135338783611839565b905061156d6001600160a01b038816848363ffffffff613e8e16565b600081613597576040805162461bcd60e51b81526020600482015260116024820152700703237206469766973696f6e206279203607c1b604482015290519081900360640190fd5b6b033b2e3c9fd0803ce800000083810290810484146135fd576040805162461bcd60e51b815260206004820152601b60248201527f703237206d756c7469706c69636174696f6e206f766572666c6f770000000000604482015290519081900360640190fd5b6002830490810190808210156136445760405162461bcd60e51b81526004018080602001828103825260248152602001806143bb6024913960400191505060405180910390fd5b83828161364d57fe5b0495945050505050565b60008282028061366b576000915050612304565b83818161367457fe5b0483146136c8576040805162461bcd60e51b815260206004820152601b60248201527f703237206d756c7469706c69636174696f6e206f766572666c6f770000000000604482015290519081900360640190fd5b6b019d971e4fe8401e74000000908101908110156137175760405162461bcd60e51b81526004018080602001828103825260248152602001806143bb6024913960400191505060405180910390fd5b6b033b2e3c9fd0803ce800000090049392505050565b604080516001600160a01b0380861660248301528416604482015260648082018490528251808303909101815260849091019091526020810180516001600160e01b03166323b872dd60e01b179052613787908590613edc565b50505050565b600060405180608001604052806043815260200161426d60439139805190602001208260000151836020015184604001518051906020012060405160200180858152602001848152602001836001600160a01b03166001600160a01b03168152602001828152602001945050505050604051602081830303815290604052805190602001209050919050565b6000613823611057565b82604051602001808061190160f01b81525060020183815260200182815260200192505050604051602081830303815290604052805190602001209050919050565b6040518060800160405280604f815260200161431e604f913980516020918201208251838301206040805180820190915260018152603160f81b930192909252907fc89efdaa54c0f20c7adf612882df0950f5a951637e0307cdcb4c672f298b8bc6306138d0611184565b604080516020808201979097528082019590955260608501939093526001600160a01b03909116608084015260a0808401919091528151808403909101815260c09092019052805191012060025550565b6020810151805160009190821a9060c0821015613943576000925050506115e5565b5060019392505050565b6000806000905060006139638460200151613a6d565b602085015185519181019250015b808210156139d057613982826139d9565b82019150808211156139c55760405162461bcd60e51b815260040180806020018281038252602c815260200180614429602c913960400191505060405180910390fd5b600190920191613971565b50909392505050565b80516000908190811a60808110156139f45760019150613404565b60b8811015613a0957607e1981019150613404565b60c0811015613a365760b78103600185019450806020036101000a85510460018201810193505050613404565b60f8811015613a4b5760be1981019150613404565b60019390930151602084900360f7016101000a900490920160f5190192915050565b8051600090811a6080811015613a875760009150506115e5565b60b8811080613aa2575060c08110801590613aa2575060f881105b15613ab15760019150506115e5565b60c0811015613ac55760b5190190506115e5565b60f5190190506115e5565b80613ada57612167565b5b60208110613afa578251825260209283019290910190601f1901613adb565b915181516020939093036101000a6000190180199091169216919091179052565b60006002830615613b4c576010826002850481518110613b3757fe5b016020015160f81c81613b4657fe5b06613b6e565b6010826002850481518110613b5d57fe5b016020015160f81c81613b6c57fe5b045b60f81b9392505050565b600080613b8883602001516139d9565b83519091508114613bca5760405162461bcd60e51b815260040180806020018281038252602e8152602001806145c5602e913960400191505060405180910390fd5b8251602114613c0a5760405162461bcd60e51b81526004018080602001828103825260258152602001806142486025913960400191505060405180910390fd5b5050602001516001015190565b6000806060613c2586612e20565b90506060815167ffffffffffffffff81118015613c4157600080fd5b506040519080825280601f01601f191660200182016040528015613c6c576020820181803683370190505b509050845b82518601811015613cc6576000878281518110613c8a57fe5b602001015160f81c60f81b9050808388840381518110613ca657fe5b60200101906001600160f81b031916908160001a90535050600101613c71565b50808051906020012082805190602001201415613ce65781519250613ceb565b600092505b509095945050505050565b600061230183836040518060400160405280601e81526020017f536166654d6174683a207375627472616374696f6e206f766572666c6f770000815250613f8d565b60006020825181613d4557fe5b0615613d8f576040805162461bcd60e51b8152602060048201526014602482015273092dcecc2d8d2c840e0e4dedecc40d8cadccee8d60631b604482015290519081900360640190fd5b60006020835181613d9c57fe5b0490508060020a8510613dee576040805162461bcd60e51b81526020600482015260156024820152744c65616620696e64657820697320746f6f2062696760581b604482015290519081900360640190fd5b60008660205b85518111613e805785810151925060028806613e405781836040516020018083815260200182815260200192505050604051602081830303815290604052805190602001209150613e72565b828260405160200180838152602001828152602001925050506040516020818303038152906040528051906020012091505b600288049750602001613df4565b509094149695505050505050565b604080516001600160a01b038416602482015260448082018490528251808303909101815260649091019091526020810180516001600160e01b031663a9059cbb60e01b1790526121679084905b6060613f31826040518060400160405280602081526020017f5361666545524332303a206c6f772d6c6576656c2063616c6c206661696c6564815250856001600160a01b03166140249092919063ffffffff16565b80519091501561216757808060200190516020811015613f5057600080fd5b50516121675760405162461bcd60e51b815260040180806020018281038252602a81526020018061459b602a913960400191505060405180910390fd5b6000818484111561401c5760405162461bcd60e51b81526004018080602001828103825283818151815260200191508051906020019080838360005b83811015613fe1578181015183820152602001613fc9565b50505050905090810190601f16801561400e5780820380516001836020036101000a031916815260200191505b509250505060405180910390fd5b505050900390565b6060613262848460008560606140398561419b565b61408a576040805162461bcd60e51b815260206004820152601d60248201527f416464726573733a2063616c6c20746f206e6f6e2d636f6e7472616374000000604482015290519081900360640190fd5b60006060866001600160a01b031685876040518082805190602001908083835b602083106140c95780518252601f1990920191602091820191016140aa565b6001836020036101000a03801982511681845116808217855250505050505090500191505060006040518083038185875af1925050503d806000811461412b576040519150601f19603f3d011682016040523d82523d6000602084013e614130565b606091505b509150915081156141445791506132629050565b8051156141545780518082602001fd5b60405162461bcd60e51b8152602060048201818152865160248401528651879391928392604401919085019080838360008315613fe1578181015183820152602001613fc9565b6000813f7fc5d2460186f7233c927e7db2dcc703c0e500b653ca82273b7bfad8045d85a470818114801590613262575050151592915050565b60405180606001604052806000815260200160006001600160a01b03168152602001606081525090565b60405180604001604052806000815260200160008152509056fe41546f6b656e526f6f74436861696e4d616e616765723a204368696c6420746f6b656e206973207468652073616d65524c505265616465723a20494e56414c49445f55494e545f5354524943545f4c454e4754484d6574615472616e73616374696f6e2875696e74323536206e6f6e63652c616464726573732066726f6d2c62797465732066756e6374696f6e5369676e61747572652941546f6b656e526f6f74436861696e4d616e616765723a20544f4b454e5f4e4f545f4d415050454443616e6e6f742073656e6420455448206f7665722061546f6b656e2062726964676541546f6b656e526f6f74436861696e4d616e616765723a20494e56414c49445f55534552454950373132446f6d61696e28737472696e67206e616d652c737472696e672076657273696f6e2c6164647265737320766572696679696e67436f6e74726163742c627974657333322073616c742941546f6b656e526f6f74436861696e4d616e616765723a20414c52454144595f4d4150504544524c505265616465723a2042595445535f4445434f4445445f4c454e4754485f4d49534d41544348703237206d756c7469706c69636174696f6e206164646974696f6e206f766572666c6f7741546f6b656e526f6f74436861696e4d616e616765723a20494e56414c49445f50524f4f464e61746976654d6574615472616e73616374696f6e3a20494e56414c49445f5349474e4552524c505265616465723a204e554d5f4954454d535f4445434f4445445f4c454e4754485f4d49534d41544348524c505265616465723a204445434f44494e475f4c4953545f41535f4144445245535341546f6b656e526f6f74436861696e4d616e616765723a20494e56414c49445f4252414e43485f4d41534b41546f6b656e526f6f74436861696e4d616e616765723a20455849545f414c52454144595f50524f43455353454441546f6b656e526f6f74436861696e4d616e616765723a20494e56414c49445f4845414445525369676e657220616e64207369676e617475726520646f206e6f74206d6174636841546f6b656e526f6f74436861696e4d616e616765723a20494e56414c49445f4348494c445f434841494e5f4144445245535341546f6b656e526f6f74436861696e4d616e616765723a20494e56414c49445f5349474e4154555245524c505265616465723a204c4953545f4445434f4445445f4c454e4754485f4d49534d415443485361666545524332303a204552433230206f7065726174696f6e20646964206e6f742073756363656564524c505265616465723a2055494e545f5354524943545f4445434f4445445f4c454e4754485f4d49534d41544348524c505265616465723a2055494e545f4445434f4445445f4c454e4754485f4d49534d41544348524c505265616465723a20494e56414c49445f414444524553535f4c454e47544841546f6b656e526f6f74436861696e4d616e616765723a20494e56414c49445f5245434549564552a26469706673582212203f35128ab28d134cdb4462922be299345a14cffc56e9967b9a43626fb926b77d64736f6c63430006060033",
  "linkReferences": {},
  "deployedLinkReferences": {}
}