{
  "_format": "hh-sol-artifact-1",
  "contractName": "ERC721Predicate",
  "sourceName": "contracts/root/TokenPredicates/ERC721Predicate.sol",
  "abi": [
    {
      "inputs": [],
      "stateMutability": "nonpayable",
      "type": "constructor"
    },
    {
      "anonymous": false,
      "inputs": [
        {
          "indexed": true,
          "internalType": "address",
          "name": "depositor",
          "type": "address"
        },
        {
          "indexed": true,
          "internalType": "address",
          "name": "depositReceiver",
          "type": "address"
        },
        {
          "indexed": true,
          "internalType": "address",
          "name": "rootToken",
          "type": "address"
        },
        {
          "indexed": false,
          "internalType": "uint256",
          "name": "tokenId",
          "type": "uint256"
        }
      ],
      "name": "LockedERC721",
      "type": "event"
    },
    {
      "anonymous": false,
      "inputs": [
        {
          "indexed": true,
          "internalType": "address",
          "name": "depositor",
          "type": "address"
        },
        {
          "indexed": true,
          "internalType": "address",
          "name": "depositReceiver",
          "type": "address"
        },
        {
          "indexed": true,
          "internalType": "address",
          "name": "rootToken",
          "type": "address"
        },
        {
          "indexed": false,
          "internalType": "uint256[]",
          "name": "tokenIds",
          "type": "uint256[]"
        }
      ],
      "name": "LockedERC721Batch",
      "type": "event"
    },
    {
      "anonymous": false,
      "inputs": [
        {
          "indexed": true,
          "internalType": "bytes32",
          "name": "role",
          "type": "bytes32"
        },
        {
          "indexed": true,
          "internalType": "bytes32",
          "name": "previousAdminRole",
          "type": "bytes32"
        },
        {
          "indexed": true,
          "internalType": "bytes32",
          "name": "newAdminRole",
          "type": "bytes32"
        }
      ],
      "name": "RoleAdminChanged",
      "type": "event"
    },
    {
      "anonymous": false,
      "inputs": [
        {
          "indexed": true,
          "internalType": "bytes32",
          "name": "role",
          "type": "bytes32"
        },
        {
          "indexed": true,
          "internalType": "address",
          "name": "account",
          "type": "address"
        },
        {
          "indexed": true,
          "internalType": "address",
          "name": "sender",
          "type": "address"
        }
      ],
      "name": "RoleGranted",
      "type": "event"
    },
    {
      "anonymous": false,
      "inputs": [
        {
          "indexed": true,
          "internalType": "bytes32",
          "name": "role",
          "type": "bytes32"
        },
        {
          "indexed": true,
          "internalType": "address",
          "name": "account",
          "type": "address"
        },
        {
          "indexed": true,
          "internalType": "address",
          "name": "sender",
          "type": "address"
        }
      ],
      "name": "RoleRevoked",
      "type": "event"
    },
    {
      "inputs": [],
      "name": "BATCH_LIMIT",
      "outputs": [
        {
          "internalType": "uint256",
          "name": "",
          "type": "uint256"
        }
      ],
      "stateMutability": "view",
      "type": "function"
    },
    {
      "inputs": [],
      "name": "DEFAULT_ADMIN_ROLE",
      "outputs": [
        {
          "internalType": "bytes32",
          "name": "",
          "type": "bytes32"
        }
      ],
      "stateMutability": "view",
      "type": "function"
    },
    {
      "inputs": [],
      "name": "MANAGER_ROLE",
      "outputs": [
        {
          "internalType": "bytes32",
          "name": "",
          "type": "bytes32"
        }
      ],
      "stateMutability": "view",
      "type": "function"
    },
    {
      "inputs": [],
      "name": "TOKEN_TYPE",
      "outputs": [
        {
          "internalType": "bytes32",
          "name": "",
          "type": "bytes32"
        }
      ],
      "stateMutability": "view",
      "type": "function"
    },
    {
      "inputs": [],
      "name": "TRANSFER_EVENT_SIG",
      "outputs": [
        {
          "internalType": "bytes32",
          "name": "",
          "type": "bytes32"
        }
      ],
      "stateMutability": "view",
      "type": "function"
    },
    {
      "inputs": [],
      "name": "WITHDRAW_BATCH_EVENT_SIG",
      "outputs": [
        {
          "internalType": "bytes32",
          "name": "",
          "type": "bytes32"
        }
      ],
      "stateMutability": "view",
      "type": "function"
    },
    {
      "inputs": [
        {
          "internalType": "address",
          "name": "",
          "type": "address"
        },
        {
          "internalType": "address",
          "name": "rootToken",
          "type": "address"
        },
        {
          "internalType": "bytes",
          "name": "log",
          "type": "bytes"
        }
      ],
      "name": "exitTokens",
      "outputs": [],
      "stateMutability": "nonpayable",
      "type": "function"
    },
    {
      "inputs": [
        {
          "internalType": "bytes32",
          "name": "role",
          "type": "bytes32"
        }
      ],
      "name": "getRoleAdmin",
      "outputs": [
        {
          "internalType": "bytes32",
          "name": "",
          "type": "bytes32"
        }
      ],
      "stateMutability": "view",
      "type": "function"
    },
    {
      "inputs": [
        {
          "internalType": "bytes32",
          "name": "role",
          "type": "bytes32"
        },
        {
          "internalType": "uint256",
          "name": "index",
          "type": "uint256"
        }
      ],
      "name": "getRoleMember",
      "outputs": [
        {
          "internalType": "address",
          "name": "",
          "type": "address"
        }
      ],
      "stateMutability": "view",
      "type": "function"
    },
    {
      "inputs": [
        {
          "internalType": "bytes32",
          "name": "role",
          "type": "bytes32"
        }
      ],
      "name": "getRoleMemberCount",
      "outputs": [
        {
          "internalType": "uint256",
          "name": "",
          "type": "uint256"
        }
      ],
      "stateMutability": "view",
      "type": "function"
    },
    {
      "inputs": [
        {
          "internalType": "bytes32",
          "name": "role",
          "type": "bytes32"
        },
        {
          "internalType": "address",
          "name": "account",
          "type": "address"
        }
      ],
      "name": "grantRole",
      "outputs": [],
      "stateMutability": "nonpayable",
      "type": "function"
    },
    {
      "inputs": [
        {
          "internalType": "bytes32",
          "name": "role",
          "type": "bytes32"
        },
        {
          "internalType": "address",
          "name": "account",
          "type": "address"
        }
      ],
      "name": "hasRole",
      "outputs": [
        {
          "internalType": "bool",
          "name": "",
          "type": "bool"
        }
      ],
      "stateMutability": "view",
      "type": "function"
    },
    {
      "inputs": [
        {
          "internalType": "address",
          "name": "_owner",
          "type": "address"
        }
      ],
      "name": "initialize",
      "outputs": [],
      "stateMutability": "nonpayable",
      "type": "function"
    },
    {
      "inputs": [
        {
          "internalType": "address",
          "name": "depositor",
          "type": "address"
        },
        {
          "internalType": "address",
          "name": "depositReceiver",
          "type": "address"
        },
        {
          "internalType": "address",
          "name": "rootToken",
          "type": "address"
        },
        {
          "internalType": "bytes",
          "name": "depositData",
          "type": "bytes"
        }
      ],
      "name": "lockTokens",
      "outputs": [],
      "stateMutability": "nonpayable",
      "type": "function"
    },
    {
      "inputs": [
        {
          "internalType": "address",
          "name": "",
          "type": "address"
        },
        {
          "internalType": "address",
          "name": "",
          "type": "address"
        },
        {
          "internalType": "uint256",
          "name": "",
          "type": "uint256"
        },
        {
          "internalType": "bytes",
          "name": "",
          "type": "bytes"
        }
      ],
      "name": "onERC721Received",
      "outputs": [
        {
          "internalType": "bytes4",
          "name": "",
          "type": "bytes4"
        }
      ],
      "stateMutability": "nonpayable",
      "type": "function"
    },
    {
      "inputs": [
        {
          "internalType": "bytes32",
          "name": "role",
          "type": "bytes32"
        },
        {
          "internalType": "address",
          "name": "account",
          "type": "address"
        }
      ],
      "name": "renounceRole",
      "outputs": [],
      "stateMutability": "nonpayable",
      "type": "function"
    },
    {
      "inputs": [
        {
          "internalType": "bytes32",
          "name": "role",
          "type": "bytes32"
        },
        {
          "internalType": "address",
          "name": "account",
          "type": "address"
        }
      ],
      "name": "revokeRole",
      "outputs": [],
      "stateMutability": "nonpayable",
      "type": "function"
    }
  ],
  "bytecode": "0x60806040526002805460ff1916905534801561001a57600080fd5b50611be18061002a6000396000f3fe608060405234801561001057600080fd5b506004361061010b5760003560e01c806391d14854116100a2578063c4d66de811610071578063c4d66de8146103a8578063ca15c873146103ce578063d547741f146103eb578063e375b64e14610417578063ec87621c146104a65761010b565b806391d14854146103505780639559c0bd14610390578063a217fddf14610398578063b017a30f146103a05761010b565b80634794b430116100de5780634794b43014610244578063609c92b81461024c5780638274664f146102545780639010d07c146103115761010b565b8063150b7a0214610110578063248a9ca3146101bb5780632f2ff15d146101ea57806336568abe14610218575b600080fd5b61019e6004803603608081101561012657600080fd5b6001600160a01b03823581169260208101359091169160408201359190810190608081016060820135600160201b81111561016057600080fd5b82018360208201111561017257600080fd5b803590602001918460018302840111600160201b8311171561019357600080fd5b5090925090506104ae565b604080516001600160e01b03199092168252519081900360200190f35b6101d8600480360360208110156101d157600080fd5b50356104bf565b60408051918252519081900360200190f35b6102166004803603604081101561020057600080fd5b50803590602001356001600160a01b03166104d7565b005b6102166004803603604081101561022e57600080fd5b50803590602001356001600160a01b0316610543565b6101d86105a4565b6101d86105c8565b6102166004803603606081101561026a57600080fd5b6001600160a01b038235811692602081013590911691810190606081016040820135600160201b81111561029d57600080fd5b8201836020820111156102af57600080fd5b803590602001918460018302840111600160201b831117156102d057600080fd5b91908080601f0160208091040260200160405190810160405280939291908181526020018383808284376000920191909152509295506105e6945050505050565b6103346004803603604081101561032757600080fd5b5080359060200135610a4b565b604080516001600160a01b039092168252519081900360200190f35b61037c6004803603604081101561036657600080fd5b50803590602001356001600160a01b0316610a72565b604080519115158252519081900360200190f35b6101d8610a90565b6101d8610a95565b6101d8610a9a565b610216600480360360208110156103be57600080fd5b50356001600160a01b0316610abe565b6101d8600480360360208110156103e457600080fd5b5035610b7d565b6102166004803603604081101561040157600080fd5b50803590602001356001600160a01b0316610b94565b6102166004803603608081101561042d57600080fd5b6001600160a01b0382358116926020810135821692604082013590921691810190608081016060820135600160201b81111561046857600080fd5b82018360208201111561047a57600080fd5b803590602001918460018302840111600160201b8311171561049b57600080fd5b509092509050610bed565b6101d8610fa7565b630a85bd0160e11b95945050505050565b6000818152602081905260409020600201545b919050565b6000828152602081905260409020600201546104fa906104f5610fcb565b610a72565b6105355760405162461bcd60e51b815260040180806020018281038252602f815260200180611a15602f913960400191505060405180910390fd5b61053f8282610fd0565b5050565b61054b610fcb565b6001600160a01b0316816001600160a01b03161461059a5760405162461bcd60e51b815260040180806020018281038252602f815260200180611b56602f913960400191505060405180910390fd5b61053f828261103f565b7ff871896b17e9cb7a64941c62c188a4f5c621b86800e3d15452ece01ce56073df81565b604080516545524337323160d01b8152905190819003600601902081565b604080516b4d414e414745525f524f4c4560a01b8152905190819003600c019020610613816104f5610fcb565b6001906106b35760405162461bcd60e51b81526020600482019081528254600260001961010060018416150201909116046024830181905290918291604490910190849080156106a45780601f10610679576101008083540402835291602001916106a4565b820191906000526020600020905b81548152906001019060200180831161068757829003601f168201915b50509250505060405180910390fd5b5060606106c76106c2846110ae565b611129565b905060606106e8826001815181106106db57fe5b6020026020010151611129565b90506000610709826001815181106106fc57fe5b60200260200101516112ab565b90507fddf252ad1be2c89b69c2b068fc378daa952ba7f163c4a11628f55a4df523b3ef60001b61073f836000815181106106fc57fe5b141561084b5760006001600160a01b0316610760836002815181106106fc57fe5b6001600160a01b0316146107a55760405162461bcd60e51b8152600401808060200182810382526021815260200180611b356021913960400191505060405180910390fd5b856001600160a01b03166342842e0e30836107c6866003815181106106fc57fe5b6040518463ffffffff1660e01b815260040180846001600160a01b03166001600160a01b03168152602001836001600160a01b03166001600160a01b031681526020018281526020019350505050600060405180830381600087803b15801561082e57600080fd5b505af1158015610842573d6000803e3d6000fd5b50505050610a42565b7ff871896b17e9cb7a64941c62c188a4f5c621b86800e3d15452ece01ce56073df60001b61087f836000815181106106fc57fe5b1415610a0b5760606108a48460028151811061089757fe5b60200260200101516113f3565b905060608180602001905160208110156108bd57600080fd5b8101908080516040519392919084600160201b8211156108dc57600080fd5b9083019060208201858111156108f157600080fd5b82518660208202830111600160201b8211171561090d57600080fd5b82525081516020918201928201910280838360005b8381101561093a578181015183820152602001610922565b50505050905001604052505050905060008151905060005b8181101561084257896001600160a01b03166342842e0e308786858151811061097757fe5b60200260200101516040518463ffffffff1660e01b815260040180846001600160a01b03166001600160a01b03168152602001836001600160a01b03166001600160a01b031681526020018281526020019350505050600060405180830381600087803b1580156109e757600080fd5b505af11580156109fb573d6000803e3d6000fd5b5050600190920191506109529050565b60405162461bcd60e51b8152600401808060200182810382526022815260200180611aec6022913960400191505060405180910390fd5b50505050505050565b6000828152602081905260408120610a69908363ffffffff6114bd16565b90505b92915050565b6000828152602081905260408120610a69908363ffffffff6114c916565b601481565b600081565b7fddf252ad1be2c89b69c2b068fc378daa952ba7f163c4a11628f55a4df523b3ef81565b60025460ff1615610b07576040805162461bcd60e51b815260206004820152600e60248201526d185b1c9958591e481a5b9a5d195960921b604482015290519081900360640190fd5b610b376040518060400160405280600f81526020016e45524337323150726564696361746560881b8152506114de565b610b42600082610535565b604080516b4d414e414745525f524f4c4560a01b8152905190819003600c019020610b6d9082610535565b506002805460ff19166001179055565b6000818152602081905260408120610a6c9061157c565b600082815260208190526040902060020154610bb2906104f5610fcb565b61059a5760405162461bcd60e51b8152600401808060200182810382526030815260200180611a6c6030913960400191505060405180910390fd5b604080516b4d414e414745525f524f4c4560a01b8152905190819003600c019020610c1a816104f5610fcb565b600190610c805760405162461bcd60e51b81526020600482019081528254600260001961010060018416150201909116046024830181905290918291604490910190849080156106a45780601f10610679576101008083540402835291602001916106a4565b506020821415610d5f57600083836020811015610c9c57600080fd5b5060408051913580835290519092506001600160a01b038088169289821692918b16917f8357472e13612a8c3d6f3e9d71fbba8a78ab77dbdcc7fcf3b7b645585f0bbbfc9181900360200190a460408051632142170760e11b81526001600160a01b038981166004830152306024830152604482018490529151918716916342842e0e9160648082019260009290919082900301818387803b158015610d4157600080fd5b505af1158015610d55573d6000803e3d6000fd5b5050505050610f9f565b606083836020811015610d7157600080fd5b810190602081018135600160201b811115610d8b57600080fd5b820183602082011115610d9d57600080fd5b803590602001918460208302840111600160201b83111715610dbe57600080fd5b919080806020026020016040519081016040528093929190818152602001838360200280828437600081840152601f19601f8201169050808301925050505050505091929192905050509050846001600160a01b0316866001600160a01b0316886001600160a01b03167f5345c2beb0e49c805f42bb70c4ec5c3c3d9680ce45b8f4529c028d5f3e0f7a0d846040518080602001828103825283818151815260200191508051906020019060200280838360005b83811015610e8a578181015183820152602001610e72565b505050509050019250505060405180910390a480516014811115610edf5760405162461bcd60e51b8152600401808060200182810382526024815260200180611ac86024913960400191505060405180910390fd5b60005b81811015610f9b57866001600160a01b03166342842e0e8a30868581518110610f0757fe5b60200260200101516040518463ffffffff1660e01b815260040180846001600160a01b03166001600160a01b03168152602001836001600160a01b03166001600160a01b031681526020018281526020019350505050600060405180830381600087803b158015610f7757600080fd5b505af1158015610f8b573d6000803e3d6000fd5b505060019092019150610ee29050565b5050505b505050505050565b604080516b4d414e414745525f524f4c4560a01b8152905190819003600c01902081565b335b90565b6000828152602081905260409020610fee908263ffffffff61158716565b1561053f57610ffb610fcb565b6001600160a01b0316816001600160a01b0316837f2f8788117e7eff1d82e926ec794901d17c78024a50270940304540a733656f0d60405160405180910390a45050565b600082815260208190526040902061105d908263ffffffff61159c16565b1561053f5761106a610fcb565b6001600160a01b0316816001600160a01b0316837ff6391f5c32d9c69d2a47ea670b442974b53935d1edc7fd64eb21e047a839171b60405160405180910390a45050565b6110b6611940565b600082511161110c576040805162461bcd60e51b815260206004820152601f60248201527f524c505265616465723a20494e56414c49445f42595445535f4c454e47544800604482015290519081900360640190fd5b506040805180820190915281518152602082810190820152919050565b6060611134826115b1565b611185576040805162461bcd60e51b815260206004820152601860248201527f524c505265616465723a204954454d5f4e4f545f4c4953540000000000000000604482015290519081900360640190fd5b6000611190836115dd565b905060608167ffffffffffffffff811180156111ab57600080fd5b506040519080825280602002602001820160405280156111e557816020015b6111d2611940565b8152602001906001900390816111ca5790505b50905060006111f78560200151611669565b855190915081146112395760405162461bcd60e51b8152600401808060200182810382526027815260200180611b0e6027913960400191505060405180910390fd5b60006112488660200151611702565b60208701510190506000805b8581101561129f5761126583611669565b915060405180604001604052808381526020018481525085828151811061128857fe5b602090810291909101015291810191600101611254565b50929695505050505050565b60006112b6826115b1565b15611308576040805162461bcd60e51b815260206004820181905260248201527f524c505265616465723a204445434f44494e475f4c4953545f41535f55494e54604482015290519081900360640190fd5b81516021101561135f576040805162461bcd60e51b815260206004820152601e60248201527f524c505265616465723a20494e56414c49445f55494e545f4c454e4754480000604482015290519081900360640190fd5b600061136e8360200151611669565b835190915081146113b05760405162461bcd60e51b8152600401808060200182810382526027815260200180611b856027913960400191505060405180910390fd5b60006113bf8460200151611702565b845160208087015183018051939450918490039291908310156113e957826020036101000a820491505b5095945050505050565b606060006114048360200151611669565b835190915081146114465760405162461bcd60e51b8152600401808060200182810382526028815260200180611a446028913960400191505060405180910390fd5b60006114558460200151611702565b845190915081900360608167ffffffffffffffff8111801561147657600080fd5b506040519080825280601f01601f1916602001820160405280156114a1576020820181803683370190505b50905060008160200190506113e9848860200151018285611765565b6000610a6983836117b0565b6000610a69836001600160a01b038416611814565b806040516020018082805190602001908083835b602083106115115780518252601f1990920191602091820191016114f2565b51815160209384036101000a60001901801990921691161790527f3a20494e53554646494349454e545f5045524d495353494f4e530000000000009190930190815260408051808303600519018152601a9092019052805161053f955060019450920191905061195a565b6000610a6c8261182c565b6000610a69836001600160a01b038416611830565b6000610a69836001600160a01b03841661187a565b6020810151805160009190821a9060c08210156115d3576000925050506104d2565b5060019392505050565b6000806000905060006115f38460200151611702565b602085015185519181019250015b808210156116605761161282611669565b82019150808211156116555760405162461bcd60e51b815260040180806020018281038252602c815260200180611a9c602c913960400191505060405180910390fd5b600190920191611601565b50909392505050565b80516000908190811a608081101561168457600191506116fb565b60b881101561169957607e19810191506116fb565b60c08110156116c65760b78103600185019450806020036101000a855104600182018101935050506116fb565b60f88110156116db5760be19810191506116fb565b60f78103600185019450806020036101000a855104600182018101935050505b5092915050565b8051600090811a608081101561171c5760009150506104d2565b60b8811080611737575060c08110801590611737575060f881105b156117465760019150506104d2565b60c081101561175a5760b5190190506104d2565b60f5190190506104d2565b8061176f576117ab565b5b6020811061178f578251825260209283019290910190601f1901611770565b8251825160208390036101000a60001901801990921691161782525b505050565b815460009082106117f25760405162461bcd60e51b81526004018080602001828103825260228152602001806119f36022913960400191505060405180910390fd5b82600001828154811061180157fe5b9060005260206000200154905092915050565b60009081526001919091016020526040902054151590565b5490565b600061183c8383611814565b61187257508154600181810184556000848152602080822090930184905584548482528286019093526040902091909155610a6c565b506000610a6c565b6000818152600183016020526040812054801561193657835460001980830191908101906000908790839081106118ad57fe5b90600052602060002001549050808760000184815481106118ca57fe5b6000918252602080832090910192909255828152600189810190925260409020908401905586548790806118fa57fe5b60019003818190600052602060002001600090559055866001016000878152602001908152602001600020600090556001945050505050610a6c565b6000915050610a6c565b604051806040016040528060008152602001600081525090565b828054600181600116156101000203166002900490600052602060002090601f016020900481019282601f1061199b57805160ff19168380011785556119c8565b828001600101855582156119c8579182015b828111156119c85782518255916020019190600101906119ad565b506119d49291506119d8565b5090565b610fcd91905b808211156119d457600081556001016119de56fe456e756d657261626c655365743a20696e646578206f7574206f6620626f756e6473416363657373436f6e74726f6c3a2073656e646572206d75737420626520616e2061646d696e20746f206772616e74524c505265616465723a2042595445535f4445434f4445445f4c454e4754485f4d49534d41544348416363657373436f6e74726f6c3a2073656e646572206d75737420626520616e2061646d696e20746f207265766f6b65524c505265616465723a204e554d5f4954454d535f4445434f4445445f4c454e4754485f4d49534d415443484552433732315072656469636174653a20455843454544535f42415443485f4c494d49544552433732315072656469636174653a20494e56414c49445f5349474e4154555245524c505265616465723a204c4953545f4445434f4445445f4c454e4754485f4d49534d415443484552433732315072656469636174653a20494e56414c49445f5245434549564552416363657373436f6e74726f6c3a2063616e206f6e6c792072656e6f756e636520726f6c657320666f722073656c66524c505265616465723a2055494e545f4445434f4445445f4c454e4754485f4d49534d41544348a2646970667358221220124ee850200e64bb0de4ef9062f3da0dee9dbcb02bf09630b475095c0b9a743c64736f6c63430006060033",
  "linkReferences": {},
  "deployedLinkReferences": {}
}